:020000040000FA
:1000000090250020611E00007B7E0000351E000050
:10001000351E0000351E0000351E0000351E000094
:100020000000000000000000000000003118000087
:10003000351E000000000000D9170000D52A00007E
:10004000B1180000B1180000B1180000B11800008C
:10005000B1180000B1180000B1180000B11800007C
:10006000B1180000B1180000B1180000B11800006C
:10007000B1180000B1180000B1180000B11800005C
:10008000B1180000B1180000B1180000B11800004C
:10009000B1180000B1180000B1180000B11800003C
:1000A000B1180000B1180000B1180000B11800002C
:1000B000B1180000B1180000B1180000B11800001C
:1000C000B1180000B1180000B1180000B11800000C
:1000D000B1180000B1180000B1180000B1180000FC
:1000E000B1180000B1180000B1180000B1180000EC
:1000F000B1180000B1180000B1180000B1180000DC
:10010000B1180000B1180000B1180000B1180000CB
:10011000B1180000B1180000B1180000B1180000BB
:10012000B1180000B1180000B1180000B1180000AB
:10013000B1180000B1180000B1180000B11800009B
:10014000B1180000000000000000000000000000E6
:10015000000000000000000000000000000000009F
:10016000000000000000000000000000000000008F
:10017000000000000000000000000000000000007F
:10018000000000000000000000000000000000006F
:10019000000000000000000000000000000000005F
:1001A000000000000000000000000000000000004F
:1001B000000000000000000000000000000000003F
:1001C000000000000000000000000000000000002F
:1001D000000000000000000000000000000000001F
:1001E000000000000000000000000000000000000F
:1001F00000000000000000000000000000000000FF
:10020000DEE61E284CBBCE8F025B00003C000000E7
:1002100000000100010000000000000000000000DC
:10022000FFFF02910000000000000000000000003D
:1002300000000000000000000000000053B94AB9AF
:10024000002908BF00281CBF4FF0FF314FF0FF30DE
:1002500000F070B9ADF1080C6DE904CE00F006F8BD
:10026000DDF804E0DDE9022304B070472DE9F04732
:10027000089E0D4604468A46002B7FD18A421746C7
:1002800041D9B2FA82F24AB1C2F1200105FA02F371
:100290009740944020FA01F141EA030A4FEA1748D7
:1002A0004FEA144C1FFA87F9BAFBF8FE08FB1EA3AD
:1002B0000EFB09F14CEA0343994206D9FB1802D21E
:1002C000994200F224810EF1FF3E591AA3B2B1FB0C
:1002D000F8F008FB101100FB09F943EA0144A145BD
:1002E00005D93C1902D2A14500F20E810138A4EBD8
:1002F000090440EA0E4000211EB1D4400023C6E9A3
:100300000043BDE8F08702B9FFDEB2FA82F2002AAC
:100310004FD1CB1B4FEA174E1FFA87F80121250C4E
:10032000B3FBFEFC0EFB1C302B4608FB0CF945EA28
:100330000045A9450AD97D192CBF01230023A945F1
:1003400002D9002B00F0D9800CF1FF3CA5EB090588
:10035000A3B2B5FBFEF00EFB105508FB00F843EA14
:100360000544A04505D93C1902D2A04500F2C98038
:100370000138A4EB080440EA0C40BDE78B4208D9E1
:10038000002E00F0B1800021C6E900050846BDE856
:10039000F087B3FA83F1002946D1AB42C0F0A780C1
:1003A000824240F2A4800846002EAAD0C6E9004A44
:1003B000A7E7C2F12000974001FA02F34FEA174E77
:1003C000C14024FA00F51FFA87F894401D43B1FBA1
:1003D000FEF02B0C0EFB101100FB08FC43EA01435E
:1003E0009C4509D9FB182CBF012100219C4502D94D
:1003F000002900F095800138A3EB0C03ADB2B3FBEC
:10040000FEF10EFB113301FB08FC45EA0345AC4548
:1004100005D97D1902D2AC4500F289800139A5EBDE
:100420000C0341EA00417AE7C1F120048B4002FA53
:1004300001F705FA01FCE24020FA04F8E54000FA71
:1004400001FE134348EA0C024FEA13484FEA124CEC
:100450001FFA83F9B5FBF8FA08FB1A550AFB09F0F5
:100460004CEA054C60450AD913EB0C0C2CBF012556
:100470000025604501D9002D55D00AF1FF3AACEBBB
:10048000000C92B2BCFBF8F008FB10CC00FB09F9A1
:1004900042EA0C4CE14505D913EB0C0C01D2E145C5
:1004A0003BD8013840EA0A40ACEB090CA0FB0789B5
:1004B000CC4545464A4602D306D1C64504D201384A
:1004C000B8EB070569EB03022EB3BEEB05036CEB3B
:1004D000020C23FA01F20CFA04F42CFA01F30021C5
:1004E0001443C6E900430CE73146304609E7841A55
:1004F00065EB030301209A4656E7ACF1020C3D443C
:1005000024E702383C4434E702383C44EFE6AEF1DD
:10051000020E3B44D9E63146F3E602389C44C1E77B
:1005200002383B4468E7AAF1020A9C44A7E7023973
:100530003D4474E7704700BF2DE9E04F2746A046D1
:10054000A146A246A346A446A2B02DEC000A84F31D
:10055000008825462646A4473DEC000A22B0BDE8A7
:10056000E08F00000B6801330B60014B1B681847DC
:1005700000000020014B1860704700BF0000002001
:1005800007B50B46002102460191034801A900F07E
:1005900005F803B05DF804FB650500002DE9F04F98
:1005A0008B4692461C46002591B002909AF80000B6
:1005B00008B928465EE325280AF1010707D0594605
:1005C000029B98470028C0F25583013510E218229B
:1005D00000210AA807F0ACFC9AF80130252B78D04E
:1005E00000229446164696461046394617F8013BB7
:1005F0002B2B00F09D8000F29480202B00F09B803C
:10060000232B00F09A8028B19DF8300040F00400C0
:100610008DF83000BEF1000F05D09DF8300040F09D
:1006200008008DF830002EB19DF8300040F0100029
:100630008DF83000BCF1000F05D09DF8300040F07F
:1006400020008DF830002AB19DF8302042F04002A1
:100650008DF830209DF8302002F04400442803D16A
:100660006FF386128DF830209DF830202A2B42F04F
:1006700080028DF830207BD19DF831204B1C42F058
:1006800001028DF831201A782E2A0CBF0121002199
:100690009DF8312061F341028DF8312074D15A78F0
:1006A0002A2A6AD000210A260133184610F8012BA5
:1006B000A2F13007092F40F28E809DF830200E9174
:1006C000C2F3400040EAD17161F341028DF830205D
:1006D0005AE00AF102078DF833309DF83130D9071E
:1006E00040F1498154F8049BB9F1000F07DA9DF8F5
:1006F0003020C9F1000942F004028DF830205A0779
:1007000040F1428154F8048BB8F1000F80F241812E
:100710009DF831306FF341038DF831304FF0FF38E1
:1007200037E12D2B0CD0302B7FF46DAF01225CE72D
:100730004FF0010E59E7012657E74FF0010C54E73F
:10074000012052E733460CFB0202303A1E4616F8EF
:10075000010BA0F13007092FF4D9994293D09DF8ED
:1007600030100D92D20F62F341018DF830108AE7FC
:100770000B4600224FF00A0CE8E79DF831200233C7
:1007800042F004028DF831201F4617F8012B6C2A25
:1007900041D025D8682A2BD06A2A46D04C2A4CD082
:1007A0001F4617F8012B9DF83130782A8DF8332039
:1007B00000F2D980572A4DD8412A03D0453A022A5F
:1007C00000F2D18004229DF8323062F302038DF8EA
:1007D000323001239EE006FB01210346303964E7F5
:1007E000742A26D07A2ADBD106229DF831300DE01A
:1007F0005A78682A9DF8312006D1012161F3C6029A
:100800008DF831209F1CCCE71346022262F3C60309
:100810008DF83130C5E75A786C2A9DF8312001D126
:100820000421EBE713460322F0E705229DF831305F
:10083000ECE707229DF83130E8E7BDF8303023F4CB
:10084000F04323F0020343F4804343F00203ADF886
:100850003030A6E7A2F15801202900F2848001A0DF
:1008600050F821F02909000067090000670900001D
:1008700067090000670900006709000067090000B8
:100880006709000067090000C5070000670900004C
:1008900029090000E9080000C5070000C50700009D
:1008A000C507000067090000E908000067090000AB
:1008B00067090000670900006709000031090000AE
:1008C000290900004D0900006709000067090000C0
:1008D0004D090000670900002909000067090000B0
:1008E000670900002909000001209DF8321003F07B
:1008F000780360F30201402B8DF8321002BF9DF89F
:10090000301041F001018DF83010632A31D1003BE5
:1009100018BF01239DF83020C2F340010B4363F35D
:1009200041028DF83020D8E602209DF83210DEE733
:1009300003219DF8322003F07803A3F1400061F316
:10094000020243428DF832204341E3E703219DF840
:10095000322013F0780F61F3020214BF0123002349
:100960008DF83220D6E79DF8303043F001038DF842
:1009700030300023CEE79DF93020002AACBF4FF085
:10098000FF39DDF83490BAE69B077FF5C7AEDDF896
:1009900038800023CDE90D339DF832309DF83120A9
:1009A00003F00703012BC2F3C30236D1D31E042B7D
:1009B00020D8DFE803F00307071F1F0054F8040BDB
:1009C000C11704E0073424F00704F4E80201CDE97C
:1009D0000A019DF8303013F0030654D03B465246CE
:1009E0005946029807F0D3F90028C0F24381054424
:1009F000BA46DBE554F8040B012A4FEAE071CDE971
:100A00000A0105D19DF828300A9300230B93E0E7F3
:100A1000022ADED1BDF92800D2E7022B23D1D31E52
:100A2000042B13D8DFE803F0030A0A121200002196
:100A30002068231D0A900B911C46CAE7073424F056
:100A40000703F3E80201CDE90A01F5E754F8043B96
:100A5000012A0A934FF000030B93D3D0022AB8D196
:100A6000BDF82830D0E7042B07D1073424F0070461
:100A7000F4E80201CDE90A01ABE7032B04BF54F807
:100A8000043B0A93A5E79DF833007828B0D8622884
:100A900022D825283FF493AD5828A9D1DDE90A01D1
:100AA0000DF1260300930CAA04AB07F025F982464A
:100AB000B8F1000F0DF126000CDB9DF83020A0EB03
:100AC0000A036FF3861298458DF8302002D9A8EBFF
:100AD00003030D9380463DE06338152888D801A1B3
:100AE00051F820F0650B0000C90B0000F10900006F
:100AF000F1090000F1090000F1090000C90B000034
:100B0000F1090000F1090000F1090000F1090000FD
:100B1000270C0000F50B0000F90B0000F1090000A4
:100B2000F10900003D0B0000F1090000F50B000089
:100B3000F1090000F1090000F50B0000B8F1000F09
:100B4000DDF828A00ADB4146504607F0B6F900263A
:100B50000AEB0008BAF1000F0CD149E7504607F044
:100B6000A5F9F4E700260A9B0DF111088DF8103065
:100B70000DF1100AA8EB0A0306B101339DF83220EB
:100B8000D0066BD5023352060D9948BF0E9A0B441E
:100B900048BF9B18B9F1000F79DD9DF83020A9EB13
:100BA0000309C2F380030393530770D4500664D53E
:100BB00046B159463046029B984700285ADB039BB2
:100BC00001351E46302359E01E0711D413F01006DC
:100BD00018BF2026DDE90A23002A73F10001BFF6C1
:100BE0005DAF524263EB43032D26CDE90A2355E75F
:100BF0002B26EFE7002651E70A9848B30DF12603AC
:100C00000093002104AB0CAA07F076F8BDF832304F
:100C1000824603F0EF0343F4F04343F01003002651
:100C2000ADF8323044E70A9B072A3FF6E1AEDFE831
:100C300002F00D04060D08080D0D1D70D8E61D808C
:100C4000D6E62846E917C3E90001D1E61D60CFE6E4
:100C5000DFF8C4800646A8F1050A8BE7110748BFF4
:100C6000013390E7184603935946029B98470028A2
:100C7000039B04DA11B0BDE8F08F20234D444A46AF
:100C8000002AA5EB090109F1FF39EBDC0D4636B16D
:100C900059463046029B98470028EBDB01359DF80A
:100CA0003230D90601D41A0706D559463020029BA6
:100CB00098470028DEDB01359DF83230DB0607D58A
:100CC00059469DF83300029B98470028D2DB013536
:100CD0000D9E2E44731B002B16DC4346524659468C
:100CE000029807F054F80028C4DB0544A944A9EB96
:100CF0000503002B7FF77CAE59462020029B9847C6
:100D00000028B7DB0135F2E759463020029B9847AF
:100D10000028AFDB0135DDE7FD890000044608B59A
:100D20004FF02002EFF3118382F31288BFF36F8F2D
:100D300001F0C2FF204601F0C3F8034806F0B2FFFD
:100D400000F090FCFCE700BFFE8900004FF020029D
:100D5000EFF3118382F31288BFF36F8F0121044AEE
:100D6000C2F8401583F31188BFF36F8F00207047DE
:100D70000090035020B1034B800143F0010318475A
:100D8000704700BF5086000084B004AB03E9070041
:100D90009DF80430062B07D10122044BC3F800252F
:100DA000BFF34F8F20BFFDE704B0704700400050F5
:100DB0002DE9F84305464FF02003EFF3118683F346
:100DC0001288BFF36F8F1E4802F008FD40B91D491D
:100DD0001D48812206F066FF81211A4806F0EDFFCA
:100DE000174802F017FD194B1C68002C38BF00246F
:100DF0009CB14FF00C09164FDFF85880D4E901324E
:100E0000002D08BF13462BB198F8142009FB02F2FD
:100E1000B85C98472468002CF0D1094802F0ECFC3B
:100E200040B908490848AC2206F03CFFAC2105480F
:100E300006F0C3FF86F31188BFF36F8FBDE8F88318
:100E4000200200202B8A0000518A0000240200208A
:100E500030020020AC090020012200F01F039A405C
:100E6000084B400903EB8000D0E8EF3F43EA020162
:100E7000C0E8EC1FBCF1000FF6D11A4214BF0120EC
:100E8000002070473C020020012230B51A4B85B08B
:100E90001D7D05F01F039A40D043184B690903EBF1
:100EA0008103D3E8EF1F01EA0004C3E8EC4FBCF173
:100EB000000FF6D1114217D00C22114C01AB02FBEE
:100EC000054207CA83E807000E4A7AB193E8070093
:100ED00006F07BFF0020FFF76BFF0C2300226B4323
:100EE000E118E250C1E9012205B030BD82F311885A
:100EF000BFF36F8FEEE700BFAC0900202C0200208B
:100F000030020020CB7D00002DE9F041334B074635
:100F10001C7D88B02046FFF79FFFDFF8D88060B9BE
:100F20000C256E4605FB04853A462146304606F000
:100F300064FF96E8070085E807000C23634318F870
:100F4000030008EB0302650904F01F06A8B37B1C2D
:100F50000FD04FF4004C0021D2F808E020480023C5
:100F6000ECFB0E011F4AFFF769F90121381A03F063
:100F700085FF02F033FF0120FFF71AFF01221A4B11
:100F8000B24003EB8503D3E8EF1F1143C3E8E01F32
:100F90000028F8D10C2303FB048405AB94E8070078
:100FA00083E80700114A1AB193E80700FFF7ECFE47
:100FB000FFF76AFF03F048FB01200123B340DB4346
:100FC0000B4A02EB8505D5E8EF2F1A40C5E8E12F63
:100FD0000029F8D108B0BDE8F08100BFAC090020BD
:100FE0003F420F0040420F002C020020890D0000FC
:100FF0003C0200203002002000280DDB01224309C2
:1010000000F01F0002FA00F0044A203342F82300E7
:10101000BFF34F8FBFF36F8F704700BF00E100E059
:10102000F7B500281C4614BF4FF400534FF400439B
:101030008A420BD294222749274806F033FE942196
:10104000244803B0BDE8F04006F0B7BE40D00D46DE
:10105000224E002839D005F5E0770135AA4246F83E
:101060002740F6D802FB03F0013A4B4300901C489E
:1010700006F018FE1B4B14F0100F1B491B4808BF4D
:10108000194606F00FFE14F0040F14BF72212D2133
:10109000174806F007FE14F0020F14BF77212D2128
:1010A000134806F0FFFD14F0010F0CBF2D2178212D
:1010B0000F4806F0F7FD6C210D4806F0F3FD0D48D2
:1010C00003B0BDE8F04006F0EDBD05F5C077C4E71C
:1010D00003B0F0BD818A0000518A0000003000504A
:1010E000A28A0000758A00006C8A0000538C000000
:1010F000BC8A0000EC96000030B54FF4803485B017
:101100004FF480312548264D06F0CCFD2168254856
:1011100006F0C8FD2968244806F0C4FD102200210D
:10112000684606F005FF236868460093029400F0C5
:1011300021FF012000F050FF002000F039FF0020C7
:1011400000F05EFF0121002000F078FF00F06CFF4E
:1011500016482C6806F0A6FD0820FFF74DFF144A3C
:1011600024F00104D2F82038002B07DA03F003033F
:10117000023B012B9CBF0F4BC2F8203801210820F5
:1011800006F04CFEBFF34F8FBFF36F8F640864000F
:101190002046214622462346FFF7CEF9BF8A0000AB
:1011A00004000100D68A0000EB8A0000098B0000D1
:1011B00000300050000100802DE9F843604806F03F
:1011C00071FD002140F2171308460222FFF728FFA5
:1011D0005C4D40F20713202202210020FFF720FF80
:1011E000594806F05FFDC5F30E04584BC4F50044A2
:1011F0009C4208D256495748822206F053FD82216C
:10120000534806F0DAFDB4FA84F4534EC4F11B04DB
:10121000D6F80025E4B2D205C5F3C4350AD54F4946
:101220004C484FF4BD7206F03DFD4FF4BD714B4884
:1012300006F0C3FDD6F80435DB050AD54749454815
:1012400040F27B1206F02EFD40F27B11434806F07F
:10125000B4FD414B4248C3F80055C3F80445D3F8E8
:101260000015D3F80425520106F01CFD364806F09F
:1012700019FD00F08BF8014610B13A4806F012FD56
:101280000024394806F00EFD40F217130422002115
:101290000120FFF7C5FE304D40F207132022042144
:1012A0000120FFF7BDFE284806F0FCFCC5F880448D
:1012B0002E4806F0F7FC2E4EC5F8C0442D4F2E4D9B
:1012C000DFF8C48095F805902146B9F1000F14BFEE
:1012D00033463B4640462A6806F0E4FCB9F1000F6D
:1012E0000CD12648013406F0DDFC202C05F1080560
:1012F000E8D11548BDE8F84306F0D4BC95F8049051
:1013000095F90400FFF778FE4FEA890303F1A04343
:1013100003F54053B9F1310FD3F8002806D0002A65
:1013200007DA02F00302023A012A02D8144AC3F88B
:1013300000280121484606F071FD1248D2E700BF9F
:101340003F8B0000E0FF0000EC9600002000000052
:10135000818A0000518A000000300050638B000039
:10136000958B0000DB8B00000B8C00002D8C0000A7
:10137000348B0000798A000058860000568C0000EB
:10138000000100805D8C0000498C000000220248B2
:10139000114603F007BF00BF4002002070B50C46A5
:1013A0001546064650B96FF01500BDE8704071460D
:1013B00072467346F4468EF3008C7447002AF2D0CE
:1013C00006F06FFD0128EED00B4B9C420AD92A197A
:1013D0002D339A4209D82A462146304606F09DFD13
:1013E0000020E2E7054B9C4203D9054B2A199A429B
:1013F000F1D94FF0FF30D8E7FF01FF002F01FF00C8
:101400003801FF0070B506460D46144606F049FD4A
:1014100001280DD0204606F044FD012808D02346BF
:101420002A463146084803F0F1FE2368AB4201D05A
:101430006FF01500BDE87040714672467346F44681
:101440008EF3008C744700BF400200202DE9F04F5E
:1014500081460D4685B081B306F023FD01282CD1CD
:10146000284606F01EFD012827D04FF00008DFF8BF
:101470005CB0DFF85CA001AF5BF8046B9AE8070092
:101480004E4487E807000C223946304606F01EFD20
:10149000044600B9A6B908F10108B8F1050FEBD16F
:1014A0006FF00D04204605B0BDE8F04F714672465E
:1014B0007346F4468EF3008C74476FF01504F1E721
:1014C0003C223146284606F028FDEBE7588700000D
:1014D00020860000014803F05DBE00BF6C8700005D
:1014E00008B5B0B14368042B0DD100220368D3E8DE
:1014F000EF1F012903D1C3E8E02F0028F7D10748E7
:1015000008BF104608BD3BB1006802F08BFA00200E
:10151000F8E76FF4E040F5E70148F3E7E98FFFFFF4
:10152000EA8FFFFF10B5044618B90D4B0D485B68F4
:101530009847616808290DD031F004030AD011F0F2
:10154000020108D02146084802F022F80023236057
:101550000023636010BD1422206806F0E9FCF7E761
:1015600048000020928D0000FC03002010B50446C6
:1015700018B9164B16485B6898476368042B23D04C
:10158000082B21D0CBB92368BBB94FF0FF324FF005
:10159000FF3321460F4801F0A1FF08B923681BB9AA
:1015A0000A4B0D485B68984714220021206806F01A
:1015B000BFFC636843F002036360206806F082FEAC
:1015C000636843F00103636010BD00BF4800002062
:1015D000928D0000FC030020B88D000008B5E8B132
:1015E0004368042B0CD101220368D3E8EF1F0029C4
:1015F00003D1C3E8E02F0028F7D10BD1002008BDAC
:1016000053B100684FF0FF324FF0FF3302F032F970
:101610000028F3D00348F2E70348F0E76FF4E04016
:10162000EDE700BFE98FFFFFEA8FFFFF08B506492E
:1016300040231422054806F01AFEBDE8084004497C
:10164000044803F05BBE00BF1C040020FC03002024
:101650008487000074870000014910220A607047E7
:1016600010ED00E072B6404080F31188BFF36F8F39
:10167000BFF34F8F30BF62B6BFF36F8F704700BFAD
:1016800037B505460C46C9B18B6810480093D1E9BF
:101690000023452106F0A4FB636945210093D4E9AA
:1016A00003230B4806F09CFB4521E269094806F03C
:1016B00097FB4521A269084806F092FB214628467F
:1016C00003B0BDE8304001F0AFBD00BFE58D0000C4
:1016D000198E00004D8E0000618E000043B2002B79
:1016E00008DB012200F01F0002FA00F0024A5B0949
:1016F00042F82300704700BF00E100E0054B4209BB
:1017000053F82220012300F01F0003FA00F01040DC
:10171000704700BF00E100E038B54C1C072C0546BF
:1017200008D90D490D48592206F0BCFA59210A483A
:1017300006F043FB6BB2002BACBF03F16043084BD8
:101740004FEA4414E4B2ABBF03F5614305F00F0563
:1017500083F800435C5538BD948E0000518A000028
:1017600014ED00E030BFFFF7FDBF00BF0B4A08B526
:101770000B4B22F07F029A60BFF34F8FBFF36F8F46
:10178000D3F8882022F47002C3F8882001F0ECFD21
:1017900003F0DEF900F058FB01F0F0FD000000005E
:1017A00000ED00E0094A0A4993680968586799679B
:1017B00008494B6843F080534B60002383F3118842
:1017C000BFF36F8F9368986F704700BFAC0900201C
:1017D0005888000000ED00E013498A684FF030009F
:1017E0001044EFF3098C80E8F01F202080F312886A
:1017F000BFF36F8F0D4F4FF00066CA698A603E607D
:10180000506F0023536780F3118802F1300090E895
:10181000F01F8CF3098802F1000004B506F034FBD8
:10182000BDE8044070470000AC09002004ED00E072
:101830001EF0040F0CBFEFF30880EFF309808169FD
:1018400011F8021C0229FFD001B506F0DFFA01BD34
:1018500042F8203C009B0B4942F81C3C019B21F0C4
:10186000010142F8183C029B42F8081C42F8143C63
:101870004FF0807342F8043C0023203A026543672E
:10188000704700BFE57C0000084B9860436E83F30F
:101890000B88104681F30988002163B681F3118813
:1018A000BFF36F8F0022002306F01CFAAC09002062
:1018B00001B572B60B4A906900281EBF00219161E4
:1018C00006F0F9FC62B6EFF30580A0F110004FEAD4
:1018D000C0000549014409C99847BDE801400349D2
:1018E00008470000AC090020C8830000F118000080
:1018F000044B9968D869884203D003494FF080525D
:101900000A607047AC09002004ED00E070B52B4C74
:1019100006460D462A48452106F062FAA26AD0061C
:1019200003D54521274806F05BFAA36A190703D5BA
:101930004521254806F054FA204CA36A9A0710D591
:101940004521224806F04CFA626BA36A1B0608D5B3
:1019500045211F4806F044FA1EB1A36A23F0800314
:10196000A362164CA26AD60703D54521194806F092
:1019700037FAA36A980603D54521174806F030FACE
:101980000E4B9A6AD10602D49A6A92070DD59B6AC9
:10199000DB060AD51149124840F24F1206F082F9CF
:1019A00040F24F110D4806F008FA0020034A936AEE
:1019B00043F0FF039362287070BD00BF00ED00E0AC
:1019C000CA8E0000E58E00001D8F0000358F0000DC
:1019D000528F00006D8F0000918F0000C58F0000B6
:1019E000518A000070B5234C06460D462248452119
:1019F00006F0F6F9A26AD10403D545211F4806F086
:101A0000EFF9A36A1A0503D545211D4806F0E8F948
:101A1000184CA36A9B0510D51A48452106F0E0F939
:101A2000A26BA36A180408D54521174806F0D8F917
:101A30001EB1A36A23F40043A3620E4CA36A5905A6
:101A400003D54521114806F0CBF9A36ADA050BD579
:101A500045210F4806F0C4F90020064A936A43F472
:101A60007F439362287070BDA36A9B04F4D545211F
:101A70000848EFE700ED00E0FF8F00001A9000003B
:101A80001D8F0000309000004E9000006890000014
:101A900088900000918F000038B5214C45212148E5
:101AA00006F09EF9A26A950103D545211E4806F06D
:101AB00097F9A36ADC0103D545211C4806F090F98B
:101AC000174DAC6A14F4801404D04521184806F070
:101AD00087F90224AB6A180303D54521154806F09F
:101AE0007FF90F4DAA6A510303D54521124806F02C
:101AF00077F9AB6A9A0303D54521104806F070F9CF
:101B0000074DAB6ADB0303D545210D4806F068F9A4
:101B1000AB6A20466FEA03436FEA1343AB6238BDFA
:101B200000ED00E0A5900000C2900000DA900000F7
:101B3000F9900000289100004B9100007591000081
:101B40009491000010B51E4C1E48452106F048F93E
:101B5000A2696369580603D545211B4806F040F980
:101B60006369D90708D54521184806F039F9636932
:101B700043F0FF03636110BD63699A0702D54521F5
:101B80001348F2E763695B0702D545211148ECE78A
:101B90006369180702D545210F48E6E76369D9064E
:101BA00002D545210D48E0E763699A0602D5452133
:101BB0000B48DAE763691B06D9D545210948D4E704
:101BC000D0ED00E0C4910000E2910000F791000028
:101BD00012920000359200005592000077920000AA
:101BE00091920000B09200002DE9F0417A4B0D4631
:101BF0005C6800268AB0C4F3080786F31188BFF337
:101C00006F8F02F07F43B3F17F4F1ED112F00103BB
:101C10003AD012F0400302F0080840F0D680520794
:101C200054BF05461E462A686C4B58BF0126134414
:101C3000012B98BF2A6C4521694806F0D1F8B8F10C
:101C4000000F1ED0EFF389855DB940F2F23265498D
:101C5000654806F027F840F2F231624806F0ADF828
:101C600000250023FA1E98468DF807301346092BED
:101C700000F29980DFE803F00A888C6A90979797C2
:101C80009794EFF38885DFE71E46DEE74521574846
:101C900006F0A6F8504B8DF80780DC6A14F00204B9
:101CA00004D04521524806F09BF877E0DA6A002A12
:101CB0001DDA45214F4806F093F89DF807309BB98F
:101CC0002022294602A806F028F9099B002E77D089
:101CD000C3F3080222B96FEA53236FEA432309933F
:101CE000204602A9FFF7CCFC0AB0BDE8F081DB6A10
:101CF0005B0040D54521404806F072F8AB6933F8E7
:101D0000022C4DF602739A420CD003F1604303F6A5
:101D100026631B786BB101200DF10701FFF7F6FD7B
:101D20000446CAE745212A68344806F059F82C6869
:101D3000C3E7334B1B782BB101200DF10701FFF7EF
:101D400051FEEDE72F4B1B889BB213B1FFF7A4FEAA
:101D5000E6E72D4B5B6913B1FFF7F4FEADE72149D0
:101D600040F2C322204805F09DFF40F2C3211D48E8
:101D700006F023F8A1E71B4940F2C7221A4805F0F4
:101D800091FF40F2C721F2E700200DF10701C5E7FE
:101D900000200DF10701D2E7FFF7D4FE00248CE705
:101DA00045211A487FE71A4914F4F87F194A1A485E
:101DB00008BF0A46A7F11003452106F011F8EDE728
:101DC00023F4FF7323F0010389E7B8F1000F7FF4D8
:101DD0003BAF0546012637E700ED00E0A6ED050123
:101DE000F6920000C58F0000518A00001A9300008F
:101DF000369300005C9300006F9300009393000003
:101E000029ED00E02AED00E0D0ED00E0B493000001
:101E1000C8920000DD920000DD930000044B5A6977
:101E200042F010025A615A6942F480625A61704766
:101E300000ED00E0EFF30880EFF3098101B5724691
:101E4000FFF7D2FE01BD00BF002320210348C218C6
:101E50000133412B82F80013F9D1704700E100E013
:101E6000002080F31488BFF36F8F002080F30A886E
:101E700080F30B8806F056FA00200E490860BFF385
:101E80004F8F0D4880F3088800F03CF8202080F345
:101E900011880A484FF40061401880F30988EFF375
:101EA00014800221084380F31488BFF36F8FFFF77B
:101EB0005DFC000094ED00E090250020D02600207D
:101EC000BFF34F8F0549064BCA6802F4E062134323
:101ED000CB60BFF34F8F00BFFDE700BF00ED00E018
:101EE0000400FA0500231846054A1168C1F30721CA
:101EF0008B4200D17047936010610133F8E700BF57
:101F000090ED00E010B572B6002484F31388FFF75B
:101F1000E9FF0E4A234611464FF0FF3403F120003B
:101F20000133102B42F82040F8D100234FF0FF304E
:101F300003F160020133102B41F82200F8D162B6A0
:101F4000BFF34F8FBFF36F8F10BD00BF00E100E004
:101F5000064B9B68834207D1EFF3058323B1044A04
:101F6000536843F08053536002F05EBDAC0900201B
:101F700000ED00E082680D4B9A60036883F3888867
:101F8000436883F38988027B02F00101EFF39483B5
:101F900023F00303920748BF43F0020309B143F063
:101FA000010383F39488BFF36F8F704700ED02E065
:101FB000084AD36848B123F400531B041B0C43F0B8
:101FC000BF6343F40033D36070479BB243F40053C4
:101FD000F5E700BF00ED00E0084AD36840B19BB2CE
:101FE00043F4804343F0BF6343F40033D36070474E
:101FF00023F480431B041B0CF4E700BF00ED00E05A
:10200000084AD36840B19BB243F0080343F0BF6372
:1020100043F40033D360704723F008031B041B0C08
:10202000F4E700BF00ED00E0034AD2F88C3043F43F
:102030004063C2F88C30704700ED00E0084B1A682E
:1020400018B142F001021A60704722F001021A60D2
:102050001A6811B142F00202F5E722F00202F2E73B
:10206000D0ED00E01FB5094C094A2346012109487B
:1020700000F01AF900230393074B0121E41A01A889
:102080000193029400F02CF904B010BD00800020F0
:1020900000000020988700001801002010B50B6890
:1020A0000C7A23F01F0204F01F031A43CB68640963
:1020B00023F01F03044943EA440343F0010388600B
:1020C000CA600B6110BD00BF90ED00E030B54B68F9
:1020D0000C6885B00A898D7A0094013B24F01F04B6
:1020E000234402F01F0242EA451223F01F030F2887
:1020F00004468DF80820039309D902464521064875
:1021000005F06EFE6FF01504204605B030BD69463F
:10211000FFF7C4FFF8E700BFF99300002DE9F04F87
:102120008946144606464FF00008524D85B0C84512
:1021300023DA7768002F42D01F2F17D9FB0615D15D
:10214000D6F800A01AF01F0F10D1504605F0A0FEDF
:10215000834607EB0A00013805F09AFE834510D04C
:102160006FF0150B5A464521434802E0424645218F
:10217000424805F035FE6FF01504204605B0BDE875
:10218000F08F1BF1160FEDD0631E5B45EADBC5F83F
:1021900008B0E968C5F808B02F6921F01F01D6E939
:1021A00000321A44994247F01F0702F1FF3A1CD14E
:1021B000574508D131465FFA8BF0FFF787FF08F1EA
:1021C00001080C36B3E73146C5F808B0EB6822F0D9
:1021D0001F0203F01F031A43EA60E0B2FFF776FF25
:1021E00010F1160FC7D0441CE9E7013B5745E0B298
:1021F00023F01F03C5F808B006D12A69314602F062
:102200001F0213432B61E9E7296901F01F010B430A
:102210002B613146FFF75AFF10F1160FABD0C5F80E
:1022200008B0EA689DF80830013F62F304038DF8B6
:1022300008302B699DF808205B0863F347128DF87E
:102240000820D6E900321344009323F01F033B44D7
:10225000441CA3EB0A0AE0B22AF01F030F280393E1
:1022600003D902464521064883E76946FFF716FF72
:10227000B9E700BF90ED00E04C940000249400000A
:10228000F99300000522034B5A60BFF34F8FBFF351
:102290006F8F704790ED00E0BFF35F8F0022014B1E
:1022A0005A60704790ED00E010B50A4C2278FFF7B5
:1022B00035FF207016300CD10749084840F2111242
:1022C00005F0F0FCBDE8104040F21111024805F0A5
:1022D00074BD10BDCC13002074940000518A00001E
:1022E0002DE9F74F2D4D8A4606464FF00008AB46C4
:1022F0002B4FD04502DB03B0BDE8F08FD6F8049039
:10230000B9F1000F44D031680846019105F0C0FDD5
:102310000199044609EB0100013805F0B9FD84423A
:102320004FF014021F4B13D06FF0150302FB08F897
:102330004BF8083040F221121B491C4805F0B2FC52
:1023400040F22111184803B0BDE8F04F05F035BD4B
:1023500014F1160F2C60EDD01978A142EADD02FBD2
:1023600008B0BC60BC60FC6800F10801007B64F34D
:102370000400087138690C79400860F347140C7147
:10238000F96821F01F016960396921F01F01296195
:1023900008F1010814350C36ABE700BF1C0900201A
:1023A00090ED00E0CC13002074940000518A0000EE
:1023B00070B51B4D2E68102E0DD94FF4A47219491B
:1023C000194805F06FFC17484FF4A47105F0F5FCAF
:1023D0004FF0FF3070BDFFF75FFF0020134C144A31
:1023E0002263864215D1134B1E70FFF74BFF236803
:1023F000C3F30723102B0AD00A490B484FF4D672B7
:1024000005F050FC4FF4D671064805F0D6FC0020CC
:10241000E0E7696801EB0011FFF740FE0130E0E7FB
:10242000A487000074940000518A000090ED00E041
:10243000AAFF4400CC130020014B1860704700BF76
:10244000240000202DE9F0410E4C0746051BC5F382
:1024500047130C255D4305F148000E4620444021FA
:1024600005F072FD011E08DB074B2C44C4E9103651
:10247000064B5B59BDE8F041184738463346BDE886
:10248000F041184730090020AB7F0000E4870000CE
:1024900038B5CCB2012C054608D90849084879223C
:1024A00005F000FC7921054805F087FC0C212B691B
:1024B00004FB0134A06C00F0070038BDBA940000A2
:1024C000518A0000F8B5CCB2012C054616460769C2
:1024D0000AD91849184840F24D1205F0E3FB40F2C2
:1024E0004D11144805F069FC4FF02003EFF3118201
:1024F00083F31288BFF36F8F0C2303FB0471896C85
:1025000011F0C00101D08E4211D10121002003FB46
:102510000473996482F31188BFF36F8F30B90C2371
:10252000696803FB0414636898470020F8BD4FF006
:10253000FF30EFE7BA940000518A000070B50D46F5
:1025400006490446411A491140220548FFF7BAFFDF
:102550002B4601462046BDE8704018473009002050
:102560008083000070B50022012104460520FFF79A
:10257000D3F80520FFF7B2F80F4800F00DFD0F4B20
:10258000984215D100F028FD26690D49304605F026
:1025900096FB00280BDB0125B5642469084904F18A
:1025A000200005F08CFB002801DB0020656570BD74
:1025B0006FF00400FBE700BFF92500000000AD0B41
:1025C000FC87000001460C2300224B43084870B5ED
:1025D000C4184833D4E910561844226405F0D2FCDC
:1025E0002DB132462B46BDE870400248184770BDF9
:1025F0003009002080830000012808B506D0032898
:1026000008D0A0B90F4B9B6C5B0719D1BDE80840FF
:10261000FFF7D8BF0C4940F25E220C4805F042FBA0
:1026200040F25E21BDE80840074805F0C6BB0649F8
:1026300040F26222054805F035FB40F26221F1E7E5
:1026400008BD00BF30090020BA940000518A000084
:1026500008B54FF02003EFF3118183F31288BFF325
:102660006F8F124A136843F0020013F001031060E9
:102670000CD04FF05022D2F80C34D2F80C2413F0C6
:10268000010303D00A4805F07DFC012381F3118882
:10269000BFF36F8F23B1BDE808400020FFF792BF62
:1026A0000120BDE8084000F0B5BC00BF880900204B
:1026B00078090020074BD3E8EF2F22F00201C3E88E
:1026C000E01F0028F7D1D30702D4012000F0F2BCAC
:1026D000704700BF880900201FB500220123CDE903
:1026E00002236B46084ACDF800D0CDF804D005F09F
:1026F0006EFC002805DB4FF480420023684601F0A1
:1027000063FA05B05DF804FBC97F000008B508480E
:10271000084B186005F0A1FD38B10748FFF78CFEA3
:102720000548FDF727FF002008BD6FF01200FBE70A
:10273000B08300008C0900203D2700000A2838B52E
:102740000446074D04D1286883680D215B689847CB
:1027500028688368E1B25B689847204638BD00BFAF
:102760008C090020F0B54B79012B26D0032B21D109
:1027700010268B79032B1DD1CC790CB1012C19D1EA
:102780000A7912B1022A15D10E220B684568B3F5F9
:10279000164F2D6865D02DD8B3F5165F64D016D8C6
:1027A000B3F5966F62D00AD8B3F5967F61D0B3F5D2
:1027B000167F61D06FF0850052E00026D9E7B3F5AF
:1027C000166F5CD0B3F5965FF4D1374B3CE0B3F5B0
:1027D000E14F57D007D8B3F5615F55D0B3F5964FA9
:1027E000E8D1324B30E047F61227BB42E2D14FF43A
:1027F000000329E0B3F5613F48D013D8B3F5963F05
:1028000047D009D84DF6C027BB4244D0B3F5614F3D
:10281000D0D14FF46B0317E0B3F5E13FCAD14FF0CD
:10282000EB7311E0B3F5612F38D008D8204FBB42CD
:1028300037D0B3F5E12FBDD14FF0E86304E01D4F71
:10284000BB42B7D14FF08053C5F8243503693443F8
:102850002243043303C9C5F86C2583E80300002034
:10286000F0BD4FF41D03EFE7134BEDE74FF49E234C
:10287000EAE74FF4A033E7E74FF41C33E4E74FF403
:102880001D23E1E70D4BDFE70D4BDDE74FF06C73E8
:10289000DAE70C4BD8E74FF46503D5E74FF07063E8
:1028A000D2E74FF08063CFE700B0130000A04E00E6
:1028B00090D0030040420F000050270000C0750078
:1028C00000F03A0000903A01036810B55A090CBFB5
:1028D0004FF0FF32002203F01F0322FA03F3DB075D
:1028E00004460AD40E490F4840F2292205F0DAF9CD
:1028F00040F229210A4805F060FA236803F01F021C
:102900005B0922600AD00649064840F22E2205F0F3
:10291000C9F940F22E21024805F04FFA024810BDD5
:1029200011950000518A000000258450F8B5054635
:102930000F46066905F0B7FC10B92C4B1B7883B91C
:102940004FF02003EFF3118483F31288BFF36F8FEE
:10295000284605F09FFB28BB84F31188BFF36F8FD7
:10296000EEE76424284605F095FB70B9012005F0D8
:1029700071FC013CF6D10021212002F01FF8F0E7A4
:1029800084F31188BFF36F8FF5E74FF02003EFF367
:10299000118483F31288BFF36F8F284605F07AFB0A
:1029A0000028EDD0012206F8107F69680B68C3F893
:1029B0004465C3F848250022C3F82021D3F820013C
:1029C000C3F85821D3F858214A68D20641BF0822DB
:1029D000C3F800254FF48002C3F8042301229A6053
:1029E00084F31188BFF36F8FF8BD00BFCD130020B3
:1029F000F7B50F46164640B918491948242205F084
:102A000051F92421154805F0D8F947B9134914485C
:102A1000252205F047F92521104805F0CEF94FF49D
:102A2000806500246FF01500A64201D803B0F0BD08
:102A3000331BB3F5806F38BF1D46002001AB2A461B
:102A4000391902F0E3FB019BAB4203D10028EDD121
:102A50002C44E9E76FF01500E8E700BF5B95000044
:102A6000518A00000B4B10B59A681968986811F4E8
:102A7000803F094B094901D1824205D21A680C688E
:102A800022441A60034A12681B680A681344181A21
:102A900010BD00BF10E000E0A00900209809002050
:102AA00020220020074B83F82320074B1860074B98
:102AB0001860074B586098601A6842F007021A6065
:102AC000704700BF00ED00E098090020A009002039
:102AD00010E000E008B5FFF7C5FF094A094913688F
:102AE000086803440B6000211160074A10681360F6
:102AF000181A02F001FABDE80840FEF7F9BE00BF5F
:102B0000A009002094090020900900202DE9F0413F
:102B1000394F59B1431C09D1384A136823F00103D6
:102B200013604FF07F433B60BDE8F081344B3D685C
:102B3000B0F1FF3F08BF1846441E002C54DD9C42F4
:102B4000A8BF1C464FF02003EFF3118683F31288D1
:102B5000BFF36F8F2B4800F041FE40B92A492B4844
:102B6000812205F09FF88121274805F026F92548A4
:102B700000F050FEFFF776FF4FF0000EDFF87C808C
:102B8000DFF890C0224AD8F80810CCF800E0DFF84F
:102B900088C01368DCF800C01844A0EB0C0CF445A6
:102BA0004346106022DA4FF480643C603F689C68C2
:102BB000013F5F600027A14238BF4919091B084443
:102BC0009F6010600F4800F017FE40B90E490F4893
:102BD000AC2205F067F8AC210B4805F0EEF886F35F
:102BE0001188BFF36F8F9FE70024ABE7B4F5806FC8
:102BF000B8BF4FF48064D8E79809002010E000E0E7
:102C0000FEFFFF009C0900202B8A0000518A000073
:102C100094090020A00900209009002038B54FF049
:102C20002003EFF3118583F31288BFF36F8F1548EC
:102C300000F0D4FD40B914491448812205F032F85F
:102C40008121114805F0B9F80E4800F0E3FDFFF7C7
:102C500009FF0F4B1C680F4B1B68E41A044409481A
:102C600000F0CAFD40B908490848AC2205F01AF83E
:102C7000AC21054805F0A1F885F31188BFF36F8FEB
:102C8000204638BD9C0900202B8A0000518A000094
:102C90009409002090090020054B1B68B3F17F4F79
:102CA00001BF044A136843F001031360704700BF7B
:102CB0009809002010E000E0024A136823F00103A5
:102CC0001360704710E000E00348452108B505F0A7
:102CD00087F80020FFF7F4F8969500002DE9F043FF
:102CE0000025214C214E54F8048CDFF8889085B0E3
:102CF000A84503D8002005B0BDE8F083636A96E8D4
:102D000007001F6801AB83E807000C22194638460C
:102D100005F0DCF890B98FB1636A21691B681A6904
:102D200091420BD19A69A169914207D8E169914218
:102D300004D962695B6932EA03030AD0276A67B182
:102D40000B4804F0AFFF404080F311884FF00400BF
:102D500002DFE36801351C44CAE7484604F0A2FFDD
:102D6000636A1F60F5E700BF3C0200002C8600008C
:102D7000B8950000E1950000064A074B1B681068F3
:102D8000BFF34F8F092B03D1431E58425841704760
:102D9000002070473401FF003001FF00574A08B59A
:102DA000136843F002031360554B564A1B681268C0
:102DB000BFF34F8F092B01BF4FF050230022C3F800
:102DC0001421C3F81821FFF7D7FF30B101234E4A71
:102DD0001360A2F63822C2F87835494B1A680433DA
:102DE0001B68BFF34F8F092A05D1012B1EBF01229B
:102DF000464BC3F87825FFF7BFFF10B10E22444BB6
:102E00001A603F4B3F4A1B681268BFF34F8F092B74
:102E100004D100223F4B1A6001225A600022D300E5
:102E200003F57F03D3F80013BFF34F8F013108D0B0
:102E3000D3F800130132D3F80433B2F5807F0B606E
:102E4000EDD1354BDB69BFF34F8FD90745D5334BF8
:102E50001946D3F80024012AFBD1C3F80425D1F880
:102E60000034012BFBD12C4BDA69BFF34F8FD20713
:102E70000AD5DA6922F00102DA61BFF34F8F274ADF
:102E8000D2F80034012BFBD1254B1B68BFF34F8FC9
:102E900001330DD1204A136A23F0FF0343F02003CE
:102EA0001362BFF34F8F1D4AD2F80034012BFBD1C0
:102EB00000221A4BC3F80425D3F80024012AFBD1C1
:102EC000BFF34F8F1749184BCA6802F4E0621343EF
:102ED000CB60BFF34F8F00BFFDE7114B1B68BFF303
:102EE0004F8F0133B3D00F4AD2F88C3043F4406394
:102EF000C2F88C300D4B0E4A1A6008BDD0ED00E0D0
:102F00003001FF003401FF00384A005000400050FB
:102F1000E4AE03500C4700500080FF0000900350C7
:102F20002080FF0000ED00E00400FA053C000020D6
:102F30000090D00308B570B101281BD04FF44F7238
:102F40001349144804F0AEFE11484FF44F7104F0D9
:102F500034FF00200DE031B14FF05023D3F8183486
:102F600003F003030B704FF05023D3F81804C0F3A1
:102F7000004008BD31B14FF05023D3F80C3403F0BA
:102F800001030B704FF05023D3F80C04EFE700BFA0
:102F900014960000518A000010B5044640B9094952
:102FA0000948BD2204F07EFEBD21064804F005FF5D
:102FB000064B1A7922B9012205481C601A7110BD0E
:102FC0000448FCE748960000518A0000A40900204C
:102FD0000000AD0B0C00AD0B08B50B4B1B7943B9D2
:102FE0000A490B48D62204F05DFED621074804F0BA
:102FF000E4FE0520FEF782FB20B9BDE8084005206D
:10300000FEF76CBB08BD00BFA40900204896000075
:10301000518A0000224B13B51B79044653B921494C
:1030200021484FF4897204F03DFE4FF489711D4828
:1030300004F0C3FE6CB1012C28D04FF4A2721949E0
:10304000194804F02FFE4FF4A271164804F0B5FEA3
:1030500018E020460DF10701FFF76CFF4FF05023F9
:1030600090B19DF80720022A0ED1C3F8182500223E
:103070000E4B1A601B6802224FF05023C3F8042342
:1030800001229A6002B010BD0122EEE70022084B37
:103090001A601B684FF05023C3F804431C60F1E72B
:1030A000A409002048960000518A000004510050F5
:1030B000005100502D4B13B51B79044653B92C49D0
:1030C0002C4840F24B1204F0EDFD40F24B11284821
:1030D00004F073FE74B1012C27D02549254840F235
:1030E000671204F0DFFD40F26711214804F065FE2D
:1030F00002B010BD4FF050230222C3F80823012272
:10310000C3F8044142F2107403F582731B681A4B32
:103110001A6000210846FFF70DFF0028E8D00120C3
:1031200005F098F8013CF4D1E2E74FF0502300227B
:10313000C3F80843C3F8002103F580731B680F4BE5
:103140001C608DF8074042F2107401200DF1070158
:10315000FFF7F0FE0028CBD09DF807000128C7D16B
:1031600005F078F8013CF0D1C2E700BFA4090020C7
:1031700048960000518A00000C5000500450005046
:10318000164B07B51A6852B1002018601B6801225F
:103190004FF05023C3F80823114B1B689847114B7D
:1031A0001A688AB100200DF1070118601B68FFF74B
:1031B000C1FE9DF807104FF0502301294FF0020285
:1031C00005D1C3F81825996003B05DF804FBC3F876
:1031D0000823034B01201B689847F5E70051005076
:1031E000A4090020045100500E4B70B553F8204044
:1031F000013053F82060A64200D870BDD4E90035F4
:103200002846984765B1EB6830B10028B8BF404206
:10321000FF28A8BFFF2018705A7842F001025A70A8
:103220000834E8E744880000F7B504460E464FF03E
:103230002003EFF3118783F31288BFF36F8F01F040
:10324000EDFB0022042C98BF1D4B054694BF53F89C
:1032500024301C4B0092452122461B4804F0C0FD3F
:103260003EB1F369C3F308031BB14521174804F0CD
:10327000B7FD35B1284605F01CF8034608B10278C1
:1032800002B9134B2A464521124804F0A9FD3146E4
:103290002046FFF719FD042C08D10F490F488F2253
:1032A00004F000FD8F210C4804F087FD87F311889E
:1032B000BFF36F8F284603B0BDE8F040FEF748BE6D
:1032C0005C880000859600009B960000C896000070
:1032D00093960000EE9600000B970000518A0000C4
:1032E0000023012210B586B0CDE904230F220193FB
:1032F000CDE9023218230B4A0B4C03FB00234FF499
:10330000A0720A4904EBC01402FB0011009320468E
:10331000074B00F08FF9637B23F00403637306B05F
:1033200010BD00BFAC09002018010020902500202E
:1033300025380000012208B5094B02201A70FFF75A
:1033400053FF01F0CBFE0320FFF74EFF00F0C6F95C
:1033500004F09FFC034A137B23F00103137308BDA1
:10336000CD130020980100200248034A0021121AC0
:1033700004F0DEBD180100208C15002080B5354B0F
:10338000A6B003F5006787F3088883F30A88002452
:10339000E023314D314E85F82230EC772C766C7677
:1033A000AC7685F82040EC766B6ADFF8C49043F485
:1033B000E0236B626B6A43F400236B62AC63EB68DF
:1033C0009BB243F0BF6343F40833EB60FEF726FD86
:1033D000FEF742F94FF0FF33AB62EB62FEF7E8FF16
:1033E000FEF740FE40F20113ADF8243006ABB360A7
:1033F000CDE91F4404F030FF2046FFF7F5FE012021
:10340000FFF7F2FE01F0BAF9154B164D05930123B3
:1034100015494FF48052CDE9034328464B46CDE988
:1034200001440094F56100F005F980466A7B284666
:1034300022F004026A7300F099FE2046FFF750FF65
:103440000A4B4A4641462846F36034757760FEF7DA
:103450001BFA00BFD026002000ED00E0AC090020E0
:103460007797000098010020901500201801002097
:10347000353300002DE9F041144D154CA846154E8A
:10348000AC4208D9314614483C2204F00BFC3C21E4
:10349000304604F092FC444502D30020BDE8F081A0
:1034A000D4E9041242EA010313F003030BD1E068EC
:1034B000A361834201D12034E2E7A7690133176099
:1034C000A2610A44F5E76FF01500E7E7C4000020A9
:1034D000C40000207F970000518A00002DE9F743C7
:1034E00004460D469046994600F108064FF0200329
:1034F000EFF3118783F31288BFF36F8F304600F02C
:103500006DF940B91F492048812204F0CBFB81218D
:103510001C4804F052FC304600F07CF9A369C3B1AA
:103520002B601B68A361E3690133E361002430462B
:1035300000F062F940B913491348AC2204F0B2FB21
:10354000AC21104804F039FC87F31188BFF36F8F6A
:1035500013E058EA090203D16FF00B042B60E6E791
:10356000224639463046CDE9008900F067FF04461F
:1035700018B9064B9B685B692B60204603B0BDE819
:10358000F08300BF2B8A0000518A0000AC090020A4
:103590002DE9F04104460D4600F108064FF02003E6
:1035A000EFF3118783F31288BFF36F8F304600F07B
:1035B00015F940B91D491E48812204F073FB812191
:1035C0001A4804F0FAFB304600F024F9D4F81880C9
:1035D000B8F1000F0FD1204601F092F858B12A68D7
:1035E000C0F87880426100F0C1FD39463046BDE840
:1035F000F04100F0BDBB2B68A26930461A602B6811
:10360000A361E369013BE36100F0F6F840B90749C3
:103610000748AC2204F046FBAC21044804F0CDFB83
:1036200087F31188BFF36F8FBDE8F0812B8A00000C
:10363000518A00002DE9F04385B0DDF83C90044646
:10364000B9F10F0F0F46154698462ED11F4B9845DE
:103650002FD104F15803C4E91633109B00262373BD
:10366000042363730E9BE81D02930D9B20F007005B
:1036700001930C9B3D18C4E9197000932A464346F8
:1036800039462046C4E90666A66084F80E90E673C3
:10369000E666FEF7DDF80E4B66659B6803B11B6FAF
:1036A0002846236705B0BDE8F08309F110031E2BFF
:1036B000CFD940F2FF120749074804F0F3FA40F26D
:1036C000FF11044804F079FBC3E700BF2538000070
:1036D000AC090020A4970000518A00002DE9F047B2
:1036E000394F3A4D3E46DFF8EC8086B0BD420AD9EC
:1036F0004146374840F2CF2204F0D4FA40F2CF21BD
:10370000404604F05AFBB54205F130041DD300F0E9
:1037100065FB40F2E7384FF000092C4C2D4DDFF8E7
:10372000B0A0B4420AD92946504640F2EE2204F035
:10373000B9FA40F2EE21284604F03FFBB44221D30F
:1037400006B0BDE8F04700F07FBF54F8043C059395
:1037500054F8103C049354F8143C039354F8183C68
:10376000029354F81C3C019354F8203C009354E914
:103770000A2354E90C01FFF75DFF54F8303C5D6506
:103780002546B3E7636A5A1C0FD04FF40042404607
:10379000494623EAE373C2FB0301494508BF40459C
:1037A000276804D1384600F017FD3034B9E74FF4EC
:1037B0007A720023FCF742FD02460B4607F118001F
:1037C000054901F02FFAF0E7C4000020C4000020F2
:1037D000518A0000A49700005D420000006838B1E3
:1037E000044B00F003001B7DC01A18BF0120704776
:1037F00001207047AC090020054903468A68087D0E
:10380000196802430020914204BF186001207047EC
:10381000AC090020024A117D93680B430360704796
:10382000AC090020104C08B5A26892F90E20002ABD
:1038300008DA0E490E48272204F034FA27210B48F3
:1038400004F0BBFA4FF02002EFF3118382F31288E9
:10385000BFF36F8F01F0DCFAA061FDF755FB002884
:10386000F0D1FDF7FFFEEDE7AC090020C79700009F
:10387000518A00002DE9F341044616461F46EFF336
:10388000058343B162496348652204F00BFA652160
:103890005F4804F092FA4FF02003EFF3118883F3AE
:1038A0001288BFF36F8F5C48FFF798FF40B95B4900
:1038B0005848812204F0F6F98121584804F07DFA35
:1038C0005548FFF7A7FFE368554AD3B1A068916850
:1038D000884233D056EA070332D14F48FFF78CFFB6
:1038E00040B94E494B48AC2204F0DCF9AC214B48BE
:1038F00004F063FA88F31188BFF36F8F6FF00F0045
:1039000019E0916891F90E100133E3609368424821
:103910002161A360FFF770FF40B940493D48AC22E8
:1039200004F0C0F9AC213D4804F047FA88F311884F
:10393000BFF36F8F002002B0BDE8F0812169E3E79B
:1039400091F90E1090F90E306FF07E029942A8BFE7
:1039500019469142B8BF11468B423FDD00F094FDFD
:10396000054622464146CDE900672B4800F066FD3A
:103970000028E0D04FF02003EFF3118683F3128884
:10398000BFF36F8F2448FFF729FF40B9234921482F
:10399000812204F087F98121204804F00EFA1E48A4
:1039A000FFF738FF236821699C420AD04BB193F995
:1039B0000E309942A8BF19466FF07E039942B8BFF6
:1039C0001946A06890F90E30994209D16DB131467F
:1039D000114800F0CDF96FF00A00ACE70025C0E710
:1039E00000F052FD0028F2D1F0E70B48FFF704FF8A
:1039F00040B90A490748AC2204F054F9AC21074801
:103A000004F0DBF986F31188BFF36F8FE3E700BFA3
:103A1000E8970000518A0000D40900202B8A00009A
:103A2000AC09002038B50446EFF3058343B145499E
:103A30004548C72204F036F9C721424804F0BDF9D1
:103A4000A368002B78D0414DAA68934277D1E368F0
:103A500043B93C493C48DF2204F024F9DF213948CE
:103A600004F0ABF9EFF3058343B139493648FD2241
:103A700004F018F9FD21364804F09FF9AB68DB7BB0
:103A8000012B08D132493048FE2204F00BF9FE2107
:103A90002F4804F092F9AA68D37B013BD373E36803
:103AA000012B05D9013BE36000F0CEFD002038BDBD
:103AB0004FF02003EFF3118583F31288BFF36F8F6C
:103AC0002448FFF78BFE40B923491F48812204F0A8
:103AD000E9F88121204804F070F91E48FFF79AFEAA
:103AE000A068216990F90E30994201D000F0CCFC19
:103AF000204600F005FEA06058B190F90E2022612A
:103B00000022826700F032FB2946124800F030F9AB
:103B1000CAE7E0600F48FFF76FFE40B90E490A4858
:103B2000AC2204F0BFF8AC210B4804F046F985F351
:103B30001188BFF36F8FB7E76FF01500B7E74FF04D
:103B4000FF30B4E7E8970000518A0000AC0900207C
:103B50000A980000D40900202B8A000038B50446DA
:103B60004FF02003EFF3118583F31288BFF36F8FBB
:103B70001248FFF733FE40B911491248812204F080
:103B800091F881210E4804F018F90C48FFF742FE25
:103B9000204600F0B5FD48B10022826700F0E6FA49
:103BA0002946BDE83840054800F0E2B8D4E90232C1
:103BB0009A4218BF0133A360F2E700BFD809002082
:103BC0002B8A0000518A0000F7B5044616461F46AE
:103BD000EFF305835BB156EA070308D02B492C4865
:103BE000792204F05FF87921284804F0E6F84FF0D4
:103BF0002003EFF3118583F31288BFF36F8F2548FD
:103C0000FFF7ECFD40B924492148812204F04AF82D
:103C10008121214804F0D1F81E48FFF7FBFDA3687D
:103C2000ABB1013B1B48A360FFF7E6FD40B91A4961
:103C30001748AC2204F036F8AC21174804F0BDF860
:103C400085F31188BFF36F8F002003B0F0BD56EAF3
:103C5000070313D10F48FFF7CFFD40B90E490C48B9
:103C6000AC2204F01FF8AC210B4804F0A6F885F351
:103C70001188BFF36F8F6FF00F00E6E722462946E9
:103C8000CDE90067034800F0D9FBDEE73598000076
:103C9000518A0000D80900202B8A000010B5084C7A
:103CA00023685BB1FEF7BAFF03462068054A034468
:103CB0000021BDE81040136101F0E0B810BD00BF65
:103CC000E8090020AC090020F8B504460D464FF085
:103CD0002003EFF3118683F31288BFF36F8F1E4822
:103CE000FFF77CFD40B91D491D48812203F0DAFF32
:103CF00081211A4804F061F81748FFF78BFD4FF453
:103D00000047002240F2E7300021164BE7FB040198
:103D10001A6100234FF47A72FCF790FA002C124BD0
:103D200016DC1860114B1D60FFF7B8FF0A48FFF75B
:103D300063FD40B909490A48AC2203F0B3FFAC2146
:103D4000064804F03AF886F31188BFF36F8FF8BD88
:103D50000228B8BF0220E4E7E00900202B8A000017
:103D6000518A0000AC090020E8090020E409002085
:103D700010B503460C46C1B9EFF30582AAB9144A3F
:103D8000D1699268914210D0FFF736FD40B91149D0
:103D90001148C32203F086FFC3210E4804F00DF83A
:103DA000BDE810400020FDF7FDBC1846FFF724FDDC
:103DB00040B908490848AC2203F074FFAC2105481B
:103DC00003F0FBFF84F31188BFF36F8F10BD00BFBA
:103DD000AC0900202B8A0000518A000038B54FF052
:103DE0002003EFF3118583F31288BFF36F8F204810
:103DF000FFF7F4FC40B91F491F48812203F052FF2E
:103E000081211C4803F0D9FF1948FFF703FDEFF3A8
:103E1000058343B119491848FD2203F043FFFD21F2
:103E2000164803F0CAFF164CA268D27B012A08D1BB
:103E300012491148FE2203F035FFFE210F4803F01E
:103E4000BCFFA268D37B013BD3730948FFF7D4FCC6
:103E500040B908490848AC2203F024FFAC210548CA
:103E600003F0ABFF85F31188BFF36F8F38BD00BF40
:103E7000E00900202B8A0000518A00000A98000007
:103E8000AC0900200B4B10B599420C460AD10A49E7
:103E90000A4840F2E73203F005FF40F2E7310648F6
:103EA00003F08BFFD4E9003213605A600023C4E9A9
:103EB000003310BD1801002055980000518A000001
:103EC000836810B5044653B90A490B4840F283226F
:103ED00003F0E8FE40F28321064803F06EFF21461E
:103EE000A068FFF7CFFF637B23F002036373002317
:103EF000A36010BD55980000518A000038B50246F5
:103F0000124804F0FCF9124D044600B9EC68AAB955
:103F1000AB6843B90F491048892203F0C3FE8921D9
:103F20000C4803F04AFFAB685A7BD20606D1A2695F
:103F300022B9DA897F2A01D9EB6138BDAB68A34287
:103F400001D0FFF7ABFEEC61F7E700BFCC09002022
:103F5000AC09002055980000518A000070B590F916
:103F60000D200446002A437B06DA03F07F03014656
:103F700043731F48FFF786FF637B63F07F03637320
:103F80001C4B9C4208D11C491C48BA2203F08AFEF3
:103F9000BA21194803F011FF194A114651F8203F80
:103FA000556A8B4208BF0023002B38BF0023CBB1DA
:103FB00094F90E6093F90E0086420FD0801B002802
:103FC0000CDD5968C4E900310C605C609068031B2B
:103FD00058425841BDE87040FFF790BFAB4201D056
:103FE0001B68E4E7C4E900152C605462EEE700BFEB
:103FF000CC0900201801002055980000518A0000CB
:10400000AC09002070B504464FF02003EFF3118592
:1040100083F31288BFF36F8F2548FFF7DFFB40B9AA
:1040200024492548812203F03DFE8121214803F0E7
:10403000C4FE1F48FFF7EEFB204B214A9868116829
:104040008842194613D1FFF729FE1948FFF7D4FB20
:1040500040B918491848AC2203F024FEAC21154899
:1040600003F0ABFE85F31188BFF36F8F70BD0026A0
:104070001660144A1268BAB1C2897F2A14D8427BEA
:10408000D20611D1104A90F90E60126896420BDBED
:104090000E4A904208D01A69A24202DCFFF75EFF86
:1040A000D1E7121B1A61D0E700230B61CDE700BFF7
:1040B000E00900202B8A0000518A0000AC09002092
:1040C000DC090020E8090020E40900201801002094
:1040D00070B590F90D200446002A437B3DDBDA06DB
:1040E0003BD18569002D38D163F07F0343731B4BAF
:1040F000984208D11A491B48BA2203F0D3FDBA21CD
:10410000174803F05AFE18490B4653F8200F9842FF
:1041100018BF0546002D1A462B4638BF00234D6AAE
:10412000B3B194F90E6093F90E0086420CD0801B57
:10413000002809DD5A68C4E9003214605C60002080
:10414000BDE87040FFF7DABEAB4201D01B68E7E77D
:10415000C4E900252C604C62F1E770BD1801002015
:1041600055980000518A0000AC09002038B504467B
:104170004FF02003EFF3118583F31288BFF36F8FA5
:104180001248FFF72BFB40B911491248812203F076
:1041900089FD81210E4803F010FE0C48FFF73AFB21
:1041A0002046FFF795FF0948FFF726FB40B908496D
:1041B0000848AC2203F076FDAC21054803F0FDFD74
:1041C00085F31188BFF36F8F38BD00BFE009002071
:1041D0002B8A0000518A000038B504464FF02003B6
:1041E000EFF3118583F31288BFF36F8F1848FFF741
:1041F000F5FA40B917491848812203F053FD81218F
:10420000144803F0DAFD1248FFF704FB637B5A07FA
:1042100011D40F48FFF7F0FA40B90E490E48AC220E
:1042200003F040FDAC210B4803F0C7FD85F3118876
:10423000BFF36F8F38BD23F0040320466373FFF78D
:1042400047FF2946BDE838400148FFF791BD00BF50
:10425000E00900202B8A0000518A000070B5044656
:104260004FF02003EFF3118683F31288BFF36F8FB3
:104270001B48FFF7B3FA40B91A491B48812203F0E3
:1042800011FD8121174803F098FD1548FFF7C2FA88
:1042900014F80B3C13F0280F10D154F8103CA4F183
:1042A000180513B12846FFF70BFE14F80B3C2846FF
:1042B00023F0140304F80B3CFFF70AFF0848FFF74C
:1042C0009BFA40B907490848AC2203F0EBFCAC214B
:1042D000044803F072FD86F31188BFF36F8F70BD41
:1042E000E00900202B8A0000518A000010B590F9E7
:1042F0000D200446002A437B06DA03F07F030146C3
:1043000043730648FFF7BEFD054B9868031B5842F0
:104310005841BDE81040FFF7F1BD00BFCC090020B7
:10432000AC09002038B504460D46FFF7DFFF637B7C
:1043300043F00203637315B3174BA5609C4208D189
:1043400016491748BA2203F0ADFCBA21134803F00E
:1043500034FD2B689D4208BF0023002B38BF00238B
:104360009BB194F90E1093F90E20914208D0521A85
:10437000002A05DD5A68C4E9003214605C6038BD6B
:104380006A68934201D01B68EAE76B68C4E900538E
:104390001C606C60F3E700BF180100205598000016
:1043A000518A00002DE9F04104460D4616461F468D
:1043B0004FF02003EFF3118883F31288BFF36F8F60
:1043C0001A48FFF70BFA40B919491A48812203F03D
:1043D00069FC8121164803F0F0FC1448FFF71AFA33
:1043E00020462946FFF79EFF1048FFF705FA40B91F
:1043F0000F491048AC2203F055FCAC210C4803F0E7
:10440000DCFC88F31188BFF36F8F7B1C08BFB6F10B
:10441000FF3F08D032463B4604F118000649BDE88C
:10442000F04100F0FFBBBDE8F08100BFE0090020D3
:104430002B8A0000518A00005D42000038B5054615
:104440000D4B0C4698680D4B11461860DDE90423AE
:10445000FFF7A8FF2846FFF7CFF940B908490948F8
:10446000C32203F01FFCC321054803F0A6FC20462D
:10447000BDE83840FDF796B9AC090020DC09002002
:104480002B8A0000518A0000F8B504460E464FF012
:104490002003EFF3118783F31288BFF36F8F374840
:1044A000FFF79CF940B936493648812203F0FAFB00
:1044B0008121334803F081FC3048FFF7ABF9637B7F
:1044C00076B2DA0656D1A569002D53D103F07F03E9
:1044D000637321462C48FFF7D5FC637BA67363F01A
:1044E0007F036373294B9C4208D129492548BA228E
:1044F00003F0D8FBBA21264803F05FFC25490B46A0
:1045000053F8200F984218BF0546002D1A462B4637
:1045100038BF00234D6A43B394F90E6093F90E003F
:1045200086421ED0801B00281BDD5A68C4E9003279
:1045300014605C600120FFF7E1FC01240F48FFF7E5
:104540005BF940B90E490F48AC2203F0ABFBAC213C
:104550000B4803F032FC87F31188BFF36F8F2046BE
:10456000F8BDAB4201D01B68D5E7C4E900252C603B
:104570004C62DFE7A6730024E0E700BFE0090020FB
:104580002B8A0000518A0000CC090020180100206D
:1045900055980000AC09002070B50446183000F0B2
:1045A000FBFB4FF02003EFF3118683F31288BFF378
:1045B0006F8F2048FFF712F940B91F491F48812229
:1045C00003F070FB81211C4803F0F7FB1948FFF74B
:1045D00021F994F90D20637B002A06DA03F07F03AA
:1045E000214617486373FFF74DFC164D637BA8689F
:1045F00043F010036373031B58425841FFF77EFCDE
:104600000C48FFF7F9F840B90B490C48AC2203F00D
:1046100049FBAC21084803F0D0FB86F31188BFF3B7
:104620006F8FAB68A34203D1BDE8704003F05DBE5D
:1046300070BD00BFE00900202B8A0000518A0000F5
:10464000CC090020AC09002038B54FF02003EFF36F
:10465000118583F31288BFF36F8F2448FFF7BEF8EC
:1046600040B923492348812203F01CFB81212048C3
:1046700003F0A3FB204C1D48FFF7CCF8A268D27BC7
:1046800052B91E491B4840F2853203F00BFB40F241
:1046900085311A4803F091FBEFF3058353B11749B5
:1046A000144840F2863203F0FDFA40F28631134896
:1046B00003F083FBA2680020D37B0133D373FFF7A1
:1046C0001DFC0A48FFF798F840B909490948AC228F
:1046D00003F0E8FAAC21064803F06FFB85F311887C
:1046E000BFF36F8FBDE8384003F0FFBDE009002045
:1046F0002B8A0000518A0000AC0900205598000068
:1047000038B504464FF02003EFF3118583F3128888
:10471000BFF36F8F1648FFF761F840B91549164887
:10472000812203F0BFFA8121124803F046FB1048B2
:10473000FFF770F8204603F0E2FD044628B1FFF7CA
:10474000BFFB04F1180000F027FB0948FFF754F8FD
:1047500040B908490848AC2203F0A4FAAC21054846
:1047600003F02BFB85F31188BFF36F8F204638BD14
:10477000E00900202B8A0000518A00000021044B30
:10478000084603F12002C3E90822FFF79DBA00BFE3
:10479000AC090020F8B5EFF3058353B139493A4825
:1047A00040F2DC4203F07EFA40F2DC41354803F08F
:1047B00004FB4FF02003EFF3118683F31288BFF35D
:1047C0006F8F3248FFF70AF840B931492E488122ED
:1047D00003F068FA81212E4803F0EFFA2D4D2B48A3
:1047E000FFF718F8A96805F120004B7B03F07F0361
:1047F0004B73FFF747FBAC68637B63F07F03637326
:10480000254B9C4208D11F491F48BA2203F04AFA9F
:10481000BA211C4803F0D1FA2B6A2048696A834206
:1048200008BF0023002B38BF002333B394F90E7068
:1048300093F90E2097421CD0D21B002A19DD5A682A
:10484000C4E9003214605C600120FFF757FB0F4899
:10485000FEF7D2FF40B90E490B48C32203F022FAFB
:10486000C3210B4803F0A9FA3046BDE8F840FCF735
:1048700099BF8B4201D01B68D7E7C4E900010C60E7
:104880006C62E1E755980000518A0000E0090020C1
:104890002B8A0000AC09002018010020CC09002060
:1048A0002DE9F04104460D46EFF3058353B13C4931
:1048B0003C484FF49F6203F0F5F94FF49F6138488C
:1048C00003F07BFA54EA050304D1FFF763FF0020ED
:1048D000BDE8F0816FF001031E1B4FF0FF3363EB67
:1048E0000507012E77F1000356DA03F012FD0619D1
:1048F0004FF02003EFF3118883F31288BFF36F8F1B
:104900002948FEF76BFF40B928492648812203F069
:10491000C9F98121254803F050FA254F2248FEF7B6
:1049200079FFB868234B1860FFF7E0FCB8682246AF
:104930002B461830204900F075F9BA681A48537BA5
:1049400043F010035373FEF757FF40B9174915485A
:10495000C32203F0A7F9C321144803F02EFA4046FE
:10496000FCF720FFBB685B7BDB060AD50C490D48D2
:1049700040F2195203F096F940F21951084803F039
:104980001CFA03F0C6FC301A66EB0601012871F12F
:104990000003B8BF00209BE76FF00106361BA7E7B6
:1049A00055980000518A0000E00900202B8A000081
:1049B000AC090020DC0900205D42000038B5044647
:1049C0000D46EFF3058353B1114912484FF4A56228
:1049D00003F068F94FF4A5610D4803F0EEF96B1C84
:1049E00008BFB4F1FF3F06D10B4B9868FFF7D4FD29
:1049F0004FF0FF3038BD20462946FFF751FF4FF4F6
:104A00007A7380FB0334D80B40EA4440F2E700BFDE
:104A100055980000518A0000AC090020014B9868AD
:104A2000704700BFAC0900202DE9F04104464FF06B
:104A30002003EFF3118683F31288BFF36F8F3E4894
:104A4000FEF7CCFE40B93D493D48812203F02AF9EA
:104A500081213A4803F0B1F93748FEF7DBFE637B6A
:104A60001A0712D53448FEF7C7FE40B93349344817
:104A7000AC2203F017F9AC21304803F09EF986F31D
:104A80001188BFF36F8FBDE8F08123F0200242F060
:104A90000801D20938D16173A36813B12046FFF72A
:104AA0000FFA04F1180000F077F94FF0000804F154
:104AB0005807A56DBD4200D085BB0120FFF71EFA47
:104AC000204B9B68A342CDD1EFF30583002BC9D1C6
:104AD0001948FEF791FE40B918491948C32203F05E
:104AE000E1F8C321154803F068F93046FCF75AFE97
:104AF00040F24B621449124803F0D4F840F24B6183
:104B0000114803F05AF9ADE703F05F0343F00803DF
:104B100021460E486373FFF7B5F9BDE72846FFF756
:104B2000CFF905F1180000F037F92846C5F878806C
:104B3000FFF7CEFABDE700BFE00900202B8A000096
:104B4000518A0000AC09002055980000CC090020D3
:104B500008B50648064A0749121A03F0DEF9BDE80F
:104B60000840054A0549064803F0D7B9000000206F
:104B700014010020D898000000000000D898000020
:104B800000000020034B1B680BB9FEF747B800205C
:104B9000704700BFEC09002030B5036868B10A4ACD
:104BA0005268904209D043B1D3E90421D0E90445C9
:104BB000121945EB0101C3E90421426813605A60F0
:104BC0000023C0E9003330BD4000002038B5134B4E
:104BD0001C689C4208BF0024FFF7D4FF0546BCB107
:104BE000D4E90401401B61EBE571012871F1000378
:104BF00011DB6FF000420023824273EB010400DA04
:104C00001046074B1B6913B19842A8BF184638BD20
:104C10006FF00040F5E70020F3E700BF4000002000
:104C2000AC0900202DE9F74F1D466B1C08BFB2F1FF
:104C3000FF3F82468B46144600F09C80036843B1D8
:104C40004E494F485D2203F02DF85D214B4803F09B
:104C5000B4F8CAF808B04FF02003EFF3118B83F3D8
:104C60001288BFF36F8F4748FEF7B8FD40B9464939
:104C70004348812203F016F88121434803F09DF850
:104C80004048FEF7C7FD6FF001034FF0FF32B3EB72
:104C9000040862EB0509B8F1000F79F100011CDB93
:104CA0003A48D0E900105B1A62EB00021E1B62EB6F
:104CB0000507012E77F10003BCBF01260027CAE9D2
:104CC0000467334AD2E9003693421DD1CAE900266F
:104CD000C6F800A0C2F804A02CE0FFF753FF631C45
:104CE000009345F100030193DDE90023121843EB23
:104CF000E073CAE90423E4E7E01B65EB0801B34273
:104D0000CAE90401E2D01B68002BDFD0D3E90478A4
:104D1000DAE90445BC4275EB0801EDDA381B68EBB3
:104D20000501C3E904015968CAE90031C1F800A0CE
:104D3000C3F804A0136893420BD09A4509D1FFF73A
:104D400045FF18B1134B1B69834202D00021FDF7C8
:104D5000DDFE0C48FEF750FD40B90B490848AC2277
:104D600002F0A0FFAC21084803F027F88BF311886C
:104D7000BFF36F8F03B0BDE8F08F00BF77980000DE
:104D8000518A0000F00900202B8A00001802002040
:104D900040000020AC09002038B504464FF0200345
:104DA000EFF3118583F31288BFF36F8F1548FEF779
:104DB00015FD40B914491548812202F073FF812185
:104DC000114802F0FAFF0F48FEF724FD2368B3B143
:104DD0002046FFF7E1FE00240A48FEF70DFD40B92A
:104DE00009490A48AC2202F05DFFAC21064802F0F6
:104DF000E4FF85F31188BFF36F8F204638BD6FF055
:104E00001504E9E7F00900202B8A0000518A000010
:104E100038B54FF02003EFF3118583F31288BFF309
:104E20006F8F1348FEF7DAFC40B91249124881220D
:104E300002F038FF81210F4802F0BFFF0C48FEF757
:104E4000E9FCFFF7C3FE04460948FEF7D5FC40B96C
:104E500008490948AC2202F025FFAC21054802F0C0
:104E6000ACFF85F31188BFF36F8F204638BD00BFBC
:104E7000F00900202B8A0000518A000070B504461A
:104E80000D464FF02003EFF3118683F31288BFF332
:104E90006F8F1648FEF7A2FC40B9154915488122CC
:104EA00002F000FF8121124802F087FF0F48FEF751
:104EB000B1FCFFF78BFE012805DDA04203DB29468C
:104EC0002046FDF723FE0948FEF796FC40B9084945
:104ED0000848AC2202F0E6FEAC21054802F06DFF66
:104EE00086F31188BFF36F8F70BD00BFF0090020FB
:104EF0002B8A0000518A00002DE9F04F85B004464E
:104F0000FFF780F84FF02003EFF3118983F3128845
:104F1000BFF36F8F4C48FEF761FC40B94B494C48DA
:104F2000812202F0BFFE8121484802F046FF494F2E
:104F3000494EBB464448DFF824A1FEF76BFC3460C1
:104F4000D6F800C0DAF800806246D7E90034D045D0
:104F5000CDE902344FEAE273CDE9002311D0B8F174
:104F6000000F0ED0D8E90412DDE900348B4274EB57
:104F700002032ADA009BC81A019B62EB0301C8E90D
:104F800004010024009B029A03999A18019B346043
:104F900041EB0303CBE90023FFF718FE2146FDF7A1
:104FA000B5FD2948FEF728FC40B928492848AC221D
:104FB00002F078FEAC21254802F0FFFE89F311884B
:104FC000BFF36F8F05B0BDE8F08F0022DDE9024529
:104FD00000236418ACEB010045EBE1753060C8E9D3
:104FE00004234046C7E90045FFF7D6FD1648FEF703
:104FF00003FC40B915491648AC2202F053FEAC211F
:10500000124802F0DAFE89F31188BFF36F8F404631
:10501000D8F8083098474FF02003EFF3118983F355
:105020001288BFF36F8F0848FEF7D8FB40B90749D5
:105030000748812202F036FE8121044802F0BDFEBD
:105040000148FEF7E7FB7BE7F00900202B8A000010
:10505000518A000018020020EC09002040000020C6
:1050600070B54FF02003EFF3118683F31288BFF37E
:105070006F8F1648FEF7B2FB40B9154915488122DB
:1050800002F010FE8121124802F097FE0F48FEF751
:10509000C1FBFDF7C3FD104BD3E9004524180B48B5
:1050A00045F10005FEF7A8FB40B909490948AC22C3
:1050B00002F0F8FDAC21064802F07FFE86F311886D
:1050C000BFF36F8F2046294670BD00BFF009002056
:1050D0002B8A0000518A000018020020024A03496E
:1050E000034802F0DFBD00BF748A00009B980000F7
:1050F000AA98000010B50C4C236813B10B4B1B6829
:105100002BB900F073FE30B90122084B1A6001235D
:105110000020236010BD0138062801D9044810BDC5
:10512000044B53F8200010BDF4090020F8090020BA
:10513000FE8FFFFF70880000BFF34F8F0549064BBD
:10514000CA6802F4E0621343CB60BFF34F8F00BF25
:10515000FDE700BF00ED00E00400FA054FF0FE336C
:10516000002130B4064A074D074C2B6013602360C2
:10517000064A074CEB606368C2F8001530BC18475C
:105180000414845000148450081484500000845087
:1051900048000020024BD0E90012C3E9001270471A
:1051A000480000202DE9F043154CDFF85C80002812
:1051B00018BF0446206883B040451DD016460D46F2
:1051C00020464FF4DE7104F1040900F0D3F804F531
:1051D0008C77484600F0F2FC384600F01DFB4A464A
:1051E00038462B460749009600F02CFB08B9C4F856
:1051F000008003B0BDE8F083002003B0BDE8F08379
:10520000D01300203D5C0000A5BCC95AF0B50D4C80
:105210000D4E002808BF2046076883B0B7420ED164
:1052200000261D4600F58C7033460096144600F0AB
:1052300057FB002818BF34462C6003B0F0BD03486C
:10524000FBE700BFD0130020A5BCC95AE88FFFFFC1
:1052500010B5044630B16368DB0602D50023236035
:10526000636010BD024B03485B689847F3E700BFDB
:10527000480000208C88000068B143683BB1DB0621
:1052800007D5BFF35F8F00230360184670470348BC
:105290007047034870476FF4E0407047EA8FFFFFA4
:1052A000E98FFFFF10B5044620B1002211232260D0
:1052B000636010BD0148FFF751FFF6E7B4880000B6
:1052C000A0B1436883B1DB060CD50122D0E8EF3FE3
:1052D000C0E8E12F0029F9D1012BF7D0BFF35F8F90
:1052E0000020704703487047034870476FF4E04060
:1052F000704700BFE98FFFFFEA8FFFFF2DE9F04104
:10530000144C0268C368D0E90156C4E90263C4E9D9
:105310000025114B0E684868104DC3E90060D1E9C3
:1053200002760869D5F81411C3E902761861CB0634
:105330000DD5002305F58870C5E94433C5E96D3303
:105340009047236805F5DA70BDE8F0411847BDE8DD
:10535000F08100BF5800002068000020D01300201A
:1053600038B131B1002201440346013081421A7044
:10537000FAD1704738B131B10022014403460130FF
:1053800088421A70FAD170472DE9F04FB2F5C07F0C
:10539000AFB000F22C81DFF86C9290460C464FF4CF
:1053A000D07200218246484602F0C2FD11A801F0E9
:1053B000E9F9002220232146A9F8102098FA98F450
:1053C000424609F11800A9F8124089F8173002F096
:1053D000A4FD8022874B8849884C09EB0800CDE961
:1053E00002410276019311A803F10C3301A9049341
:1053F00001F0DEF90746002840F0D88008F11908CE
:1054000005AE0DF1240B10220021304602F090FD74
:1054100045467B4C9DF8142014F8103C9DF815C0AF
:1054200014F80F1C9DF81600534014F80E2C8CEA4B
:10543000010C50409DF8171014F80D2C9DF818E041
:10544000514014F80C2C8DF814308EEA020214F836
:105450000B3C9DF819E08DF815C08EEA030314F893
:105460000ACC9DF81AE08DF816008EEA0C0C14F8A0
:10547000090C9DF81BE08DF817108EEA000014F857
:10548000081C9DF81CE08DF818208EEA010114F824
:10549000072C9DF81DE08DF819308EEA02029DF868
:1054A0001E3014F806EC8DF81AC083EA0E038DF84E
:1054B0001B008DF81C108DF81D208DF81E309DF8F6
:1054C0001F1014F8053C9DF820C09DF821004B40AA
:1054D00014F8042C14F8031C8CEA020241409DF8D5
:1054E00022C014F8020C9DF823E08CEA000014F8A6
:1054F00001CC8DF81F308EEA0C0C8DF820208DF831
:1055000021108DF8220033463246012111A88DF872
:1055100023C001F067F9102D94BF6D1B103D0028CA
:1055200063D11034002D7FF475AF0BEB0700102210
:10553000314602F0F2FC99F8033010370133202F86
:1055400089F803307FF45FAF8022594611A801F03B
:105550002FF9074668BB54460AF120050DAB1A46E1
:10556000012111A801F03EF9074610BB1022204688
:105570000DA9144402F0D1FCAC42EFD111A801F006
:1055800011F94FF4D0711F48FFF7F4FE584620215F
:10559000FFF7F0FE01A81021FFF7ECFE30461021C6
:1055A000FFF7E8FE38462FB0BDE8F08F05AE0DF1ED
:1055B000240B11A801F0F6F84FF4D0711148FFF751
:1055C000D9FE58462021FFF7D5FE102101A8FFF78C
:1055D000D1FE30461021FFF7CDFE50462021FFF7C7
:1055E000C9FE38462FB0BDE8F08F0746E1E76FF0FF
:1055F0003707F6E70001020308090A0B040506074E
:105600001C0A00200C0A00202DE9F041202204464B
:1056100088B00D4668460021A6186F4602F088FC47
:10562000E27B0132D2B2E273002A4DD1A27B013279
:10563000D2B2A273002A47D1637B0133DBB263731A
:10564000002B41D1237B0133DBB22373002B3BD1F1
:10565000E37A0133DBB2E372002B35D1A37A013355
:10566000DBB2A372002B2FD1637A0133DBB26372FA
:1056700053BB237A0133DBB223722BBBE3790133B3
:10568000DBB2E37103BBA3790133DBB2A371DBB9F6
:1056900063790133DBB26371B3B923790133DBB2D0
:1056A00023718BB9E3780133DBB2E37063B9A3787C
:1056B0000133DBB2A3703BB963780133DBB26370B3
:1056C00013B92378013323703B462246012130462B
:1056D00001F088F8804600282AD1103708AB9F4295
:1056E0009ED100992B686A684B40019930464A4028
:1056F000AE68029900937140EB68039E019273407B
:105700002A69049E0291564005996A6903935140A3
:10571000D5E90623069D05915540079A69465340F1
:105720008022CDE90653049601F042F8804638B154
:1057300068462021FFF71EFE404608B0BDE8F08114
:10574000102220460DEB020102F0E7FBF0E700BF5C
:105750002DE9F84304468069B0F5C07F54D81D4652
:10576000C0F5C073AB424FD3C5F5C073181A904251
:10577000164649D3DFF89C904FF4C0720F46484656
:10578000002102F0D5FB4946D4F89430A269D4F840
:105790009800984700283AD1D4F818804DB12A468D
:1057A000D4F89430D4F8980009EB0801984770BBFE
:1057B000A84407B1C6B9174942460846FFF7E4FDB9
:1057C000054638B14FF4C0711248FFF7D3FD2846A3
:1057D000BDE8F88320460F49FFF716FF054600286D
:1057E000F0D101232361EDE73946324609EB080089
:1057F00002F093FB0749B04442460846FFF7C4FD58
:1058000005460028DED1E5E76FF03705DFE76FF0EA
:105810003305DCE7AC0B002010B5A42200210446C0
:1058200002F086FB4FF0FF314FF6F072044B21611E
:10583000E26104F19C001B68BDE81040184700BFFE
:10584000AC0000202DE9F043054685B00F46164612
:10585000684610220021994602F06AFB1E4B05F1B2
:105860009C0840461B68984720B10446204605B076
:10587000BDE8F08305F12004204600F083FFAA690B
:10588000C5E92576EAB920222E69AA61002E20DB1F
:1058900020466946802200F08BFF044630B933462B
:1058A000494628460C9AFFF753FF04460B4B4046E7
:1058B0001B689847002818BF0446204605B0BDE87D
:1058C000F0832E69002EE3DA172A02D8531C5E08F3
:1058D000DEE70026DCE700BFB0000020B4000020B7
:1058E0002DE9F04FB2F5806F8DB0DDF8588000F2F1
:1058F000E480B8F5807F00F2DD80044615460E4650
:105900002022002104A81F4602F012FB6C4B04F178
:105910009C0948461B6898478346002840F09380BE
:105920002269E3699A4200F392806369002B40F098
:105930008E80B8F1000F40F0A980DFF888A16F4693
:10594000002D00F098806F4604F120080EE0102D25
:10595000AB4628BF4FF0100B304639465A4602F08E
:10596000DCFAB5EB0B055E4400F08580E37B013388
:10597000DBB2E373002B4DD1A37B0133DBB2A37306
:10598000002B47D1637B0133DBB26373002B41D122
:10599000237B0133DBB22373002B3BD1E37A01334A
:1059A000DBB2E372002B35D1A37A0133DBB2A372F1
:1059B000002B2FD1637A0133DBB2637253BB237A9E
:1059C0000133DBB223722BBBE3790133DBB2E3712A
:1059D00003BBA3790133DBB2A371DBB96379013374
:1059E000DBB26371B3B923790133DBB223718BB9B5
:1059F000E3780133DBB2E37063B9A3780133DBB240
:105A0000A3703BB963780133DBB2637013B92378B9
:105A1000013323703B4622460121404600F0E2FE5E
:105A20008346002893D0DAF800304846984703466A
:105A3000202104A8002B18BF9B46FFF79BFC38468B
:105A40001021FFF797FC58460DB0BDE8F08F424695
:105A5000394600232046FFF77BFEDFF868A00028C8
:105A60003FF46DAF4846DAF8003098478346002887
:105A70003FF465AFE7E7204604A9FFF7C5FD83467D
:105A80000028D0D1236901332361CCE7424639464F
:105A900004A8FFF779FC834618B16F46DFF824A00D
:105AA000C1E7204604A9FFF7AFFD834600283FF475
:105AB00044AFF2E76FF0370BC5E76FF0350BC2E785
:105AC000B0000020B40000202DE9F043202B1D463B
:105AD0000646894690468BB026D8DBB202AF3168C5
