:020000040000FA
:10000000000C002045010000A70100004929000064
:100010005D29000071290000992900008529000050
:100020000000000000000000000000006543000028
:10003000C30100000000000025430000CB010000C8
:10004000000000000000000000000000CF010000E0
:1000500000000000D30100000000000000000000CC
:10006000D7010000DB010000DF010000E301000018
:1000700000000000E7010000EB010000EF010000BC
:10008000F3010000F7010000000000000000000084
:10009000FB010000FF010000000000000000000064
:1000A0000302000000000000000000000702000042
:1000B0000B0200000F0200001302000017020000F4
:1000C0001B0200001F0200002302000027020000A4
:1000D0002B020000000000002F02000000000000C2
:1000E00033020000000000003702000000000000A2
:1000F0003B020000000000000000000000000000C3
:10010000000000003F0200000000000000000000AE
:1001100000000000000000000000000000000000DF
:10012000000000004302000000000000000000008A
:1001300000000000000000000000000000000000BF
:1001400047020000114C124DAC4209DA2168626886
:10015000A368043BA2BFC858D050FAE70C34F3E7B9
:100160000C4B0D4CA34208DA19685A680020043A77
:10017000A4BF8850FBE70833F4E772B60748084984
:10018000086002F0EFFC02F09FFB00004C02000050
:1001900070020000700200009002000000000000E9
:1001A00008ED00E0FEE7FFF7FEBF02F0CDBB02F076
:1001B000D5BB02F0DDBB02F0EFBB02F0E3BB04F005
:1001C000D1B8FFF7FEBF04F0ADB8FFF7FEBFFFF7F1
:1001D000FEBFFFF7FEBFFFF7FEBFFFF7FEBFFFF753
:1001E000FEBFFFF7FEBFFFF7FEBFFFF7FEBFFFF743
:1001F000FEBFFFF7FEBFFFF7FEBFFFF7FEBFFFF733
:10020000FEBFFFF7FEBFFFF7FEBFFFF7FEBFFFF722
:10021000FEBFFFF7FEBFFFF7FEBFFFF7FEBFFFF712
:10022000FEBFFFF7FEBFFFF7FEBFFFF7FEBFFFF702
:10023000FEBFFFF7FEBFFFF7FEBFFFF7FEBFFFF7F2
:10024000FEBFFFF7FEBFFFF7FEBF00BF9C98000098
:10025000202F002008010000A0980000401C002072
:1002600000000000A0980000201C002000000000FA
:10027000403000207C1A0000401C0020E0120000EA
:10028000201C002020000000001C002004000000B2
:1002A0001FB514461A46094B05461B68D8684CB161
:1002B000074B00910749CDE901342B4600F02AF89D
:1002C00000F0F0FC044B1C46F3E700BFBC2F0020FD
:1002D000FC1200000913000037130000024B0A460D
:1002E0000146186800F06EB8BC2F002008B5074B17
:1002F000044613B1002100E000BF054B1868836A73
:1003000003B19847204608F05FFE00BF00000000E0
:10031000381300000EB403B503AB0146054853F88B
:10032000042B0068019300F027F902B05DF804EB9C
:1003300003B07047BC2F002070B50D4D00260D4C4A
:10034000641BA410A64209D10B4D00260B4C08F0EB
:100350003DFE641BA410A64205D170BD55F8043BB8
:1003600001369847EEE755F8043B01369847F2E727
:1003700020300020203000202030002024300020B9
:10038000024B0146186800F02BB800BFBC2F0020BC
:10039000884210B501EB020402D98442234607D8F3
:1003A000431EA14208D011F8012B03F8012FF8E7F2
:1003B000024401468A4200D110BD13F8014D02F8F3
:1003C000014DF7E738B502FB01F5294600F052F878
:1003D000044618B12A46002101F0E6F8204638BD4F
:1003E00038B50546002941D051F8043C0C1F002BBC
:1003F000B8BFE41800F086FE1D4A136833B9636085
:1004000014602846BDE8384000F082BEA34208D9F7
:10041000206821188B4201BF19685B6809182160A8
:10042000EDE71A465B680BB1A342FAD91168501880
:10043000A0420BD120680144501811608342E0D1E2
:1004400018685B68014453601160DAE702D90C2335
:100450002B60D6E7206821188B4202BF19685B68C1
:100460000918636008BF21605460CAE738BD00BF47
:10047000A84A0020F8B5CD1C064625F0030508352E
:100480000C2D38BF0C25002D01DBA94203D90C230C
:1004900033600020F8BD00F035FE21490A6814469B
:1004A0009CB9204F3B6823B92146304600F02AFB17
:1004B00038602946304600F025FB431C23D10C232D
:1004C0003046336000F024FEE3E723685B1B17D45B
:1004D0000B2B03D923601C44256004E06368A2420F
:1004E0000CBF0B605360304600F012FE04F10B00AD
:1004F000231D20F00700C21ACCD01B1AA350C9E755
:1005000022466468CCE7C41C24F00304A042E3D074
:10051000211A304600F0F6FA0130DDD1CFE700BFF6
:10052000A84A0020AC4A00209368013B002B93604E
:1005300010B407DA9469A34201DB0A2902D110BC86
:1005400000F0F0BA1368581C10600846197010BC0F
:100550007047F8B506460F461446D518AC4201D18F
:10056000002007E03A4614F8011B3046FFF7DCFF95
:10057000431CF3D1F8BD00002DE9F04F0D469DB0AE
:1005800014469846064618B183690BB900F0A6FCDC
:10059000894B9D421BD175686B6ED90705D4AB8919
:1005A0009A0502D4A86D00F037FDAB891B0701D571
:1005B0002B69EBB92946304600F006FBC0B16B6EE3
:1005C000DC070ED54FF0FF301DB0BDE8F08F7B4B40
:1005D0009D4201D1B568DFE7794B9D4208BFF568C0
:1005E000DAE7AB899805EDD4A86D00F016FDE9E7D0
:1005F0000023CDF80C804FF00109DFF8C881099382
:1006000020238DF8293030238DF82A3023469A464E
:1006100013F8012B0AB1252AF9D1BAEB040B0BD040
:100620005B46224629463046FFF793FF013000F033
:10063000AA80099A5A4409929AF80030002B00F0D7
:10064000A28000234FF0FF320AF1010A04930793BE
:100650008DF853301A93CDE90523544605225948A5
:1006600014F8011B00F040FD049AD8B9D10644BF2C
:1006700020238DF85330130744BF2B238DF85330BC
:100680009AF800302A2B15D0079A544600204FF0D4
:100690000A0C214611F8013B303B092B4ED9B0B171
:1006A000079214E0A0EB0803A24609FA03F31343F0
:1006B0000493D2E7039B191D1B68002B0391BBBF5A
:1006C0005B4242F0020207930793B8BF049223787B
:1006D0002E2B0CD163782A2B35D1039B02341A1DA3
:1006E0001B68002B0392B8BF4FF0FF330593DFF870
:1006F000D8A003222178504600F0F6FC40B14023F8
:10070000A0EB0A00013403FA00F0049B03430493B6
:1007100014F8011B06222D488DF8281000F0E4FC87
:1007200000283FD02A4B1BBB039B073323F0070352
:1007300008330393099B3B44099367E70CFB0232A0
:100740000C460120A5E7002301344FF00A0C19469E
:100750000593204610F8012B303A092A03D9002BC3
:10076000C5D00591C3E70CFB012104460123F0E746
:1007700003AB2A4604A930460093164B00E000BFA5
:100780000746781CD6D16B6ED90705D4AB899A057C
:1007900002D4A86D00F041FCAB895B063FF512AFB7
:1007A000099811E703AB2A4604A930460093094B88
:1007B00000F082F8E4E700BF90130000B0130000DF
:1007C000701300003C1300004213000046130000A9
:1007D00000000000530500002DE9F0471646994639
:1007E0008A6807460B690C46DDF820809342B8BF43
:1007F0001346336091F843200AB101333360236814
:10080000990642BF336802333360256815F0060548
:1008100006D104F1190AE36832689B1AAB4229DC5D
:1008200094F84320131E226818BF012392062ED489
:1008300004F1430249463846C047013021D02368BD
:100840001A3454F80E5C03F0060332680026042BB9
:1008500054F8123C08BFAD1A54F80A2C14BF0025F6
:1008600025EAE5759342C4BF9B1AED18B5421AD12B
:10087000002008E00123524649463846C04701306F
:1008800003D14FF0FF30BDE8F0870135C3E7E11831
:100890005A1C30200233224481F8430094F845105A
:1008A00082F84310C4E70123224649463846C04730
:1008B0000130E6D00136D9E72DE9FF470F7E91469A
:1008C00080460C46782F9A460C9D01F1430207D8CA
:1008D000622F0AD8002F00F0D880582F00F0A38094
:1008E00004F1420584F842703AE0A7F16303152B46
:1008F000F6D801A151F823F0510900006509000064
:10090000E1080000E1080000E1080000E108000043
:1009100065090000E1080000E1080000E1080000AE
:10092000E1080000710A000095090000530A000068
:10093000E1080000E1080000930A0000E10800005F
:1009400095090000E1080000E10800005B0A0000D2
:100950002B681A1D1B682A6004F1420584F8423096
:100960000123A3E020682968060601F104030AD5E3
:100970000E682B60002E03DA2D23764284F8433074
:100980005E480A2319E00E6810F0400F2B6018BF74
:1009900036B2EFE72B682068191D2960010601D5E2
:1009A0001E6802E04606FBD51E886F2F53480CBF19
:1009B00008230A23002184F843106568002DA560F0
:1009C000A2BF216821F0040121600EB9002D4DD095
:1009D0001546B6FBF3F103FB1167C75D05F8017D12
:1009E00037460E46BB42F4D9082B0BD12368DE07ED
:1009F00008D5236961689942DEBF302305F8013CC0
:100A000005F1FF35521B22614B4603AA21464046A1
:100A1000CDF800A0FFF7E0FE01304CD14FF0FF30E1
:100A200004B0BDE8F087354881F84570296823682F
:100A300051F8046B29601D0614D5DF0744BF43F04D
:100A4000200323601EB9236823F0200323601023B2
:100A5000B0E7236843F0200323607823284884F814
:100A60004530E3E7590648BFB6B2E6E71546BBE7AF
:100A70002B682668181D6169286035061B6801D53A
:100A8000196002E07006FBD519800023154623612A
:100A9000BAE72B6800211A1D2A601D686268284683
:100AA00000F022FB08B1401B6060636823610023F3
:100AB00084F84330A8E723692A4649464046D04790
:100AC0000130ABD023689B0713D4E068039B9842A6
:100AD000B8BF1846A4E70123324649464046D047EE
:100AE00001309BD00135E36803995B1AAB42F2DC1D
:100AF000EBE7002504F11906F5E700BF4D130000F0
:100B00005E13000038B50023054D044608462B60EF
:100B100008F042FA431C02D12B6803B1236038BDB0
:100B2000B44A0020F8B50E461446054618B183694C
:100B30000BB900F0D3F9214B9C422BD16C68A3690F
:100B4000A360A3891A072FD523696BB32369F6B273
:100B500020683746C01A6369834204DC2146284670
:100B600000F028F930BBA3680130013BA360236883
:100B70005A1C22601E706369834204D0A389DB077C
:100B800006D50A2E04D12146284600F013F988B96B
:100B90003846F8BD0A4B9C4201D1AC68CFE7094BFF
:100BA0009C4208BFEC68CAE72146284600F00CF8D2
:100BB0000028CBD04FF0FF37EAE700BF90130000CA
:100BC000B013000070130000324B70B51D6806466C
:100BD0000C4625B1AB6913B9284600F07FF92E4BBE
:100BE0009C420FD16C68A389B4F90C2019072CD44E
:100BF000DD0611D40923336042F040034FF0FF308B
:100C0000A3813EE0254B9C4201D1AC68EBE7244B2D
:100C10009C4208BFEC68E6E7580712D5616B41B10A
:100C200004F14403994202D03046FFF7D9FB002378
:100C30006363A38923F02403A381002363602369F2
:100C40002360A38943F00803A38123694BB9A389D7
:100C500003F42073B3F5007F03D02146304600F043
:100C600003FAA089B4F90C2010F001030AD0002384
:100C7000A36063695B42A361236943B910F08000FC
:100C8000BAD170BD810758BF6369A360F4E7002043
:100C9000F7E700BFBC2F002090130000B013000046
:100CA00070130000062008B500F060FA012008F07B
:100CB0008BF900008A89F8B5054610070C4657D411
:100CC0004B68002B04DC0B6C002B01DC0020F8BD12
:100CD000E66A002EFAD0002312F480522F682B60AF
:100CE00032D0606DA3895A0705D56368C01A636B5B
:100CF0000BB1236CC01A00230246E66A2846216A1B
:100D0000B047431CA38906D129681D292CD8284A3D
:100D1000CA40D60728D50022D90462602269226021
:100D200004D5421C01D12B6803B96065616B2F604B
:100D30000029CBD004F14403994202D02846FFF7A2
:100D40004FFB00206063C2E7216A01232846B047B9
:100D5000411CC7D12B68002BC4D01D2B01D0162BF2
:100D600001D12F60B2E7A38943F04003A381AEE72E
:100D70000F69002FAAD093070E680F600CBF4B6954
:100D80000023F61B8B60002EA0DD33463A46216A15
:100D90002846D4F828C0E047002806DCA3894FF095
:100DA000FF3043F04003A38191E70744361AEAE796
:100DB0000100402038B50B6905460C4613B90025E3
:100DC000284638BD18B183690BB900F087F8144B79
:100DD0009C421BD16C68B4F90C30002BEFD0626ED2
:100DE000D00704D4990502D4A06D00F015F9284667
:100DF0002146FFF75FFF636E0546DA07E0D4A3895B
:100E00009B05DDD4A06D00F008F9D9E7054B9C42A5
:100E100001D1AC68DFE7044B9C4208BFEC68DAE71D
:100E200090130000B013000070130000002310B5F1
:100E300004468360818119464366C281082283612A
:100E4000C0E90033C0E904335C3000F0ADFB054B72
:100E500024626362044BA362044BE362044B23638A
:100E600010BD00BFA5110000C7110000FF11000058
:100E700023120000014900F0AFB800BFB50D00001B
:100E800070B568224D1E0E46554305F17401FFF7FB
:100E9000F1FA044640B1002105F16802C0E90016EC
:100EA0000C30A06000F080FB204670BD014800F0CF
:100EB000B3B800BFB14A0020014800F0AEB800BF8F
:100EC000B14A0020014800F0A7B800BFB24A002094
:100ED000014800F0A2B800BFB24A002010B5044695
:100EE000FFF7F0FFA3691BB1BDE81040FFF7F0BFAB
:100EF000C4E9123323652046124B134A1B68A262D1
:100F0000A34204BF0123A36100F020F860602046E3
:100F100000F01CF8A060204600F018F80022042120
:100F2000E0606068FFF782FF01220921A068FFF7F7
:100F30007DFF02221221E068FFF778FF0123A36101
:100F4000D2E700BF38130000750E0000F8B5074661
:100F5000FFF7ACFF1E4B1E68B36913B93046FFF7AD
:100F6000BDFF4836D6E90134013B03D533680BB3E6
:100F70003668F7E7B4F90C50D5B9164B04F15800B0
:100F80006566E36000F047F8FFF796FF0822294600
:100F900004F15C002560A561C4E90155C4E904556C
:100FA00000F002FBC4E90D55C4E912552046F8BD16
:100FB0006834D9E704213846FFF762FF0446306001
:100FC0000028D5D1FFF778FF0C233B60EEE700BF88
:100FD000381300000100FFFF2DE9F843064688465C
:100FE00000F148040027D4E90195B9F1010905D5BC
:100FF0002468002CF7D13846BDE8F883AB89012B73
:1010000007D9B5F90E30013303D029463046C04721
:1010100007436835E9E770477047704770B50E467B
:10102000B1F90E1096B0144600291D4608DAB6F93B
:101030000C3000222A601A0610D44FF480630EE0B0
:101040006A4600F015F90028F1DB019A02F47042BB
:10105000A2F500535A425A412A60EEE7402300208D
:10106000236016B070BD00008B8973B59D070646DE
:101070000C4607D504F14703236023610123636114
:1010800002B070BD01AB6A46FFF7C8FF0099054684
:101090003046FFF7EFF948B9B4F90C309A05EFD4B0
:1010A00023F0030343F00203A381E3E70D4BB36294
:1010B000A389206043F080032061A381009B6361CA
:1010C000019B5BB1B4F90E10304600F0E3F828B193
:1010D000A38923F0030343F00103A381A0890543FF
:1010E000A581CDE7750E0000C9B20346024410B5D4
:1010F0009342184601D1002003E0047801338C426A
:10110000F6D110BD0148FFF787BF00BFB04A0020ED
:101110000148FFF782BF00BFB04A00201F2938B541
:1011200004460D4604D9162303604FF0FF3038BD46
:10113000426C12B152F821304BB9204600F030F821
:101140002A4601462046BDE8384000F017B8012B7A
:101150000AD0591C03D1162303600120E7E70024BD
:10116000284642F8254098470020E0E7024B014618
:101170001868FFF7D3BF00BFBC2F002038B500238D
:10118000064D0446084611462B6007F0EDFE431C51
:1011900002D12B6803B1236038BD00BFB44A0020E0
:1011A00007F0D2BE10B50C46B1F90E1000F094F85D
:1011B0000028ABBF636DA3891B1823F48053ACBF19
:1011C0006365A38110BD2DE9F0411F468B8905465B
:1011D0000C46DB05164605D502230022B1F90E1098
:1011E00000F068F8A3893246B4F90E10284623F4BB
:1011F0008053A3813B46BDE8F04100F017B810B51D
:101200000C46B1F90E1000F055F8431CA38915BF28
:10121000606523F4805343F48053A38118BFA381F6
:1012200010BDB1F90E1000F013B8000038B5044637
:10123000064D0846114600222A601A4607F0BCFEF9
:10124000431C02D12B6803B1236038BDB44A00208F
:1012500038B50023054D044608462B6007F064FEB0
:10126000431C02D12B6803B1236038BDB44A00206F
:1012700038B50023064D0446084611462B6007F09A
:101280005BFE431C02D12B6803B1236038BD00BF55
:10129000B44A002038B50023054D044608462B60AB
:1012A00007F05AFE431C02D12B6803B1236038BDFE
:1012B000B44A002038B50446064D084611460022BF
:1012C0002A601A4607F058FE431C02D12B6803B16E
:1012D000236038BDB44A002038B50446064D0846A0
:1012E000114600222A601A4607F04EFE431C02D126
:1012F0002B6803B1236038BDB44A00202C206675EA
:101300006E6374696F6E3A200061737365727469FD
:101310006F6E2022257322206661696C65643A2015
:1013200066696C6520222573222C206C696E65200D
:101330002564257325730A00C02F0020232D302B30
:101340002000686C4C0065666745464700303132C6
:10135000333435363738394142434445460030311D
:10136000323334353637383961626364656600007C
:10137000000000000000000000000000000000006D
:10138000000000000000000000000000000000005D
:10139000000000000000000000000000000000004D
:1013A000000000000000000000000000000000003D
:1013B000000000000000000000000000000000002D
:1013C000000000000000000000000000000000001D
:1013D000009A3D4B9A420FD1EFF314830CB41FB522
:1013E0003A486946002201F09FFD0FBC0CBC9E46A6
:1013F0000CBC83F3148874470FDFFEE700BF184668
:10140000009A314B9A420FD1EFF314830CB41FB5FD
:101410002F486946002201F087FD0FBC0CBC9E4698
:101420000CBC83F3148874470FDFFEE700BF184637
:101430000CB4029A244B9A4212D10CBC9C46EFF396
:1014400014830CB463461FB522486946002201F09C
:101450006BFD0FBC0CBC9E460CBC83F31488744718
:101460000FDFFEE700BF1846009A174B9A4210D1D3
:10147000EFF314830CB463461FB517486946002286
:1014800001F052FD0FBC0CBC9E460CBC83F31488CB
:1014900074470FDFFEE700BF1846009A0A4B9A42D6
:1014A0000FD1EFF314830CB41FB50C48694600222A
:1014B00001F03AFD0FBC0CBC9E460CBC83F31488B3
:1014C00074470FDFFEE700BFA5EDF5FEF92F000022
:1014D0000930000051300000AD33000089340000B5
:1014E000C3438B4210B50ED332F01F030BD1013929
:1014F00002F014030144102B81EA00043DD004DC07
:1015000063B1042B32D0002041E0142BFBD11F2CFF
:1015100040E8C0F30CD941E8C0F105E01F2C40E8D9
:1015200000F305D941E800F11C460B468C42EAD194
:1015300022F01402013A0A2AE5D801A151F822F05A
:101540009D15000097150000891500000715000083
:10155000071500000715000007150000A31500007F
:101560009D15000091150000891500001F2C40E812
:1015700040F3DDD941E840F1D6E71F2C40E880F385
:10158000D6D941E880F1CFE713F4001FBBD010BDDE
:1015900013F4801FFAE75B02F9D5B4E713F4002FC8
:1015A000F4E713F4802FF1E780B487B000AFF86060
:1015B000B9607A60FB683B61BB68DBB21A06BB6846
:1015C000DBB21B041A43BB68DBB21B021343BA68CD
:1015D000D2B213437B6108E03B695A1C3A61BA6896
:1015E000D2B21A707B68013B7B607B68002B0DD008
:1015F0003B6903F00303002BEED107E03B691A1DA2
:101600003A617A691A607B68043B7B607B68032BD4
:10161000F4D805E03B695A1C3A61BA68D2B21A7034
:101620007B685A1E7A60002BF4D1FB6818461C3781
:10163000BD4680BC704780B487B000AFF860B96029
:101640007A60FB687B61BB683B610AE03A69531CC6
:101650003B617B69591C796112781A707B68013B88
:101660007B607B68002B15D07B6903F00103002BA6
:10167000ECD13B6903F00103002BE7D10AE03A69A2
:10168000931C3B617B69991C796112881A807B6885
:10169000023B7B607B68012B15D97B6903F0020359
:1016A000002BECD13B6903F00203002BE7D10AE0E9
:1016B0003A69131D3B617B69191D796112681A60D3
:1016C0007B68043B7B607B68032BF1D807E03A69B9
:1016D000531C3B617B69591C796112781A707B68D5
:1016E0005A1E7A60002BF2D1FB6818461C37BD46A3
:1016F00080BC704780B483B000AF084B1B687B6030
:101700007B685B68002B02D17B681B6800E0044BA0
:1017100018460C37BD4680BC704700BF001C002037
:101720002D170000FFF7E6FF004700BF90B595B00A
:1017300000AF2F4B1B687B647B6C1B683B647B6C2E
:101740000833FB637B6C5B68012202FA03F3013B05
:10175000BB633B6C002B06D03B6C98470346002BC9
:1017600001D007F083FC4FF00041B86B07F052FC4A
:10177000F8640023BB642DE00122BB6C02FA03F382
:101780007B63FA6C7B6B1340002B20D0BB6C9B00FF
:10179000FA6B13441B68002B01D107F067FC3B1D5B
:1017A0001946786B07F03CFCBC68BB6C9B00FA6B7D
:1017B00013441B683A1D10469847034619462046B5
:1017C00007F045FC7B6BDB43FA6C1340FB64BB6C9E
:1017D0000133BB64FB6C002B04D07B6C5A68BB6C80
:1017E0009A42C9D8FB6C002BBDD007F03FFCBAE78A
:1017F000001C0020000000000000000000000000AD
:1018000001015F5F030100001F0100007F1C000059
:1018100000080000000000000100000001000000BE
:101820000000000000000000102200200000000066
:1018300070000000E490000080000000000700003D
:1018400001000000A31C00000100000000015F5F18
:10185000040100001F030000FD2600000005000039
:101860000000000000000000030000000000000075
:1018700000000000102A002000000000F09000008E
:101880004000000000050000010000000000000012
:101890001000000010910000410000000005000051
:1018A000010000000000000020000000289100005E
:1018B00042000000000400000100000000000000E1
:1018C0004000000000015F5F00000000FE03000018
:1018D0007944000000040000000000000000000047
:1018E000000000000000000000000000E0310020C7
:1018F0000000000001015F5F01000000FF03000025
:10190000B1440000000100000000000000000000E1
:10191000000000000000000000000000E035002092
:0419200000000000C3
:1019400080B483B000AF7860044A7B68C2F8043486
:10195000002318460C37BD4680BC7047401C002051
:1019600080B483B000AF786039607B68033323F0C4
:1019700003037B600F4BD3F80034C3F580637A68B0
:101980009A4202D96FF08C030FE00A4BD3F800346F
:10199000084A1A443B681A60064BD3F800247B6857
:1019A0001344044AC2F80034002318460C37BD46DD
:1019B00080BC7047401C002080B584B000AF0C4B49
:1019C0000022C3F804240A4BD3F80034084AFA6012
:1019D0000022BA607B607A68B968F868FFF7E4FDB6
:1019E000034B0022C3F8002400BF1037BD4680BD62
:1019F000401C002090B5A5B000AF78600023C7F868
:101A000080300423C7F88C300423C7F8883007F1EE
:101A10006003202200211846FFF7C6FD07F14003AE
:101A2000202200211846FFF7BFFD07F10C033422E6
:101A300000211846FFF7B8FD0023BB6004E0D7F88B
:101A40008C30013BC7F88C30D7F88C30002B08D095
:101A5000D7F88C305A1E7B68043253F82230002BA2
:101A6000EDD0D7F88C30002B02D16FF08303EBE080
:101A70007B68586807F10C023423002107F0D6FA7E
:101A80000346342B02D06FF08303DDE0FB68402B6C
:101A900002D96FF08303D7E007F10C033B663423D0
:101AA0007B660123C7F884303BE07B68D7F884204D
:101AB000043253F8223007F1080211461846FFF7A6
:101AC0004FFFC7F88000D7F88030002B04D0FFF715
:101AD00073FFD7F88030B7E07B685868B9687B68D7
:101AE000D7F88420043253F822300A46D7F88410FD
:101AF00007F09CFA0246D7F88430DB0007F190012A
:101B00000B4443F82C2CBA68D7F88430DB0007F17B
:101B100090010B4443F8302CD7F884300133C7F8D8
:101B20008430D7F88420D7F88C309A42BDD304E0B3
:101B3000D7F88830013BC7F88830D7F88830002BB9
:101B400008D0D7F888305A1E7B68083253F8223004
:101B5000002BEDD00023C7F8843032E07B68D7F843
:101B60008420083253F8223007F108021146184643
:101B7000FFF7F6FEC7F88000D7F88030002B04D0BE
:101B8000FFF71AFFD7F880305EE0BA68D7F88430E4
:101B9000DB0007F190010B4443F8502C7B68D7F829
:101BA0008420083253F82220D7F88430DB0007F174
:101BB00090010B4443F84C2CD7F884300133C7F81C
:101BC0008430D7F88420D7F888309A42C6D37B680F
:101BD0009B681846FFF7B4FEFB681D4A52F8234085
:101BE00007F1400207F16000D7F88830D7F88C1071
:101BF000A047C7F880000023C7F884301AE07B684C
:101C00005868D7F88430DB0007F19002134453F88A
:101C1000502CD7F88430DB0007F190010B4453F8C7
:101C20004C3CD7F8841007F00DFAD7F88430013314
:101C3000C7F88430D7F88420D7F888309A42DED3AA
:101C4000FFF7BAFED7F8803018469437BD4690BDEE
:101C50006027000080B500AF0121044803F0ACFE0E
:101C600003F012FF0346184680BD00BF4820002045
:101C700080B500AF00F028F80346184680BD80B557
:101C800082B000AFFFF7F4FF78607B68002B01D0D3
:101C90007B6802E0FFF7DEFF034618460837BD46C3
:101CA00080BD80B582B000AF78607B681B68002B78
:101CB00004D17868FFF79EFE034601E06FF08503CC
:101CC00018460837BD4680BD80B584B000AF084BCC
:101CD000FB600023BB604FF4E0737B607A68B968F7
:101CE000F868FFF761FC002318461037BD4680BD39
:101CF0005020002080B485B000AFF860B9607A60F1
:101D00003B606FF0850318461437BD4680BC7047B2
:101D100080B485B000AFF860B9607A603B606FF066
:101D2000850318461437BD4680BC704780B485B023
:101D300000AFF860B9607A603B606FF085031846C9
:101D40001437BD4680BC704780B485B000AFF860E2
:101D5000B9607A603B606FF0850318461437BD4662
:101D600080BC704780B485B000AFF860B9607A601D
:101D70003B606FF0850318461437BD4680BC704742
:101D800080B485B000AFF860B9607A603B606FF0F6
:101D9000850318461437BD4680BC704780B485B0B3
:101DA00000AFF860B9607A603B606FF08503184659
:101DB0001437BD4680BC704780B485B000AFF86072
:101DC000B9607A603B606FF0850318461437BD46F2
:101DD00080BC704780B485B000AFF860B9607A60AD
:101DE0003B606FF0850318461437BD4680BC7047D2
:101DF00080B485B000AFF860B9607A603B606FF086
:101E0000850318461437BD4680BC704780B485B042
:101E100000AFF860B9607A603B606FF085031846E8
:101E20001437BD4680BC704780B485B000AFF86001
:101E3000B9607A603B606FF0850318461437BD4681
:101E400080BC704780B485B000AFF860B9607A603C
:101E50003B606FF0850318461437BD4680BC704761
:101E600080B485B000AFF860B9607A603B606FF015
:101E7000850318461437BD4680BC704780B485B0D2
:101E800000AFF860B9607A603B606FF08503184678
:101E90001437BD4680BC704780B485B000AFF86091
:101EA000B9607A603B606FF0850318461437BD4611
:101EB00080BC704780B485B000AFF860B9607A60CC
:101EC0003B606FF0850318461437BD4680BC7047F1
:101ED00080B485B000AFF860B9607A603B606FF0A5
:101EE000850318461437BD4680BC704780B485B062
:101EF00000AFF860B9607A603B606FF08503184608
:101F00001437BD4680BC704780B485B000AFF86020
:101F1000B9607A603B606FF0850318461437BD46A0
:101F200080BC704780B485B000AFF860B9607A605B
:101F30003B606FF0850318461437BD4680BC704780
:101F400080B485B000AFF860B9607A603B606FF034
:101F5000850318461437BD4680BC704780B485B0F1
:101F600000AFF860B9607A603B606FF08503184697
:101F70001437BD4680BC704780B485B000AFF860B0
:101F8000B9607A603B606FF0850318461437BD4630
:101F900080BC704780B485B000AFF860B9607A60EB
:101FA0003B606FF0850318461437BD4680BC704710
:101FB00080B485B000AFF860B9607A603B606FF0C4
:101FC000850318461437BD4680BC704780B485B081
:101FD00000AFF860B9607A603B606FF08503184627
:101FE0001437BD4680BC704780B485B000AFF86040
:101FF000B9607A603B606FF0850318461437BD46C0
:1020000080BC704780B485B000AFF860B9607A607A
:102010003B606FF0850318461437BD4680BC70479F
:1020200080B485B000AFF860B9607A603B606FF053
:10203000850318461437BD4680BC704780B485B010
:1020400000AFF860B9607A603B606FF085031846B6
:102050001437BD4680BC704780B485B000AFF860CF
:10206000B9607A603B606FF0850318461437BD464F
:1020700080BC704780B485B000AFF860B9607A600A
:102080003B606FF0850318461437BD4680BC70472F
:1020900080B485B000AFF860B9607A603B606FF0E3
:1020A000850318461437BD4680BC704780B485B0A0
:1020B00000AFF860B9607A603B606FF08503184646
:1020C0001437BD4680BC704780B485B000AFF8605F
:1020D000B9607A603B606FF0850318461437BD46DF
:1020E00080BC704780B485B000AFF860B9607A609A
:1020F0003B606FF0850318461437BD4680BC7047BF
:1021000080B485B000AFF860B9607A603B606FF072
:10211000850318461437BD4680BC704780B485B02F
:1021200000AFF860B9607A603B606FF085031846D5
:102130001437BD4680BC704780B485B000AFF860EE
:10214000B9607A603B606FF0850318461437BD466E
:1021500080BC704780B485B000AFF860B9607A6029
:102160003B606FF0850318461437BD4680BC70474E
:1021700080B485B000AFF860B9607A603B606FF002
:10218000850318461437BD4680BC704780B485B0BF
:1021900000AFF860B9607A603B606FF08503184665
:1021A0001437BD4680BC704780B485B000AFF8607E
:1021B000B9607A603B606FF0850318461437BD46FE
:1021C00080BC704780B485B000AFF860B9607A60B9
:1021D0003B606FF0850318461437BD4680BC7047DE
:1021E00080B485B000AFF860B9607A603B606FF092
:1021F000850318461437BD4680BC704780B485B04F
:1022000000AFF860B9607A603B606FF085031846F4
:102210001437BD4680BC704780B485B000AFF8600D
:10222000B9607A603B606FF0850318461437BD468D
:1022300080BC704780B485B000AFF860B9607A6048
:102240003B606FF0850318461437BD4680BC70476D
:1022500080B485B000AFF860B9607A603B606FF021
:10226000850318461437BD4680BC704780B485B0DE
:1022700000AFF860B9607A603B606FF08503184684
:102280001437BD4680BC704780B485B000AFF8609D
:10229000B9607A603B606FF0850318461437BD461D
:1022A00080BC704780B485B000AFF860B9607A60D8
:1022B0003B606FF0850318461437BD4680BC7047FD
:1022C00080B485B000AFF860B9607A603B606FF0B1
:1022D000850318461437BD4680BC704780B485B06E
:1022E00000AFF860B9607A603B606FF08503184614
:1022F0001437BD4680BC704780B485B000AFF8602D
:10230000B9607A603B606FF0850318461437BD46AC
:1023100080BC704780B485B000AFF860B9607A6067
:102320003B606FF0850318461437BD4680BC70478C
:1023300080B485B000AFF860B9607A603B606FF040
:10234000850318461437BD4680BC704780B485B0FD
:1023500000AFF860B9607A603B606FF085031846A3
:102360001437BD4680BC704780B485B000AFF860BC
:10237000B9607A603B606FF0850318461437BD463C
:1023800080BC704780B485B000AFF860B9607A60F7
:102390003B606FF0850318461437BD4680BC70471C
:1023A00080B485B000AFF860B9607A603B606FF0D0
:1023B000850318461437BD4680BC704780B485B08D
:1023C00000AFF860B9607A603B606FF08503184633
:1023D0001437BD4680BC704780B485B000AFF8604C
:1023E000B9607A603B606FF0850318461437BD46CC
:1023F00080BC704780B485B000AFF860B9607A6087
:102400003B60FA68BB689A420DD3FA687B689A42CF
:1024100009D83A68BB699A4205D33A68FB699A427F
:1024200001D8012300E0002318461437BD4680BCC4
:10243000704780B588B002AFF860B9607A603B60E1
:1024400001230193002300933B6801220121B86816
:10245000FFF7D0FF034683F00103DBB2002B02D06D
:102460006FF0800311E0FB685B68342B02D06FF0E3
:1024700080030AE07B681B687B617B685B683B616B
:102480003969786903F0E4FA034618461837BD46FF
:1024900080BD80B500AF04F04FFA0023184680BD20
:1024A00080B582B000AF7860FFF7F3FF03461846AF
:1024B0000837BD4680BD80B483B000AF78606FF050
:1024C000850318460C37BD4680BC704780B5AEB05A
:1024D00000AF78600023C7F8B4300023C7F8B030ED
:1024E00007F1980300221A605A6007F19003002256
:1024F0001A605A6000233B6507F154033C22002117
:102500001846FFF751F800233B6107F114033C2202
:1025100000211846FFF748F80023FB600123C7F8A5
:10252000A4300023C7F8A0300423C7F8AC3004233C
:10253000C7F8A83004E0D7F8AC30013BC7F8AC309E
:10254000D7F8AC30002B0ED0D7F8AC305A1E7B68D1
:10255000043253F82230002BEDD004E0D7F8A83035
:10256000013BC7F8A830D7F8A830002B08D0D7F81F
:10257000A8305A1E7B68083253F82230002BEDD069
:10258000D7F8AC30002B07D0D7F8AC30022B03D8EB
:10259000D7F8A830012B01D901236DE07B6858687A
:1025A00007F10C020423002106F040FD0346C7F8A2
:1025B000A030D7F8A030042B02D06FF080035BE08E
:1025C000D7F8AC30012B27D97B685B69402B02D947
:1025D0006FF0800350E07B6858687B685B6907F1A7
:1025E0005002012106F022FD0346C7F8A0307B68A7
:1025F0005A69D7F8A0309A4202D06FF080033BE0CE
:1026000007F15003C7F898307B685B69C7F89C30C6
:1026100007F19803C7F8B430D7F8A830002B12D0D0
:102620007B681B6A402B02D96FF0800324E007F11E
:102630001003C7F890307B681B6AC7F8943007F125
:102640009003C7F8B030FB68D7F8B020D7F8B410C3
:10265000184604F075F9C7F8A400D7F8B030002B7D
:1026600008D07B685868D7F89020D7F894300021BC
:1026700006F0E8FCD7F8A4301846B837BD4680BD50
:1026800080B590B000AF7860396007F10C0319464F
:10269000786806F0C5FCF863FB68B3F57D7F26DA41
:1026A00040F2F23293420FDA002B0DD0002B1EDCE9
:1026B00013F1020F15D0B3F1FF3F18D13B69002190
:1026C000184606F0C4FC15E007F10C023B68104602
:1026D00098470346FB633B69F96B184606F0B7FC65
:1026E00008E03B690021184606F0B1FC02E006F064
:1026F000BDFC00BF00BF4037BD4680BD80B582B085
:1027000000AF4FF000414FF0FF3006F083FC7860DF
:102710007B6803F01003002B04D00E491020FFF754
:10272000AFFFEEE77B6803F02003002B04D00A49DB
:102730002020FFF7A5FFE4E77B6803F04003002BB0
:1027400004D006494020FFF79BFFDAE706F08EFC35
:10275000D7E700BFA1240000CD240000B72400006B
:10276000312300004D230000DD220000F92200008B
:10277000C12200001523000069230000852300000A
:10278000A1230000BD230000991E0000B51E00001B
:10279000F11D00000D1E0000291E0000451E000056
:1027A000611E00007D1E0000791F0000951F0000C3
:1027B000D11E0000ED1E0000091F0000251F0000B3
:1027C000411F00005D1F0000B91D0000D51D000065
:1027D0002D1D0000491D0000F51C0000111D00000A
:1027E000651D0000811D00009D1D0000B11F00003F
:1027F000CD1F0000E91F0000052000005920000047
:102800007520000091200000C9200000AD200000CC
:102810003D200000E52000002120000001210000F3
:102820001D21000039210000552100007121000008
:102830008D210000A9210000C5210000E121000038
:10284000FD2100003522000089220000192200002D
:10285000512200006D220000A52200003324000058
:10286000D92300000000000000000000000000006C
:102870000000000000000000000000000000000058
:1028800010B5054C237833B9044B13B1044800E06C
:1028900000BF0123237010BDB031002000000000F4
:1028A0009098000008B5034B1BB10349034800E0B2
:1028B00000BF08BD00000000B43100209098000067
:1028C000A3F5803A704700BF174B002B08BF134B8E
:1028D0009D46FFF7F5FF00218B460F461348144A2B
:1028E000121AFEF761FE0E4B002B00D098470D4BDD
:1028F000002B00D098470020002104000D000D4857
:10290000002802D00C4800E000BFFDF715FD2000B4
:10291000290000F099FAFDF7E9FC00BF000008006B
:102920000000000000000000000C002040300020EB
:10293000BC4A0020000000000000000080B500AF8D
:1029400001F08FFB00BF80BDFFF7F8FFFEE700BF7F
:1029500080B500AF01F085FB00BF80BDFFF7F8FF39
:10296000FEE700BF80B500AF01F07BFB00BF80BD7C
:10297000FFF7F8FFFEE700BF80B500AF01F071FB85
:1029800000BF80BDFFF7F8FFFEE700BF80B500AFD6
:1029900001F067FB00BF80BDFFF7F8FFFEE700BF57
:1029A00080B400AFBFF34F8F00BF064BDB6803F46A
:1029B000E0620449044B1343CB60BFF34F8F00BF69
:1029C00000BFFDE700ED00E00400FA0580B483B02D
:1029D00000AF0F4B1B687B600E4B1B683B60BFF367
:1029E0004F8F00BF7B68092B0CD13B68012B03D0B4
:1029F0003B68022B02D003E0012304E0012302E044
:102A0000012300E0002318460C37BD4680BC704708
:102A10003001FF003401FF0080B483B000AF0F4BE2
:102A20001B687B600E4B1B683B60BFF34F8F00BF82
:102A30007B68092B0CD13B68012B03D03B68022B30
:102A400002D003E0012304E0002302E0002300E0C1
:102A5000002318460C37BD4680BC70473001FF008C
:102A60003401FF0080B483B000AF0F4B1B687B6064
:102A70000E4B1B683B60BFF34F8F00BF7B68092B79
:102A80000CD13B68012B03D03B68022B02D003E042
:102A9000002304E0012302E0012300E000231846A4
:102AA0000C37BD4680BC70473001FF003401FF0089
:102AB00080B483B000AF0F4B1B687B600E4B1B686C
:102AC0003B60BFF34F8F00BF7B68092B0CD13B6885
:102AD000012B03D03B68022B02D003E0012304E06A
:102AE000002302E0002300E0002318460C37BD4617
:102AF00080BC70473001FF003401FF0080B483B018
:102B000000AF0F4B1B687B600E4B1B683B60BFF335
:102B10004F8F00BF7B68092B0CD13B68012B03D082
:102B20003B68022B02D003E0012304E0012302E012
:102B3000012300E0002318460C37BD4680BC7047D7
:102B40003001FF003401FF0080B400AF034B044AA2
:102B50001A6000BFBD4680BC704700BF202F002018
:102B60000090D00380B582B000AF694B1B68684A03
:102B700043F002031360FFF729FF0346002B09D03F
:102B80004FF050230022C3F814214FF050230022AD
:102B9000C3F81821FFF740FF0346002B06D05D4B1A
:102BA00001221A605C4B0122C3F87825FFF75AFF17
:102BB0000346002B03D0584B0122C3F87825FFF7BA
:102BC00077FF0346002B02D0544B0E221A60FFF70A
:102BD00095FF0346002B05D0514B00221A60514B44
:102BE00001221A6000237B6011E04FF47F024FF452
:102BF0007F017B68603351F8333019467B6860335E
:102C0000DB0013445B680B607B6801337B607B688F
:102C1000FF2B0ED87B68DB0003F57F0303F54073C1
:102C2000184600F0B3F8034683F00103DBB2002B33
:102C3000DBD100F093F80346002B04D100F07EF8BE
:102C40000346002B55D000BF374BD3F80034012B7F
:102C5000FAD1354B0122C3F8042500BF324BD3F81B
:102C60000034012BFAD100F079F80346002B16D07E
:102C70002E4BDB692E4A13602D4B1B6823F001039A
:102C80002C4A1360294A2B4B1B68D361BFF34F8F2B
:102C900000BF00BF244BD3F80034012BFAD100F061
:102CA0004DF80346002B18D0204B1B6A204A1360B6
:102CB0001F4B1B6823F0FF0343F020031D4A1360E2
:102CC0001A4A1C4B1B681362BFF34F8F00BF00BF33
:102CD000154BD3F80034012BFAD1134B0022C3F863
:102CE000042500BF104BD3F80034012BFAD1FFF7B5
:102CF00057FE114BD3F88C300F4A43F44063C2F8AF
:102D00008C30FFF721FF00BF0837BD4680BD00BFF4
:102D1000D0ED00E0384A005000400050E4AE0350CF
:102D20000C47005010470050009003500080FF00F7
:102D3000E0360020E436002000ED00E080B500AF72
:102D4000054800F023F80346002B01D0012300E0E2
:102D50000023184680BD00BF2080FF0080B483B0F0
:102D600000AF094BDB697B60BFF34F8F00BF7B680F
:102D700003F00103002B01D0012300E000231846DB
:102D80000C37BD4680BC70470080FF0080B485B022
:102D900000AF78607B681B68FB60BFF34F8F00BF9C
:102DA000FB68B3F1FF3F0CBF01230023DBB21846E1
:102DB0001437BD4680BC704780B485B000AF7860E2
:102DC0007B68FB60FB6883F30A8800BF00BF143791
:102DD000BD4680BC704780B582B000AF43F65C232F
:102DE0007B6043F6DA333B6002F0BEFE38603B683E
:102DF000002B01D01F2323E003F052FD38603B6815
:102E0000002B01D01F231BE003F064FD78607B687A
:102E1000002B01D01F2313E003F063FD0346002BBA
:102E200007D003F065FD78607B68002B03D01F237B
:102E300006E003F064FD01F0F5FA01F075FB0023F4
:102E400018460837BD4680BD80B582B000AF4FF050
:102E5000FF337B600B4B1846FFF7AEFFFFF7BBFF5E
:102E600078607B68002B01D001F05CFC01F0A6FAD1
:102E700001F0DEFA01F0F2F8002318460837BD46EB
:102E800080BD00BF0004002090B587B000AF78601F
:102E900039603B687B610F4B1B685B68103B3B6193
:102EA0003B693A681A623B690B4A5A627C687B69E3
:102EB00018687B6959687B699A687B69DB68A047F9
:102EC000F860F86800F077F8FB6818461C37BD46D4
:102ED00090BD00BFF4360020EDEEEEEE80B584B07C
:102EE00000AF786039600E4B1B685B68103BFB607D
:102EF0003B68BB60FB685B6A0A4A934202D17A680E
:102F0000BB681A6001F0B4F80246054B1B689A4290
:102F100001D001F063FC00BF1037BD4680BD00BF8B
:102F2000F4360020EDEEEEEE80B586B000AFF8602E
:102F3000B9607A60EFF305837B617B693B613B8A13
:102F4000C3F308039BB2002B01D001F0EBFB7B68BD
:102F5000002B03D00A4B1B681A6800E000227B6834
:102F6000002B03D0064B1B685B6800E00023B968A8
:102F7000F86801F0ABF900BF1837BD4680BD00BF4F
:102F8000F036002080B483B000AFEFF3108372B648
:102F90007B607B6818460C37BD4680BC704780B4A8
:102FA00083B000AF78607B6883F3108800BF0C3774
:102FB000BD4680BC704780B582B000AF78607B684A
:102FC00013F1810F03D07B6813F1820F09D101F057
:102FD0006FFF034683F00103DBB2002B01D001F049
:102FE000A1FB00BF0837BD4680BD80B400AF002301
:102FF0001846BD4680BC704780B400AF40F2011354
:103000001846BD4680BC704780B584B000AF78607C
:1030100001F04EFF0346FB73786801F02FFDB860A6
:10302000BB68002B01D100230DE0FB7B1A46B96879
:10303000786801F0A3FD0346002B01D0002302E0D5
:10304000BB681B68DB6818461037BD4680BD0000B2
:1030500080B5A8B006AFF860B9607A603B60002325
:103060003B6101F025FF034687F87730BB681B0CF6
:103070001BB23B67BB681B0ADBB2FB66BB68DBB2FB
:10308000BB663B6F002B02DA6FF0800386E1FB6EBC
:10309000042B07D8BB6E042B04D8FA6EBB6E134406
:1030A000042B02D96FF0800378E1FB68002B02D17A
:1030B0006FF0800372E197F87730184601F014FF43
:1030C0007866FB6803F08043002B54D0FB68DBB2CA
:1030D0003B663B6E1F2B02D96FF080035EE1B14A65
:1030E0003B6E52F82330C7F88030D7F88030002B81
:1030F00002D16FF0800351E1D7F880301B685B6824
:10310000FB6597F877301A46D7F88010F86D01F014
:1031100035FD0346002B02D06FF081033EE1FB68D2
:103120001B12DBB2BB65B96DD7F8800001F0F4FC6F
:103130000346002B02D06FF080032FE1FFF722FF40
:1031400003463B6101F0F4FBC7F884003B69184675
:10315000FFF725FFD7F88430002B02D16FF08203F0
:103160001CE1D7F8843000221A60D7F8840001F0FF
:10317000A7FBF86020E0796EF86801F04DFDC7F814
:103180008400D7F88430002B02D16FF0800305E172
:10319000D7F884305B68002B02D06FF08003FDE02D
:1031A000D7F88430DB68C7F88030D7F88030002B40
:1031B00002D16FF08003F1E001237B65FB6ED90043
:1031C00097F877207B6D00930123786801F01EFE4D
:1031D0000346002B02D06FF08003DFE0BB6ED90006
:1031E00097F877207B6D00930223386801F00EFE7C
:1031F0000346002B02D06FF08003CFE007F13403C9
:1032000020220021184601F046FA07F1140320227B
:103210000021184601F03FFAFB6EDA0007F1340393
:103220007968184601F0D8F9BB6EDA0007F114038B
:103230003968184601F0D0F90023FB671DE0FB6FE9
:10324000DB0007F18802134453F8540CFB6FDB00DA
:1032500007F18802134453F8501C97F877207B6DD0
:103260000093012301F0D2FD0346002B02D06FF042
:10327000800393E0FB6F0133FB67FB6FFA6E9A42AA
:10328000DDD80023FB6740E0FB6F0133BB6735E00F
:10329000BB6FDB0007F18802134453F8542CBB6F5B
:1032A000DB0007F188010B4453F8503C1A44FB6FD4
:1032B000DB0007F188010B4453F8543C9A421AD9B9
:1032C000BB6FDB0007F18802134453F8542CFB6FEB
:1032D000DB0007F188010B4453F8541CFB6FDB0043
:1032E00007F18800034453F8503C0B449A4202D241
:1032F0006FF0800352E0BB6F0133BB67BB6FFA6EA8
:103300009A42C5D8FB6F0133FB67FB6F01331A4646
:10331000FB6E9342B8D80023FB671DE0FB6FDB0018
:1033200007F18802134453F8740CFB6FDB0007F1BC
:103330008802134453F8701C97F877207B6D009334
:10334000022301F063FD0346002B02D06FF08003DF
:1033500024E0FB6F0133FB67FB6FBA6E9A42DDD846
:103360003B680593BB6E049307F114030393FB6E54
:10337000029307F1340301937B6E00933B6FFA686D
:10338000D7F88010D7F8840001F086FC064B9B68C4
:10339000D7F88410D7F88000984703461846883736
:1033A000BD4680BD103700204491000080B58EB02E
:1033B00006AF7860396001F07BFD0346FB770023A0
:1033C000BB60786801F05AFBB861BB69002B02D181
:1033D0006FF0810352E0BB691B689B6803F40073C4
:1033E000002B02D06FF0800348E0FB7F1A46B969DA
:1033F000786801F0C3FB0346002B02D06FF0810315
:103400003CE03968B86901F087FB0346002B02D025
:103410006FF0810332E0FB7F184601F065FD7861B3
:10342000FFF7B0FD0346BB6001F082FA3861BB686C
:103430001846FFF7B4FD3B69002B02D16FF0820301
:103440001CE0386901F03CFAF86000230593002382
:1034500004930023039300230293002301937B69C9
:1034600000934FF0FF33FA68B969386901F014FC32
:10347000044B9B683969B86998470346184620375A
:10348000BD4680BD4491000080B58CB006AF786029
:1034900001F00EFD0346FB757B68002B01D1002374
:1034A00040E07B6803F08043002B02D06FF0800384
:1034B00038E0FB7D184601F017FD386139697868FE
:1034C00001F0AAFBF860FB68002B02D16FF08003CB
:1034D00028E0FB68DB68BB60BB68002B02D16FF0A3
:1034E00080031FE0FB685B68012B02D16FF0800353
:1034F00018E0002305930023049300230393002383
:103500000293002301933B6900936FF001037A68F3
:10351000B968F86801F0C0FB044B9B68F968B868AB
:103520009847034618461837BD4680BD44910000B1
:1035300080B584B000AF786039600023FB603B68E1
:1035400003F000433B60104B1B685B68103BFB6063
:10355000FB689A6A7B681340002B01D101F0E2F806
:103560003B68B3F1004F06D1084B1B697968F868D6
:103570009847034603E0FB681A6B7B6813401846C4
:103580001037BD4680BD00BFF436002044910000D6
:1035900080B588B002AF7860396000237B6100237A
:1035A0003B617B68002B05D07B685A1E7B6813400B
:1035B000002B01D001F0B6F81C4B1B685B68103B78
:1035C0003B610123FB60FB68009302230022302152
:1035D000386801F01BFC0346002B01D001F0A2F873
:1035E0003B691B6B002B01D101F09CF83B691A6B06
:1035F0007B681340002B01D101F094F87968386999
:1036000001F0F0F978617B69002B02D16FF08B0338
:1036100007E07B69183330221946386800F0DCFF78
:10362000002318461837BD4680BD00BFF436002081
:1036300080B58AB002AFF860B9607A603B60002361
:10364000FB61F86801F005FBF861FB69002B01D113
:1036500001F068F80123BB61FB699B69002B01DA6B
:1036600001F060F8BB68032B01D901F05BF8FB693E
:10367000BA680A3253F82230002B01D1002339E016
:10368000BB690093022300223968786801F0BEFB11
:103690000346002B01D001F045F8FB69BA680A32F5
:1036A00053F822303A68934228BF13467B61FB6986
:1036B000BA68093253F832307A691946786800F0EE
:1036C0008BFFFB69BA68093253F832207B69D11845
:1036D000FB69BA68093243F83210FB69BA680A32EA
:1036E00053F822207B69D11AFB69BA680A3243F881
:1036F00022107B6918462037BD4680BD80B586B054
:1037000000AFF860B9607A6000237B61F86801F06F
:10371000A0FA78617B69002B01D101F003F87B6985
:103720009B69002B01DA00F0FDFFBB68032B01D978
:1037300000F0F8FF7B69BA680A3253F82230002B98
:1037400001D1002326E07B69BA680A3253F822309F
:103750007A689A4205D97B69BA680A3253F82230EE
:103760007B607B69BA68093253F832207B68D118D4
:103770007B69BA68093243F832107B69BA680A3249
:1037800053F822207B68D11A7B69BA680A3243F861
:1037900022107B6818461837BD4680BD80B588B0BA
:1037A00002AFF860B9607A603B6000237B61F86823
:1037B00001F04FFA78617B69002B01D100F0B2FF74
:1037C00001233B617B699B69002B01DA00F0AAFFB2
:1037D000BB68032B01D900F0A5FF7B69BA680E32E4
:1037E00053F822207969BB680D33DB000B445B681A
:1037F000D31A3A689A4201D900F094FF3B690093CA
:10380000012300223968786801F000FB0346002B91
:1038100001D000F087FF7B69BA680D3253F832207F
:103820007969BB680D33DB000B445B6813443A686D
:103830007968184600F0D0FE7A69BB680D33DB006A
:1038400013445A683B681A447969BB680D33DB003E
:103850000B445A6000BF1837BD4680BD80B586B0A6
:1038600000AF7860396000237B610023BB6078681B
:1038700001F0EFF938613B69002B01D100F052FFF4
:103880003B69DB68FB60FB68002B01D100F04AFF5D
:103890003B699B6913F1020F1ED0B3F1FF3F1FD1AB
:1038A0003B68002B02D17B687B612FE03B6813F102
:1038B000820F06D16FF081037B613B6902225A605F
:1038C00024E03B6813F1830F03D16FF082037B6127
:1038D0001CE000F027FF19E03B6902225A6015E066
:1038E0003B699B69002B0FDB3B687B61386901F00A
:1038F000E1FBFB681B689B6803F40073002B05D099
:103900003B6902225A6001E000F00CFF7B6913F171
:10391000810F05D13B691B6A002B01DB00F002FF20
:10392000FFF730FB0346BB600C4BDB6879693869F5
:1039300098477861BB681846FFF731FB3B695B68C5
:10394000022B03D1386901F02DF802E03B69002217
:103950005A607B6918461837BD4680BD4491000007
:1039600080B584B000AF7860786801F0B7F8F8608F
:103970000821F86801F0E4FB00BF1037BD4680BDA8
:1039800080B582B000AF00233B6000237B600F4B0B
:103990001B685B68103B7B607B681B6B03F0080354
:1039A000002B01D100F0BEFEFFF7ECFA03463B60AE
:1039B0007B681B6B23F008027B681A633B68184620
:1039C000FFF7EDFA00BF0837BD4680BDF436002092
:1039D00080B500AF02F0DEFF00BF80BD80B584B0CF
:1039E00000AF78603960786801F033F9F860FB68FF
:1039F000002B01D100F096FEFB68DB681B689B681A
:103A000003F40073002B01D000F08CFEFB683A68D1
:103A10005A62FB683A681A6000BF1037BD4680BD25
:103A200080B483B000AFEFF3108372B67B607B6825
:103A300018460C37BD4680BC704780B483B000AFD9
:103A400078607B6883F3108800BF0C37BD4680BC6C
:103A5000704780B48BB000AF78607B681B68FB61F7
:103A6000FB699B699A00FB6913443033BB617B6837
:103A700010337B6108237B62FB699B6803F400734E
:103A8000002B05D1FB69DB699B007A6A13447B62DA
:103A90007B699A687B6A073323F007031A447B69C2
:103AA0009A607B691A687B699B68D21A7B691A6085
:103AB0007B691B683B61FB69DA683B691A603B699B
:103AC00000225A603B690833FB60FB699B6803F482
:103AD0000073002B1DD100233B6211E03A6A1346AC
:103AE0005B001344DB001A46BB69134419693B6A47
:103AF0009B00FA6813440A461A603B6A01333B6232
:103B0000FB69DA693B6A9A42E8D8FB69DA693B6982
:103B10005A607B683A69DA6000BF2C37BD4680BCCA
:103B20007047000080B586B000AF78603960002330
:103B30007B6100233B610023FB603B68002B0AD0C4
:103B40007B68002B07D07B681B68002B03D07B6849
:103B50005B68002B02D16FF0800340E07B685B68FC
:103B60007B617B681B685B693B61FFF759FF03461C
:103B7000FB607B699A6C3B68C3F88C207B693A6870
:103B80009A647B691A6B3B691A437B691A637B6988
:103B9000DA6A3B691340002B11D07B6903F13400D2
:103BA0007B691A6B7B69DB6A1340194600F036FBB0
:103BB0007B69DA6A3B69DB431A407B69DA62FB683E
:103BC0001846FFF73AFF3B681033074A1268114660
:103BD000184600F007FB3B6801225A600023184694
:103BE0001837BD4680BD00BFF436002080B582B0D6
:103BF00000AF786039607B6810333A681146184628
:103C000000F00CFB002318460837BD4680BD0000BD
:103C100080B584B000AF786039607B681B68FB605A
:103C20007B689B6A43F008027B689A627B689A6AA9
:103C30003B681A437B689A627B68294A5A637B68AF
:103C400000229A637B68002B02D07B6800229A6472
:103C5000FB6828331A68FB681B69134423F00702CA
:103C60007B681A61FB6828331B68073323F007025F
:103C70007B685A617B6800229A617B680022DA6166
:103C80007B6800221A627B68164A5A627868FFF7DE
:103C9000E0FEFB689B68DAB27B6883F83C207B68B7
:103CA000002283F83D207B680022DA877B6803F1DD
:103CB00010027B681A64FB685B68002B03D17B6889
:103CC0001033094A13607B683C336FF001020749E7
:103CD000184600F01FFA00BF1037BD4680BD00BF78
:103CE0006A626F73EDEEEEEEF036002025170000ED
:103CF00080B582B000AF0D4800F05AFA78600B4BE7
:103D00001B685B68103B3B603B681A683B685B68FC
:103D10001946104601F0DCFF0346002B01D000F0ED
:103D200001FD7B6818460837BD4680BDF43600208B
:103D300080B584B000AF786039600023BB60FFF7C6
:103D40006FFE0346BB607B681B6B3A681340FB60E9
:103D5000FB68002B0AD17B683A68DA627B683433EF
:103D6000074A12681146184600F03CFABB6818462C
:103D7000FFF763FEFB6818461037BD4680BD00BFE5
:103D8000F436002080B582B000AF78607B6803F124
:103D900034007B681A6B7B68DB6A1340194600F0BD
:103DA0003DFA7B680022DA6200BF0837BD4680BD5D
:103DB00080B483B000AF78607B6803F04003002BD1
:103DC00014BF01230023DBB218460C37BD4680BC6C
:103DD0007047000080B586B000AF0346B9607A60D6
:103DE000FB7300237B61FB7B102B00F2BE8001A2E2
:103DF00052F823F0393E0000413E0000EF3E000043
:103E00004F3E0000053F0000553F0000293F0000E5
:103E1000133F0000713E0000933E0000AF3E0000E3
:103E20003F3F0000CF3E0000DB3E00006B3F000044
:103E3000E13E0000E73E0000FFF7DEF803469BE0AE
:103E4000BB681B681846FFF7DFF8034694E0BB68C1
:103E50001B681846BB6804331968BB6808331B68C5
:103E60001A46BB680C331B68FFF7F2F878617FE0F5
:103E7000BB681B681846BB6804331968BB68083305
:103E80001B681A46BB680C331B68FFF7D1FB03465F
:103E900072E0BB681B681846BB6804331968BB68CE
:103EA00008331B681A46FFF729FC034664E0BB6829
:103EB0001B681846BB6804331968BB6808331B6865
:103EC0001A46BB680C331B68FFF768FC50E0BB6800
:103ED0001B681846FFF744FD4AE0FFF751FD47E035
:103EE000FFF776FD44E0FFF780F8034644E0BB6847
:103EF0001A68BB6804331B6819461046FFF756FA68
:103F0000786135E0BB681B681846FFF7BDFA786139
:103F10002EE0BB681B681A46BB6804331B68194651
:103F20001046FFF75BFD23E0BB681A68BB680433EB
:103F30001B6819461046FFF72BFB03461CE0BB68C5
:103F40001B681A46BB6804331B6819461046FFF706
:103F500085FC0DE0BB681A68BB6804331B68194612
:103F60001046FFF7E5FA034606E06FF0830303E02F
:103F70007869FFF720F87B6918461837BD4680BD81
:103F800080B586B000AFF860B9607A600023FB7539
:103F9000FB683B61BB6803F00803002B06D0BB68DD
:103FA00003F00403002B01D07B683B61B868FFF786
:103FB000FFFE0346002B06D03B6918331B68023B0B
:103FC0001B78FB7501E000F0ADFBBB6803F0080354
:103FD000002B0CBF01230023DAB297F91730DBB2B4
:103FE000DB09DBB25340DBB2002B01D000F09AFBBF
:103FF000FB7D402B0AD0412B0CD100F091FFB86023
:10400000144BB968184600F0C1FB1EE0386900F097
:1040100097FA1AE00F4AFB68D31A082B01D900F06F
:1040200081FBFB7DBA6839691846FFF7D3FE03466A
:104030001A463B691A6000F01BF80246064B1B68E3
:104040009A4201D000F0CAFB00BFBB68184618377F
:10405000BD4680BD000C0020F436002041DF7047D3
:1040600000BF80B500AF00F05DFB00BF80BD000069
:1040700080B483B000AF0A4B1B687B6002E07B68B2
:104080009B687B607B68002B03D07B685B78012B8F
:10409000F5D17B6818460C37BD4680BC704700BF21
:1040A000FC36002080B485B000AF786039607B6852
:1040B0001B68002B06D03B681A787B681B681B784E
:1040C0009A4207D87B681A683B689A607B683A68AE
:1040D0001A6019E07B681B68FB6002E0FB689B6864
:1040E000FB60FB689B68002B06D03B681A78FB6876
:1040F0009B681B789A42F1D8FB689A683B689A6083
:10410000FB683A689A6000BF00BF1437BD4680BCA8
:104110007047000080B584B000AFF860B9607A6085
:10412000FB68002B00D1FEE7F9680948FFF7BAFFEA
:10413000FB685868B9687B68002200F05DFB0121CC
:10414000F86800F007F800BF1037BD4680BD00BF1B
:10415000F836002080B483B000AF786039607B68A7
:10416000002B00D1FEE73B68DAB27B685A707B68AF
:104170005B78012B0ED10C4B1B68002B06D07B68A3
:104180001A78094B1B681B789A4203D2064A7B684F
:10419000136004E0054B1B68034A136000BF00BFB7
:1041A0000C37BD4680BC7047FC360020F836002036
:1041B00080B584B000AF7860FFF75AFFF86000F078
:1041C0000DFB7B68002B02D07B68FA681A60FB68E5
:1041D0005B68184600F03FFB034618461037BD46A3
:1041E00080BD000080B582B000AF786039607B6828
:1041F000002B04D07B681B68074A934200D0FEE77F
:104200007B683A685A6002213868FFF7A3FF00BF55
:104210000837BD4680BD00BF6A626F7380B582B04B
:1042200000AF786039607B68002B04D07B681B6826
:10423000104A934200D0FEE77B685B68002B14D0E5
:104240007B685B685B78022B0FD17B685B68012120
:104250001846FFF77FFF7B685B685B683968184624
:1042600000F09CFA7B6800225A6000BF0837BD4608
:1042700080BD00BF6A626F7380B483B000AF034635
:104280003960FB7197F90730002B0ADB3B68DAB223
:104290000C4997F907305201D2B20B4483F800233E
:1042A0000AE03B68DAB20849FB7903F00F03043BEC
:1042B0005201D2B20B441A7600BF0C37BD4680BC07
:1042C000704700BF00E100E000ED00E070B572B69D
:1042D0001446EFF30B855FF0000C002A1FBF8CF330
:1042E0000B886C46954683F30B880D4A01231360B7
:1042F00062B60E46FEF7C8FD72B63146FEF7EEFD19
:104300005FF0000C002C1EBF8CF30B88A54685F3D4
:104310000B88034C0025256062B670BD00BF00000D
:1043200000370020402010EA0E0018D001B500F040
:1043300057FEBDE80440884211D072B6EFF30982FF
:10434000EFF30B8322E9F00F80E81C4091E81C405A
:10435000B2E8F00F82F3098883F30B8862B67047E6
:1043600000BF0000EFF308807146EFF30982EFF31E
:104370000B830CB406B4FFF703FE864606BC0CBCE8
:1043800000F0080001F00801401A01DC0DDB704765
:104390000CB42DE9F00F084C254626462746A046CA
:1043A000A146A246A34630B4704730BCBDE8F00F2A
:1043B00006BC704700BF0000A5EDF5FE80B584B0D7
:1043C00000AF174BFB60FB68DB68BB60BB68DB437F
:1043D0001B0C1B047B60BB689AB27B68134343F4DD
:1043E0008042FB68DA6000216FF00B00FFF744FFAA
:1043F00000216FF00A00FFF73FFF00216FF0080077
:10440000FFF73AFF00216FF00400FFF735FF0321AB
:104410006FF00100FFF730FF00BF1037BD4680BDD1
:1044200000ED00E080B400AF00BFBD4680BC704727
:10443000EFF3148030F0040080F31488BFF36F8F23
:10444000704700BF90B583B000AF0A4C01F0C0FECA
:104450000346A36001F0C6FE03467B607B6883F3DE
:10446000888800BF01F0CAFE034618460C37BD46D7
:1044700090BD00BF00ED02E0FFF7E4FF009A0B4B98
:104480009A4210D1044601229443204621462246F6
:104490002346254626462746A046A146A246A346D1
:1044A000A446A6460447FEE700BF0000A5EDF5FEC2
:1044B00080B500AF00214FF0FF3004F0ABFD0346A4
:1044C000002BF7D130BFF5E780B586B000AF0346CB
:1044D000FB714FF0FF333B610023FB6000F07AFC7F
:1044E000B86000237B6114E00E4A7B6952F83330D8
:1044F000BA689A420AD1FA790A497B69DB000B440F
:104500005B689A4202D100233B6106E07B6901337C
:104510007B617A69FB689A42E6D33B691846183793
:10452000BD4680BD5C91000080B400AF034B01220A
:104530001A6000BFBD4680BC704700BF0437002032
:1045400080B58AB002AF78607B681B68FB777B68B8
:1045500004331B68BB617B6808331B68FB82012343
:104560003B61F98A3B69009302230022B86900F09D
:104570004DFC0346002B03D07B6803221A6026E023
:10458000144B1B68012B03D07B6803221A601EE0CA
:10459000FB7F1846FFF798FF0346002B03D07B688C
:1045A00003221A6013E0FB8A032B03D87B680322E3
:1045B0001A600CE0BB69FB60FB6842F216021A80CD
:1045C000FB6804225A807B6800221A6000BF2037F3
:1045D000BD4680BD0437002080B487B000AFF860CE
:1045E000B9607A60FB687B61BB683B610AE03A694D
:1045F000531C3B617B69591C796112781A707B6886
:10460000013B7B607B68002B15D07B6903F00103C5
:10461000002BECD13B6903F00103002BE7D10AE04A
:104620003A69931C3B617B69991C796112881A80F5
:104630007B68023B7B607B68012B15D97B6903F0AB
:104640000203002BECD13B6903F00203002BE7D1FE
:104650000AE03A69131D3B617B69191D7961126893
:104660001A607B68043B7B607B68032BF1D807E012
:104670003A69531C3B617B69591C796112781A7045
:104680007B685A1E7A60002BF2D1FB6818461C37F3
:10469000BD4680BC704780B487B000AFF860B96099
:1046A0007A60FB683B61BB68DBB21A06BB68DBB2B1
:1046B0001B041A43BB68DBB21B021343BA68D2B2B5
:1046C00013437B6108E03B695A1C3A61BA68D2B275
:1046D0001A707B68013B7B607B68002B0DD03B69C7
:1046E00003F00303002BEED107E03B691A1D3A618A
:1046F0007A691A607B68043B7B607B68032BF4D883
:1047000005E03B695A1C3A61BA68D2B21A707B68FC
:104710005A1E7A60002BF4D1FB6818461C37BD4640
:1047200080BC704780B500AF02F034F900BF80BD97
:1047300080B485B000AF78607B68FB60FB6883F372
:104740000B8800BF00BF1437BD4680BC7047000017
:1047500080B483B000AF78607B6803F00703002B60
:1047600000D0FEE77B68083B7B607B68064A1A60E6
:104770007B6804331A46044B13607B6818460C3779
:10478000BD4680BC704700BFA5EDF5FE8546024AD8
:10479000014B0CB4084700BFA5EDF5FE80B485B011
:1047A00000AF786039607B68FB60FB681B69002B99
:1047B00009D0FB681B691A463B681360FB684FF021
:1047C000EE325A6104E0FB681B681A463B681362CC
:1047D00000BF1437BD4680BC7047000005484FF04D
:1047E00080510160BFF34F8FBFF36F8F704700BFE1
:1047F0001846000004ED00E080B586B000AFF86018
:10480000B9607A603B60FB681B687B617869FFF781
:104810009FFF03463B613B69403B3B6140220021D7
:104820003869FFF738FF7A683B691A623B69BA68F2
:104830009A633B693A685A633B694FF08072DA6366
:10484000FB686FF00202DA603A69FB681A6000BF29
:104850001837BD4680BD80B586B000AF78607B68F4
:104860007B617B691B6820333B617B695B68184611
:10487000FFF75EFF3B69FB60FB6883F3098800BFBD
:104880007B69DB6818461837BD4680BD80B483B0AD
:1048900000AFEFF3108372B67B607B6818460C376D
:1048A000BD4680BC704780B483B000AF78607B6841
:1048B00083F3108800BF0C37BD4680BC70470000F2
:1048C00080B485B000AF78600B4B1B68013303F0F8
:1048D0000703094A13607B68084A12689B1ADA00CA
:1048E000054B1B6813440133FB60FB681846143703
:1048F000BD4680BC704700BF403C0020242F0020F4
:1049000080B485B000AF78607B68002B01D10023B4
:1049100007E07B68013BDB08044A12681344FB6034
:10492000FB6818461437BD4680BC7047242F002012
:1049300080B582B000AF0C4B1B68184600F06CFECF
:1049400078607B68002B01D1002308E090220021D1
:104950007868FFF7A0FE7B6800225A607B681846E3
:104960000837BD4680BD00BF242F002080B582B02F
:1049700000AF7860094B1B687968184600F083FE29
:10498000034683F00103DBB2002B01D0044B00E0AF
:10499000002318460837BD4680BD00BF242F0020E5
:1049A0000500008080B584B000AF78600023FB6014
:1049B0007B68002B00D1FEE7FFF768FF0346FB6032
:1049C000074B1B687968184600F049FEFB681846DB
:1049D000FFF769FF002318461037BD4680BD00BFB2
:1049E000242F002080B588B000AF786039600023A4
:1049F0007B610023FB6000233B61FFF747FF034619
:104A0000FB607B684833BB617B689B6CFB6112E099
:104A1000FB69DB681B685B693A689A4204D1BB6931
:104A20007B613B6901333B61FB698C33BB61FB6993
:104A3000D3F88C30FB61FB69002BE9D17B69002B3B
:104A400012D07B691B68FB617B691B68D3F88C20E3
:104A50007B691A603B69012B06D17B681A6B3B6846
:104A6000DB431A407B681A63FB681846FFF71BFF9D
:104A7000FB6918462037BD4680BD000080B485B074
:104A800000AF78600023FB60134B5B68BB601AE0EB
:104A9000BB681B685B687A689A420FD1FB68002B81
:104AA0000AD0BB689A68FB689A600B4B5A68BB686F
:104AB0009A60094ABB685360BB6808E0BB68FB604A
:104AC000FB689B68BB60BB68002BE1D100231846E4
:104AD0001437BD4680BC70470837002080B485B0CD
:104AE00000AF78600B4B5B68FB600AE0FB681B68FB
:104AF0005B687A689A4201D1FB6806E0FB68DB6C70
:104B0000FB60FB68002BF1D1002318461437BD462B
:104B100080BC7047E836002080B483B000AF786076
:104B200039607B68002B00D1FEE77B681B689B68BF
:104B300003F48063002B03D0B3F5806F08D00FE03F
:104B40007B681B68DB683A689A420BD90A4B0DE018
:104B50007B681B68DB683A689A4205D0064B05E023
:104B6000054B03E000BF00E000BF002318460C37F0
:104B7000BD4680BC704700BF0300008080B588B090
:104B800000AFF860B9601346FB710023BB61BB68DE
:104B9000002B00D1FEE7FB79002B08D0BB681B6817
:104BA0009B6803F48073002B2DD1194B2CE0194B1B
:104BB0001B685B68103BBB61BB69002B01D1FFF731
:104BC000B1FDBB691B6830337B610023FB610AE0E8
:104BD000FB699B007A6913441B68FA689A4209D002
:104BE000FB690133FB61BB691B689A69FB699A42E7
:104BF000EED800E000BFBB691B689A69FB699A4266
:104C000001D1034B00E0002318462037BD4680BD8C
:104C100005000080F436002080B584B000AF7860D5
:104C200039607868FFF76CFEF860F868FFF79EFE61
:104C30000346002B01D0002307E0FB681B6A3A689B
:104C40009A4201D0002300E0FB6818461037BD46A9
:104C500080BD80B584B000AF78607868FFF750FE03
:104C6000F860F868FFF782FE0346002B01D00023AE
:104C70000DE000F0AFF8B860FB68DB685B681B68AC
:104C80005B68BA689A4201D0002300E0FB681846CE
:104C90001037BD4680BD000080B586B000AFF8601B
:104CA000B9607A603B60FB68002B00D1FEE7BB680F
:104CB000002B00D1FEE77B6A002B03D1BB6A002BDF
:104CC00000D0FEE7FB6A002B03D13B6B002B00D02A
:104CD000FEE7BB6A042B00D9FEE73B6B042B00D92F
:104CE000FEE7BA6A3B6B1344042B00D9FEE7FB686E
:104CF0001833302200211846FFF7CDFCFB68334AF9
:104D00001A61FB6800225A61FB68BA68DA60304BAE
:104D10001B685B68103B1A46FB689A60FB687A6BFD
:104D2000C3F88820FB683A6A1A62FB683A689A619D
:104D300000237B6116E07B69DB007A6A13445968C3
:104D4000FB687A690A3243F822107B69DB007A6AD1
:104D500013441968FB687A69093243F832107B6999
:104D600001337B617A69BB6A9A42E4D300237B6199
:104D70001DE07B69DB00FA6A13445968FB687A69B5
:104D80000E3243F822107B69DB00FA6A134419687B
:104D9000FB687A690D3243F83210FA687B690D338B
:104DA000DB00134400225A607B6901337B617A691E
:104DB0003B6B9A42DDD3FB687A68DA61FB681A685C
:104DC000FB685A6200BF1837BD4680BD6A626F73C8
:104DD000F436002080B483B000AF0B4B1B685B68D7
:104DE000103B7B607B68002B07D07B681B68002B27
:104DF00003D07B681B685B6801E04FF0FF33184607
:104E00000C37BD4680BC7047F436002080B586B0B4
:104E100000AFF860B96011461A460B46FB711346A5
:104E2000BB7100237B61BB68002B01D1002337E0FD
:104E3000FB68002B01D11C4B32E0BB68DA43FB68F6
:104E40009A4201D2194B2BE0BB79022B04D17B692A
:104E500043F006037B6103E07B6943F002037B615F
:104E60003B6A002B04D17B6943F008037B6103E0BC
:104E70007B6923F008037B61FB79002B03D07B69FE
:104E800043F020037B61FB687A69B968184601F03A
:104E90000FF838613B69002B01D1002300E0034B80
:104EA00018461837BD4680BD010000800400008010
:104EB00080B582B000AF0B4B1B685B68103B7B601A
:104EC0007B68002B01D1FFF72DFC7B681B685B68BA
:104ED000002B0CBF01230023DBB218460837BD4668
:104EE00080BD00BFF436002080B584B000AF03461B
:104EF000FB71FB79002B03D000F0FEFBF86002E0B1
:104F0000FFF768FFF860FB79FA68D20FD2B29342DC
:104F100001D0FFF707FCFB6818461037BD4680BD7F
:104F200080B584B000AF0023FB60264B18680823CF
:104F3000902240F2AC4100F023FB234B00225A6048
:104F4000224B00225A6000F0DFFB1F4800F068F996
:104F5000B860BB68002B27D0BB681B687B607B6890
:104F6000DB69002B06D08023194A1849B86800F085
:104F7000F9F9F8607B685B6A002B02D0B86800F032
:104F8000A2FABB681A68BB6804331946104600F0E1
:104F90000BFE0346002B01D0FFF7C4FB0D4B1B6833
:104FA000F968B8689847D0E700BF0B4B1B681A46F2
:104FB0000A4B1A60074B5B68984703461846103740
:104FC000BD4680BD242F0020E83600200837002091
:104FD0001037002044910000442F0020903700201B
:104FE00080B58AB000AFFFF743F8786200237B609A
:104FF0002D4B1B685B683B623B6ABB603B6AFB6096
:10500000294B1B685B68103BFB617B6A3C3BBB61C7
:10501000264B1B68012B33D07B6A002B30D0FA69FA
:10502000BB699A422CD03B6A5B6803F12002EFF324
:1050300009837B617B699A4201D9FFF773FBFFF714
:1050400025FC03467B60FB695A68BB695B689A4232
:105050000CD0BB691A68BB695B681946104600F042
:1050600037FE0346002B01D0FFF75CFB7B6A5B68D1
:10507000FB600D4A7B6A13607B681846FFF713FCE0
:105080000B4B1B68002B08D0BB69DB68002B04D0DE
:10509000BB69DA68064B1B681A60D7E90223104621
:1050A00019462837BD4680BDF43600200037002061
:1050B0009037002080B485B000AF78607B681B69B2
:1050C0001E4A934205D07B685B695B78022B00D057
:1050D000FEE70023FB6027E07B68FA680E3253F896
:1050E0002230002B1CD07B68D3F88820FB68DB00C3
:1050F00013441A687B68F9680D3153F831309A42CD
:1051000000D0FEE77B68D3F88820FB68DB001A44F8
:105110007968FB680D33DB000B445B68536000E08B
:1051200000BFFB680133FB60FB68032BD4D900BFD1
:1051300000BF1437BD4680BC704700BF65652121A4
:1051400080B584B000AF786039600023BB607B68B5
:10515000FB60FB68002B01D1FFF7E4FAFFF796FB39
:105160000346BB60FB681A6B3B681A43FB681A6313
:10517000FB68DA6A3B681340002B03D0054B5B6980
:10518000F8689847BB681846FFF78DFB00BF1037DB
:10519000BD4680BD4491000080B582B000AF0A4B8F
:1051A0001B687B60084B1B685033074A1360064B33
:1051B0001A68064B1B689A4201D9FFF7B3FA7B685D
:1051C00018460837BD4680BD302F0020342F002000
:1051D00080B584B000AF78600F4B1B68FB607B68C4
:1051E000002B01D1002313E07A6813465B001344BF
:1051F0009B001A46084B1B681344074A1360064B72
:105200001A68064B1B689A4201D9FFF78BFAFB68B4
:1052100018461037BD4680BD382F00203C2F002097
:1052200080B584B000AF78607B68002B01D1FFF7B8
:1052300079FA494B1B6813F1290F07D8464B1B68B5
:1052400003F12802454B1B689A4201D300237FE0FB
:10525000414B1B68FB60404B1B68D943FB68986956
:10526000FB68DA6913465B0013445B001844FB6873
:105270001A6A13465B0013441844FB685A6A1346C3
:105280009B00134403440C339B0099421DD3FB68DD
:105290009969FB68DA6913465B0013445B001944A3
:1052A000FB681A6A13465B0013441944FB685A6A88
:1052B00013469B0013440B440C339A00264B1B6887
:1052C0001A44264B1B689A4201D9FFF72BFAFB6858
:1052D0001B681B0C1B04224A934201D0FFF722FAE1
:1052E000FB681B689BB2B3F5817F01D3FFF71AFA05
:1052F000FB685B68002B01DAFFF714FAFFF74CFF3D
:10530000B860BB68FA681A60FB689969FB68DA697B
:1053100013465B0013445B001944FB681A6A13468A
:105320005B0013441944FB685A6A13469B001344FC
:105330000B440C339A00084B1B681344064A136055
:105340007B685A68BB68DA647B68BA685A60BB6875
:1053500018461037BD4680BD282F00202C2F002076
:1053600000005F5F80B58CB000AFF860B9607A6014
:105370003B600023BB62FB68002B02D0BB68002BA4
:1053800001D1FFF7CFF9FB681B687B627B6A9B69E1
:105390009A007B6A134430333B627B6ADB691846B0
:1053A000FFF716FFF8610023FB627EE0FA6A1346FE
:1053B0005B001344DB001946FA6A13465B00134492
:1053C0009B001A46FB6913443A6A0A441A60FA6A57
:1053D00013465B0013449B001A46FB691344FA68AA
:1053E0005A60FA6A13465B0013449B001A46FB6935
:1053F000134400229A60FA6A13465B001344DB00F0
:105400001A463B6A13445B69BA6A1343BB62FA6A81
:1054100013465B001344DB001A463B6A13449B6847
:10542000BB61BB6903F40073002B26D07B68002BA3
:1054300005D03B68002B02D03B68802B01D0FFF7E2
:1054400071F9BB69DBB27B617B691F2B06D87B6975
:105450009B007A6813441B68002B01D0FFF762F9A8
:10546000FA6A13465B0013449B0019467B699B0054
:105470007A681344FA690A441A60FA6A13465B00B0
:1054800013449B001A46FB691344BA6852689A6039
:10549000FA6A13465B0013449B001A46FB691A44E0
:1054A000BB685A60FB6A0133FB627B6ADB69FA6A9C
:1054B0009A4203D2FB69002B7FF478AFBB6A18468F
:1054C0003037BD4680BD80B586B000AF78607B6860
:1054D000002B01D1FFF726F97B681B68FB60FB6896
:1054E0009B699A00FB68D118FB68DA6913465B0078
:1054F0001344DB001944FB681A6A13465B0013442B
:105500009B000B4430337B6100233B612EE07B68C2
:105510009A6A7B691B691A437B689A627B691B687C
:105520007969786898470346002B01D0FFF7FAF8AD
:10553000FB681B689BB2B3F5807F05D17B69DB6894
:10554000184600F0A7FE0BE0FB681B689BB240F218
:105550000112934204D17B69DB68184600F0A8FE73
:105560007B6914337B613B6901333B61FB685B6A98
:105570003A699A42CBD300BF00BF1837BD4680BD01
:1055800080B586B000AFF860B9607A603B60FB68B8
:10559000002B02D03B68002B01D11E4B35E07B680D
:1055A00004333A6802FB03F30C33BA689A4201D021
:1055B000184B2AE0BA680021F868FFF76CF8FB681E
:1055C000002B02D0FB6800221A60FB680C337B6161
:1055D00000233B610EE0FB681A687B691A60FB6878
:1055E0007A691A607A697B68134404337B613B698A
:1055F00001333B613A693B689A42ECD3FB687A68B5
:105600005A60FB683A689A60002318461837BD460E
:1056100080BD00BF0100008080B485B000AF78601D
:105620007B68002B01D1002314E07B68002B03D0A2
:105630007B681B68002B01D100230BE07B681B6893
:10564000FB60FB681A687B681A60FB6800221A60BE
:10565000FB68043318461437BD4680BC704780B4DD
:1056600085B000AF786039603B68043BFB607B68C5
:105670001A68FB681A607B68FA681A6000BF143702
:10568000BD4680BC704780B489B000AF7860396097
:105690007B680C33FB617B685B680433BB617B68B0
:1056A0009B687B61BB697A6902FB03F3FA69134467
:1056B0003B610023FB603B68FA699A4203D83B6870
:1056C0003A699A4201D8002311E03B68043BFB6031
:1056D000FA68FB69D31ABA69B3FBF2F2B96901FB44
:1056E00002F29B1A002B01D0002300E00123184690
:1056F0002437BD4680BC704780B400AF4FF0FF3305
:105700001846BD4680BC704780B400AF00BFBD46A0
:1057100080BC70470F4B02689A4206D1C269A3F160
:105720001023A3F1EF139A4201D001207047836840
:10573000012BFAD8C36813B102699342F5D04369CB
:105740002BB18069C01AB0FA80F040097047184642
:10575000704700BF55AA00FF174B996849B370B551
:105760000846FFF7D7FF08B9CB680BB1012070BD21
:105770000B69002BFBD0114C114D1A68A242F5D1D8
:10578000DA69AA42F2D19A68012AEFD8DA6812B12E
:105790001E69B242EAD05E691EB1D3F818C06645F0
:1057A000E4D08A42E2D11A691946002ADFD01346B2
:1057B000E3E70120704700BF443C002055AA00FFEA
:1057C000669911EE002866D070B5384D2B68002B15
:1057D00055D0AA68002A52D08342014662D86A682E
:1057E000134498425ED2A0F120063046FFF792FFA4
:1057F000002857D151F8183C012B53D151F8144CC3
:1058000041F8180C51F8100C002C39D0A368002B6B
:1058100036D151F81C2C6368203213442061636038
:1058200000B1C460202200213046FBF7BDFE206994
:10583000F8B18368EBB9264642687368134402697D
:10584000203373603261D6E9051339B38B61B369D4
:1058500003B15961416983697161B361E1B18E61DD
:10586000B36903B15E6102B1D66020220021FBF76B
:105870009BFE2B699B0702D5FFF76EFF90B970BDA9
:1058800010B18368002BD7D0EB6841F8083C03B116
:105890005E61EE60EDE77047EE60E2E7002BD9D085
:1058A000EB60D6E70120FAF721FD00BF443C002061
:1058B0002DE9F0473D4D2C68002C3FD0AC68002C02
:1058C0003CD0002839D0002937D001FB00F6B6FBC8
:1058D000F0F0884231D1301D2FD8B10731D1314697
:1058E000EC6814B92AE0A46944B363688B42FAD324
:1058F000D4F80880B8F1000F55D1D4E905705B1ACF
:10590000232B22D80123A360002F48D0B861A069BF
:1059100000B1476100232A69C4E90533D20703D5E2
:10592000FFF71AFF00283ED12034324600212046DE
:10593000FBF73AFE2046BDE8F08700242046BDE88C
:10594000F08726F003010431CAE7D4F810E001F132
:10595000200CDFF85CA0DFF85C9004EB0C02203B2D
:10596000C2E90138C2E9034E44F80CA0C2F81C9009
:10597000BEF1000F01D0CEF80C20C2E9057087B14E
:10598000BA61906900B142610023616029692261B6
:105990000122C4E90533CB07A260C5D5C0E7E860A2
:1059A000B6E7EA60EEE70120FAF7A0FC443C0020ED
:1059B00055AA00FF669911EE38B50D461422002154
:1059C00004461148FBF7F0FD1049114803F09EFA18
:1059D000232D18D914F0030304D0043DC3F10402AD
:1059E0001D4414442A4600212046FBF7DDFD064BEA
:1059F000084A0948A5F12001C3E901541C60E0618F
:105A0000C4E90021DC6038BD443C0020C5570000DB
:105A1000B158000055AA00FF669911EE38B504464A
:105A2000406A18B1A16A01F091FC606A03F068FA5B
:105A30000021236A2C22012B0CBF0D466FF0960526
:105A40002046C4E90911FBF7AFFD284638BD00BF69
:105A500070B50C4D82B02B78DB0710D50C460026B4
:105A60000146224601AB281D019600F06DF820B9D1
:105A7000019BA34218BF6FF0930002B070BD6FF09E
:105A80008800FAE7583C002038B51A4D297811F003
:105A9000010102D00024204638BD0822281DFBF752
:105AA00083FD02222B7862F342032B7000F026F86C
:105AB000044668B100F02EF82B7813F0060F12D1CF
:105AC0000C210C4801F042FC00F03CF8204638BDA7
:105AD00000F036F804460028ECD12B78204643F03D
:105AE00001032B7038BD082200210348FBF75CFD41
:105AF000E6E700BF583C00205C3C0020044A002040
