:020000040000FA
:10000000000C002045010000A70100008111000044
:100010008D11000099110000B1110000A511000020
:100020000000000000000000000000002920000087
:10003000C301000000000000ED1F0000CB01000024
:10004000000000000000000000000000CF010000E0
:1000500000000000D30100000000000000000000CC
:10006000D7010000DB010000DF010000E301000018
:1000700000000000E7010000EB010000EF010000BC
:10008000F3010000F7010000000000000000000084
:10009000FB010000FF010000000000000000000064
:1000A0000302000000000000000000000702000042
:1000B0000B0200000F0200001302000017020000F4
:1000C0001B0200001F0200002302000027020000A4
:1000D0002B020000000000002F02000000000000C2
:1000E00033020000000000003702000000000000A2
:1000F0003B020000000000000000000000000000C3
:10010000000000003F0200000000000000000000AE
:1001100000000000000000000000000000000000DF
:10012000000000004302000000000000000000008A
:1001300000000000000000000000000000000000BF
:1001400047020000114C124DAC4209DA2168626886
:10015000A368043BA2BFC858D050FAE70C34F3E7B9
:100160000C4B0D4CA34208DA19685A680020043A77
:10017000A4BF8850FBE70833F4E772B60748084984
:10018000086001F019F800F0BFFF00004C02000009
:1001900070020000700200009002000000000000E9
:1001A00008ED00E0FEE7FFF7FEBF00F0E9BF00F05A
:1001B000EDBF00F0F1BF00F0FBBF00F0F3BF01F0B6
:1001C00033BFFFF7FEBF01F011BFFFF7FEBFFFF720
:1001D000FEBFFFF7FEBFFFF7FEBFFFF7FEBFFFF753
:1001E000FEBFFFF7FEBFFFF7FEBFFFF7FEBFFFF743
:1001F000FEBFFFF7FEBFFFF7FEBFFFF7FEBFFFF733
:10020000FEBFFFF7FEBFFFF7FEBFFFF7FEBFFFF722
:10021000FEBFFFF7FEBFFFF7FEBFFFF7FEBFFFF712
:10022000FEBFFFF7FEBFFFF7FEBFFFF7FEBFFFF702
:10023000FEBFFFF7FEBFFFF7FEBFFFF7FEBFFFF7F2
:10024000FEBFFFF7FEBFFFF7FEBF00BFF058000084
:10025000202F0020F800000000590000401C002062
:100260000000000000590000201C002000000000D9
:1002700020300020301A0000401C0020E012000056
:10028000201C002020000000001C002004000000B2
:1002A000024B0A460146186800F05CB8AC2F0020EB
:1002B00008B5074B044613B1002100E000BF054B11
:1002C0001868836A03B19847204605F093F900BF88
:1002D000000000000405000070B50D4D00260D4C17
:1002E000641BA410A64209D10B4D00260B4C05F04F
:1002F00083F9641BA410A64205D170BD55F8043BD8
:1003000001369847EEE755F8043B01369847F2E787
:100310001030002010300020103000201430002059
:10032000024B0146186800F02BB800BFAC2F00202C
:10033000884210B501EB020402D98442234607D853
:10034000431EA14208D011F8012B03F8012FF8E752
:10035000024401468A4200D110BD13F8014D02F853
:10036000014DF7E738B502FB01F5294600F052F8D8
:10037000044618B12A46002100F0AAF9204638BDEB
:1003800038B50546002941D051F8043C0C1F002B1C
:10039000B8BFE41800F0A8F81D4A136833B96360C9
:1003A00014602846BDE8384000F0A4B8A34208D93C
:1003B000206821188B4201BF19685B680918216009
:1003C000EDE71A465B680BB1A342FAD911685018E1
:1003D000A0420BD120680144501811608342E0D143
:1003E00018685B68014453601160DAE702D90C2396
:1003F0002B60D6E7206821188B4202BF19685B6822
:100400000918636008BF21605460CAE738BD00BFA7
:100410003C4A0020F8B5CD1C064625F003050835FA
:100420000C2D38BF0C25002D01DBA94203D90C236C
:1004300033600020F8BD00F057F821490A681446DF
:100440009CB9204F3B6823B92146304600F03CF868
:1004500038602946304600F037F8431C23D10C237E
:100460003046336000F046F8E3E723685B1B17D49F
:100470000B2B03D923601C44256004E06368A2426F
:100480000CBF0B605360304600F034F804F10B00F1
:10049000231D20F00700C21ACCD01B1AA350C9E7B5
:1004A00022466468CCE7C41C24F00304A042E3D0D5
:1004B000211A304600F008F80130DDD1CFE700BF47
:1004C0003C4A0020404A002038B50023054D044630
:1004D00008462B6005F07EF8431C02D12B6803B15F
:1004E000236038BD444A0020014800F009B800BF2D
:1004F000484A0020014800F004B800BF484A0020E4
:1005000070477047B02F0020009A394B9A420FD1A4
:10051000EFF314830CB41FB536486946002200F08F
:1005200087FF0FBC0CBC9E460CBC83F31488744739
:100530000FDFFEE7009A2E4B9A420FD1EFF31483A0
:100540000CB41FB52C486946002200F071FF0FBCA7
:100550000CBC9E460CBC83F3148874470FDFFEE787
:100560000CB4029A224B9A4212D10CBC9C46EFF377
:1005700014830CB463461FB520486946002200F07E
:1005800057FF0FBC0CBC9E460CBC83F31488744709
:100590000FDFFEE7009A164B9A4210D1EFF3148357
:1005A0000CB463461FB516486946002200F040FFB0
:1005B0000FBC0CBC9E460CBC83F3148874470FDF41
:1005C000FEE700BF009A0A4B9A420FD1EFF3148363
:1005D0000CB41FB50B486946002200F029FF0FBC80
:1005E0000CBC9E460CBC83F3148874470FDFFEE7F7
:1005F000A5EDF5FE951400009D140000C91400003F
:10060000C916000069170000C3438B4210B50ED312
:1006100032F01F030BD1013902F014030144102BF7
:1006200081EA00043DD004DC63B1042B32D0002009
:1006300041E0142BFBD11F2C40E8C0F30CD941E85A
:10064000C0F105E01F2C40E800F305D941E800F1B6
:100650001C460B468C42EAD122F01402013A0A2AC7
:10066000E5D801A151F822F0C5060000BF06000040
:10067000B10600002F0600002F0600002F06000024
:100680002F060000CB060000C5060000B9060000DA
:10069000B10600001F2C40E840F3DDD941E840F1ED
:1006A000D6E71F2C40E880F3D6D941E880F1CFE7A8
:1006B00013F4001FBBD010BD13F4801FFAE75B02D8
:1006C000F9D5B4E713F4002FF4E713F4802FF1E722
:1006D0006AB183078446C9B20AD002E013F0030F5F
:1006E00007D06346013A03F8011B9C46F6D17047D8
:1006F0000346032A24D970B50C04161F44EA01648A
:1007000026F003050C4303F1040E44EA0124B60865
:100710007544F446AC451C600EF1040E6346F8D1F6
:10072000531FC6EB8676920703EB860307D003EBD5
:100730000C0262458CF800100CF1010CF9D170BD6F
:100740009C46531E03EB0C0262458CF800100CF122
:10075000010CF9D1CBE700BF002A5AD040EA0103CF
:1007600030B5DD0786468C460FD503E043EA010429
:10077000E4070CD56346714613F8014B013A01F8C2
:10078000014B9C468E46F1D130BD0B460146012AF5
:1007900030D041EA0304A50712D502EB030C01EBAC
:1007A000020EACEB020333F8024BAEEB0201023A4D
:1007B00021F8024B012A41EA03041BD9A407F0D413
:1007C000032A17D99C46A2F1040E2EF0030E04331F
:1007D0009E44A1EB0C04DCF800500CF1040304EB84
:1007E0000C019E4544F80C5001F104019C46F2D1E5
:1007F00002F00302541E002AC6D01A462344891A66
:1008000092F800C0934201F802C002F10102F7D150
:1008100030BD7047034B1B685A680AB918687047A7
:1008200001487047001C002035080000FFF7F2FF68
:10083000004700BF2DE9F04F4FF0010A244B8FB065
:10084000D3F80090D9E900320AFA02FA0AF1FF3A25
:1008500013B19847002837D14FF0010809F1080378
:1008600001934FF00041504604F0E2FE0646002896
:10087000F7D00024019FD9F8043008FA04F5A34208
:100880001CD9354213D03B680134D3B102A92846A4
:1008900004F0D2FE57F8042B02A8DDF80CB0904704
:1008A0000146584604F0D8FEAE43E4D1D9E70134FE
:1008B000A34207F1040708FA04F5E2D804F0D8FED1
:1008C000CFE704F0D5FEE1E704F0D2FEC4E700BFB5
:1008D000001C0020000000000000000000000000DC
:1008E00001015F5F030100001F010000210A0000F9
:1008F00000080000000000000100000001000000EE
:100900000000000000000000102200200000000095
:1009100070000000D85600008000000000070000B2
:1009200001000000410A00000100000000015F5FBB
:10093000040100001F0300002D0E00000005000050
:1009400000000000000000000300000000000000A4
:1009500000000000102A002000000000E456000003
:100960004000000000050000010000000000000041
:1009700010000000045700004100000000050000C6
:100980000100000000000000200000001C570000D3
:100990004200000000040000010000000000000010
:1009A0004000000000015F5F00000000FE03000047
:1009B000DD20000000040000000000000000000036
:1009C000000000000000000000000000A031002036
:1009D0000000000001015F5F01000000FF03000054
:1009E00011210000000100000000000000000000D4
:1009F000000000000000000000000000A035002002
:040A000000000000F2
:100A200008B500F0E9F800B108BD0121034802F063
:100A300003FABDE8084002F067BA00BF401C00207E
:100A40002DE9F04F04689FB0002C40F0CD800746A0
:100A50002022214601A8FFF73BFE2022214609A8BB
:100A6000FFF736FE3422214611A8FFF731FE04239A
:100A700007F11C0252F804199846013B39B9002BC2
:100A8000F8D16FF0830948461FB0BDE8F08F3423DA
:100A90000021786811AA04F0D3FD3428F1D1119B0C
:100AA000402BEED811ABB8F1010FCDE9013000F0C9
:100AB000998001254E4C07F1140901AE59F8043B09
:100AC000D4F8002403F1030C2CF0030CC2F5806170
:100AD0008C4504EB020A0CEB020E56D829467868C6
:100AE0005246C4F800E404F0ABFD01354545F06022
:100AF00046F808AFE2D1042307F12C0252F804199A
:100B00001D46013BE1B9002BF8D1BA68119E394D61
:100B1000C4F80424414655F8265009AA01A8A8475C
:100B200081460025D4F8002429463148C4F80454ED
:100B3000FFF7CEFD4846C4F800541FB0BDE8F08F63
:100B400007F1200C09AE30464FF0000AD4F800241B
:100B50000CEB850B08E0E345C0E9009E4FF0010A6D
:100B60001A4400F108001FD05CF804EBC2F5806164
:100B70000EF1030323F003038B4204EB0209EAD9CD
:100B8000BAF1000F01D0C4F8002400256FF08C09E1
:100B900029461748C4F80454FFF79AFD4846C4F89C
:100BA00000541FB0BDE8F08FBB68DDF844C0C4F846
:100BB0000434104B4146C4F8002453F82C8009AA91
:100BC0002B4601A8C0474FF0000881464146736894
:100BD000786856F8082B08F1010804F039FDA8459B
:100BE000F4D19EE7024C86E76FF085094BE700BF22
:100BF000441C0020A80F000008B54FF4E07200214B
:100C00000248FFF765FD002008BD00BF502000200E
:100C10006FF08500704700BF6FF08500704700BF20
:100C20006FF08500704700BF6FF08500704700BF10
:100C30006FF08500704700BF6FF08500704700BF00
:100C40006FF08500704700BF6FF08500704700BFF0
:100C50006FF08500704700BF6FF08500704700BFE0
:100C60006FF08500704700BF6FF08500704700BFD0
:100C70006FF08500704700BF6FF08500704700BFC0
:100C80006FF08500704700BF6FF08500704700BFB0
:100C90006FF08500704700BF6FF08500704700BFA0
:100CA0006FF08500704700BF6FF08500704700BF90
:100CB0006FF08500704700BF6FF08500704700BF80
:100CC0006FF08500704700BF6FF08500704700BF70
:100CD0006FF08500704700BF6FF08500704700BF60
:100CE0006FF08500704700BF6FF08500704700BF50
:100CF0006FF08500704700BF6FF08500704700BF40
:100D00006FF08500704700BF6FF08500704700BF2F
:100D10006FF08500704700BF6FF08500704700BF1F
:100D20006FF08500704700BF6FF08500704700BF0F
:100D30006FF08500704700BF6FF08500704700BFFF
:100D40006FF08500704700BF6FF08500704700BFEF
:100D50006FF08500704700BF6FF08500704700BFDF
:100D60006FF08500704700BF6FF08500704700BFCF
:100D70006FF08500704700BF6FF08500704700BFBF
:100D80006FF08500704700BF6FF08500704700BFAF
:100D90006FF08500704700BF6FF08500704700BF9F
:100DA0006FF08500704700BF6FF08500704700BF8F
:100DB0006FF08500704700BF6FF08500704700BF7F
:100DC0006FF08500704700BF6FF08500704700BF6F
:100DD0006FF08500704700BF6FF08500704700BF5F
:100DE0006FF08500704700BF6FF08500704700BF4F
:100DF0006FF08500704700BF6FF08500704700BF3F
:100E00006FF08500704700BF6FF08500704700BF2E
:100E1000012902D06FF080007047012BFAD8436897
:100E2000342BF7D1D2E9000102F052B830B5B3B09B
:100E30004FF000414FF0FF3004F0FAFB10F01004C7
:100E40000DD0102022A904F0F7FB229B002B1DDA05
:100E5000023323DB0021239804F0FEFBE8E710F0C7
:100E600020051ED1430619D5402022A904F0E4FB39
:100E7000229B002BECDB03D0A3F2F233012B0DD825
:100E80006FF08501239804F0E7FBD1E703D0A3F2CC
:100E9000F233012B02D802F0C7FBDBE704F0E8FBDA
:100EA000C6E7202006A904F0C7FB069B002B06DA44
:100EB0000233F3DB2146079804F0CEFBB8E703D0FA
:100EC000A3F2F233012BE9D8002504243C22294661
:100ED00013A8CDE90255CDE904551295FFF7F8FBAB
:100EE0003C22294623A82295FFF7F2FB01950DAB82
:100EF00053F804292146013C002A38D1002CF7D1AF
:100F00004FF0FF30042511AB53F804292946013D69
:100F100042B9002DF8D1012809D90121079804F020
:100F20009BFB85E70128F8D80129F6D10D4604235B
:100F3000002107980DEB030204F082FB04281CD16A
:100F4000022C17D000214DB30E9B402B15D80593D2
:100F500004AA22AB0198049302F078FBDDE9042394
:100F600004460021079804F073FB2146D6E720468B
:100F70000C46C7E70B9B402B02D96FF08001CDE7F1
:100F800012AA0121079804F05BFB0B9A9042F4D15E
:100F900012AB0390029302A9002DD5D12A460198E5
:100FA00002F054FB0146B9E7D90D0000E10D000045
:100FB000C10D0000C90D0000B90D0000D10D0000E9
:100FC000E90D0000F10D0000F90D0000010E000018
:100FD000890C0000910C0000590C0000610C00000D
:100FE000690C0000710C0000790C0000810C0000FD
:100FF000C90C0000D10C0000990C0000A10C0000ED
:10100000A90C0000B10C0000B90C0000C10C0000DC
:10101000490C0000510C0000210C0000290C0000BC
:10102000110C0000190C0000310C0000390C0000FC
:10103000410C0000D90C0000E10C0000E90C00009C
:10104000F10C0000090D0000110D0000190D000049
:10105000290D0000210D0000010D0000310D0000E0
:10106000F90C0000390D0000410D0000490D000091
:10107000510D0000590D0000610D0000690D0000C8
:10108000710D0000790D0000810D0000910D000030
:10109000A90D0000890D0000990D0000A10D0000B0
:1010A000B10D0000110E0000090E0000000000004C
:1010B0000000000000000000000000000000000030
:1010C00010B5054C237833B9044B13B1044800E044
:1010D00000BF0123237010BD8031002000000000FC
:1010E000E458000008B5034B1BB10349034800E076
:1010F00000BF08BD0000000084310020E45800005B
:10110000A3F5803A704700BF174B002B08BF134B65
:101110009D46FFF7F5FF00218B460F461348144A02
:10112000121AFFF7D5FA0E4B002B00D098470D4B43
:10113000002B00D098470020002104000D000D482E
:10114000002802D00C4800E000BFFFF7C5F82000DF
:10115000290000F013F9FFF7ABF800BF000008000A
:101160000000000000000000000C002020300020E3
:10117000504A0020000000000000000000F08CBE7B
:10118000FFF7FCFFFEE700BF00F086BEFFF7FCFFA5
:10119000FEE700BF00F080BEFFF7FCFFFEE700BFE8
:1011A00000F07ABEFFF7FCFFFEE700BF00F074BE60
:1011B000FFF7FCFFFEE700BF4FF47F026649D1F85E
:1011C000D03043F00203C1F8D030D2F83031D2F839
:1011D0003421BFF34F8F092B06D14FF0502300224B
:1011E000C3F81421C3F818214FF47F03D3F830213A
:1011F000D3F83431BFF34F8F092A5FD04FF47F0308
:10120000D3F83021D3F83431BFF34F8F092A4ED0B1
:101210004FF47F03D3F83021D3F83431BFF34F8F2D
:10122000092A3DD04FF47F03D3F83021D3F834316D
:10123000BFF34F8F092A06D100210122474BC3F883
:101240000C17C3F810270022454907E0D3F8000324
:10125000D3F80433B2F5807F03600BD00868BFF386
:101260004F8FD300013003F57F0302F1010201F13A
:101270000801EBD13B4BDA69BFF34F8FD10725D47F
:101280001B6ABFF34F8F013320D0334A3649D2F85F
:101290008C30364843F44063C2F88C3008607047A5
:1012A000012BBFD10E22324BC3F8E42EBAE7012B3B
:1012B000AED00122294BC3F87825A9E7012B9DD197
:1012C000264AC2F8383AC2F8783597E7294AD2F860
:1012D0000034012BFBD12749C2F80435D1F8003482
:1012E000012BFBD11F4BDA69BFF34F8FD2070AD511
:1012F000DA6922F00102DA61BFF34F8F1D4AD2F89A
:101300000034012BFBD1174B1A6ABFF34F8F013208
:1013100014D00023174AC2F80435D2F80034012B48
:10132000FBD1BFF34F8F0C49134BCA6802F4E06244
:101330001343CB60BFF34F8F00BFFDE71A6A22F063
:10134000FF0242F020021A62BFF34F8F094AD2F81F
:101350000034012BFBD1DCE700ED00E00040005041
:101360000003FF000080FF00202F00200090D0032A
:1013700000A00350009003500400FA0508B5124B7A
:1013800083F30A8801F0A8FF98B902F02DF980B91B
:1013900002F042F968B902F041F930B902F042F9BD
:1013A00000F080FE00F0C6FE05E002F039F90028EA
:1013B000F6D000F083FF00F061FE00F075FE00F053
:1013C00069FD002008BD00BF000400200A4B0B4A45
:1013D0001B6810B55B680446A3F1100C5A61D1E993
:1013E0000223CCF82010D1E90001A047044600F008
:1013F00041F8204610BD00BFAC360020EDEEEEEE09
:1014000010B5094C094B2268526852699A4208BFCC
:10141000086000F043FD2368834203D0BDE810401C
:1014200000F060BF10BD00BFAC360020EDEEEEEE68
:1014300070B505460E461446EFF30583C3F3080363
:101440009BB954B10A4B31461B682846D3E90024A6
:101450002346BDE8704000F09FBD2246234631463A
:101460002846BDE8704000F097BD00F027FFE8E790
:10147000A03600208230012800D9704708B501F05D
:10148000EFF800B108BDBDE8084000F017BF00BF8D
:101490000020704740F20110704700BF70B505464C
:1014A00001F0DEF80646284600F0B2FF48B10446D7
:1014B00001463246284600F0E9FF10B92368D86893
:1014C00070BD002070BD00BF2DE9F04F0D469FB0EC
:1014D00008938046144601F0C3F82B0A0A93EBB236
:1014E00007932B14C5F307290C9300F18280B9F1FF
:1014F000040F7ED8079B042B7BD84B44042B78D851
:10150000B8F1000F75D0064601F0BCF818F0804F16
:101510000B9000F0A58018F0E00F5FFA88F368D117
:10152000674A52F823A0BAF1000F62D0DAF800300F
:1015300032465146586800F0A9FF002840F0B980B3
:101540005046C8F3072100F091FF002851D1EFF376
:10155000108572B600F012FF0D9085F310880028F8
:1015600000F0AA800023036000F0F6FE8046012709
:101570004FEAC9053246294620463B46009701F00E
:101580004DF8002835D1079B32464FEAC30B594628
:1015900002230898009701F041F8014648BB0EABC2
:1015A00020220990184600F045FE16AB202218466E
:1015B000099900F03FFE0EAB2A462146184600F07E
:1015C000DBFD5A46089916A800F0D6FDB9F1000FC8
:1015D00032D00EAB1C461D4401E0AC420ED0D4E923
:1015E000000101233246009701F018F80834002862
:1015F000F3D06FF080001FB0BDE8F08F0A9B13F0AE
:10160000FE0F19D00127B94510AC10D9234654F864
:10161000080CD3E900120A44904203F1080304D2F3
:1016200054F8042C02449142E3D3AB42F1D1013788
:10163000B94504F10804E9D8079B13B316AB1C465F
:1016400001259B4401E0A3451BD0D4E900010223FE
:1016500032460095083400F0E1FF0028F3D0C8E7D7
:1016600040460B9900F038FF0D900028C1D0436828
:10167000002BBED1D0F80CA0BAF1000F7FF477AFE9
:10168000B7E7089B0B990593079B0D9C049316AB3A
:10169000CDE902930EAB2046019300910C9B51467D
:1016A000424600F059FF074B214650469B68984739
:1016B000A1E76FF081009EE76FF082009BE700BF1B
:1016C0005C3B0020385700002DE9F04188B005460A
:1016D0000F4600F0C5FF0646284600F099FE002898
:1016E00035D0036804469B689B0535D432462846AE
:1016F000214600F0CBFE50BB3946204600F0B6FE36
:10170000054620BB304600F0BDFF0746EFF31088CA
:1017100072B600F033FE064688F31088F8B100F088
:101720001BFE214602464FF0FF333046CDE90455FB
:10173000CDE902550195009700F00EFF3146204695
:10174000084B9B68079308B0BDE8F04118476FF05D
:10175000810008B0BDE8F0816FF08000F9E76FF01C
:101760008200F6E7385700002DE9F041044688B0C2
:1017700000F076FF44B314F0804629D100F082FFD8
:1017800007462046394600F0A7FE054600B3D0F8CC
:101790000C80B8F1000F1BD04368012B18D04146D4
:1017A00022466FF00103CDE90466CDE90266009799
:1017B000019600F0D1FE29464046074B9B680793EF
:1017C00008B0BDE8F0411847204608B0BDE8F081F8
:1017D0006FF08000F9E700BF385700000F4B70B57D
:1017E0001B6804465D680E46AA6982B01042A5F1E6
:1017F000100505D0002E07DB286B204002B070BD1D
:1018000000F05CFD002EF7DA21462846044B1B69E8
:10181000019302B0BDE87040184700BFAC3600200D
:1018200038570000F0B504460E4683B010B3431E8F
:1018300003421FD10127194A02231268302155683B
:10184000304600220097103D00F0E8FEA8B92B6B4F
:10185000C3B12B6B23421AD02146284600F0ACFDC1
:101860000146B8B130223046143100F085FC00202A
:1018700003B0F0BD00F022FDDCE700F01FFD2B6B94
:10188000002BE6D100F01AFD2B6B2342E4D100F0CF
:1018900015FDE1E76FF08B00EAE700BFAC360020F2
:1018A0002DE9F04383B00E4690461F4600F02CFE13
:1018B0000446A0B36369002B2EDB032E29D804EB6A
:1018C0008609D9F824501DB9284603B0BDE8F08335
:1018D00001230022009339460223404600F09EFE79
:1018E00000BBD9F8245004EBC604BD4228BF3D46D6
:1018F00040462A46616C00F03FFC2846636C2B444E
:101900006364D9F824305B1BC9F8243003B0BDE808
:10191000F08300F0D3FCD2E700F0D0FCCDE700F07C
:10192000CDFCC7E700F0CAFCDBE700BF70B50E4690
:10193000154600F0E9FD0446D8B16369002B15DBBC
:10194000032E10D804EB8603586A58B185422A4604
:1019500028BF0246851A104604EBC604616C114488
:1019600061645D6270BD00F0A9FCEBE700F0A6FCCD
:10197000E6E700F0A3FCE0E72DE9F04182B00F4676
:1019800090461D4600F0C0FD044670B36369002B0D
:1019900028DB032F1DD804EBC70604EB8704636B19
:1019A000B26E9B1AAB421AD301230022294640464D
:1019B000009300F033FE78B9D6E9190341462A4670
:1019C000184400F0D9FBB36E2B44B36602B0BDE8F7
:1019D000F08100F073FCDEE700F070FCECE700F053
:1019E0006DFCE1E700F06AFCD3E700F067FCCDE7AF
:1019F000F8B505460F4600F087FD0446002849D09B
:101A0000E668002E4BD06369991C18D05A1C1AD175
:101A1000002F33D115F1810F25D0EFF3108672B668
:101A2000224B29462046DB689847054686F31088F6
:101A30006368022B1DD0002328466360F8BD022393
:101A400000256360E9E7002B20DB204600F0D6FE8E
:101A500033689B689B0545BF02233D463D46636056
:101A600015F1810FD9D1E369002BD6DB00F026FCFC
:101A7000D3E7204600F092FC2846F8BD17F1820F0C
:101A800010D017F1830F01D13D46C6E700F016FCD8
:101A90000025C2E700F012FCE668002EB3D100F08A
:101AA0000DFCB0E702233D466360B6E738570000FF
:101AB00008B500F0CDFCBDE80840082100F0C0BE2C
:101AC0000A4B10B51B685C68236A103C1B0709D5DC
:101AD000EFF3108272B6236B23F00803236382F3C3
:101AE000108810BD00F0EAFBF2E700BFAC36002022
:101AF00001F0B4BD38B50D4600F006FD044660B1F6
:101B0000E3681B689B689B0502D42562256038BD8D
:101B100000F0D4FB2562256038BD00F0CFFBEFE775
:101B2000C36A016B10B519400446343000F014FA52
:101B30000023E36210BD00BF08B5103000F00CFABE
:101B4000002008BD38B5EFF3108572B6046B0C4069
:101B500003D085F31088204638BD054BC162196853
:101B6000343000F0EBF985F31088204638BD00BF13
:101B7000AC36002059B350B3F8B5036853B344688A
:101B800044B30D465E69EFF3108772B6636CC1F81B
:101B90008830236B616433432363E36A33420BD1A0
:101BA00087F310880D4B05F11000196800F0C6F995
:101BB000012300206B60F8BD216B04F13400194053
:101BC00000F0CAF9E36A23EA0603E362E8E76FF08C
:101BD000800070476FF08000F8BD00BFAC36002079
:101BE00038B5094D284600F093F92B6804465B6828
:101BF00053E9040101F01EFA08B9204638BD00F08F
:101C00005DFB204638BD00BFAC3600200022F0B599
:101C100004682E4EA36A2569466203EB050C073360
:101C200023F007032CF00705C0E90453836AC0E9D9
:101C30000722194341F00801D4E9027317F4007632
:101C400042634264816237D1D4E9061E4FEA8E0CAA
:101C50000CF10F0222F00702AD1A82610561C5E99D
:101C600000362E46BEF1000F0ED00CF1080C04F128
:101C70003003AC4403EB810305F108021969183302
:101C800042F8041B6245F9D1C5F804E000236168FD
:101C900000F11002C66080F83870C26380F83930F5
:101CA000438709B90A4B1A606FF00102BDE8F040A2
:101CB0000849383000F000B90821A5F1080606618E
:101CC000816145F8083C7260E0E700BFEDEEEEEEA2
:101CD000A03600202D080000F8B501F00C030C2BF5
:101CE00014BF074617464B060C46064601F008058A
:101CF0001ED5B5FA85F3BA695B0912F8025CB3EB3D
:101D0000D51F0CD1402D0ED0412D2BD100F0D8FC89
:101D100004465E48214600F0D3FA2046F8BD00F0A4
:101D2000CDFA402DF0D1384600F00AFA2046F8BD31
:101D300000F0C4FA9DB15548861B082E01D900F069
:101D4000BDFAFFF7A7FB05463D6000F0A7F8504B32
:101D50001B688342E1D000F0C5FA2046F8BD00F0D0
:101D6000ADFAE8E7494B9E1B082E00F28C80102D3F
:101D700000F2868001A353F825F000BF431D000048
:101D8000771E00006B1E00005B1E0000511E00004D
:101D9000451E0000391E00002B1E00001B1E000007
:101DA0000D1E0000FB1D0000ED1D0000E11D0000E8
:101DB000D71D0000811E0000C91D0000C11D0000CC
:101DC000FFF766FB0546BFE70025FFF791FE2846B3
:101DD000FFF750FBB8E70025FFF772FE2846F7E74C
:101DE00000253868FFF764FE2846F1E70025D7E9AB
:101DF0000001FFF7FDFD2846EAE70025D7E90223A9
:101E000038687968FFF7B8FD2846E1E73868D7E910
:101E10000112FFF78BFD054696E7D7E90223D7E9C4
:101E20000001FFF73DFD05468EE70025D7E90001DB
:101E3000FFF760FE2846CBE7D7E90001FFF7F2FC89
:101E4000054681E7D7E90001FFF7C8FC05467BE7B7
:101E50003868FFF789FC0546BAE7D7E90223D7E9D6
:101E60000001FFF731FB0546B2E7D7E90001FFF7B4
:101E70002BFC0546ACE73868FFF710FB054663E727
:101E80006FF0830560E700F019FA70E7000C00209E
:101E9000AC36002041DF704700F010BA054B1868DF
:101EA00010B905E0806810B14378012BFAD1704772
:101EB000704700BFB036002070B5134E0546346839
:101EC000134624B190F800C02278624514D3AC6068
:101ED00035600022686800F011FA01210B4B69702F
:101EE0001A6822B129781278914228BF35681D609E
:101EF00070BD2078604503D22246A468002CF8D13A
:101F0000AC609560E5E700BFB4360020B036002035
:101F100038B5094B05461C6814B904E0A46814B12F
:101F20006378012BFAD100F0DDF905B12C6060680F
:101F3000BDE8384000F006BAB03600204FF0020C81
:101F4000034A016081F801C0024B12681A607047B1
:101F5000B4360020B036002038B5036813B15A7883
:101F6000022A00D038BD0125094A044610685D7078
:101F700060B100781D78854208D306480568586826
:101F8000156000F0A5F90023236038BD1D46F6E773
:101F9000B0360020B436002070B572B61446EFF3A8
:101FA0000B855FF0000C002A1FBF8CF30B886C467A
:101FB000954683F30B880C4A0123136062B60E46E4
:101FC000FFF704FA72B63146FFF71AFA5FF0000C19
:101FD000002C1EBF8CF30B88A54685F30B88024CA2
:101FE0000025256062B670BDB8360020402010EA9A
:101FF0000E0018D001B500F0C1FBBDE804408842D6
:1020000011D072B6EFF30982EFF30B8322E9F00FE0
:1020100080E81C4091E81C40B2E8F00F82F3098888
:1020200083F30B8862B67047EFF308807146EFF3D5
:102030000982EFF30B830CB406B4FFF74DFE86461E
:1020400006BC0CBC00F0080001F00801401A01DCDD
:102050000DDB70470CB42DE9F00F074C25462646E2
:102060002746A046A146A246A34630B4704730BCDE
:10207000BDE8F00F06BC7047A5EDF5FE002160201D
:10208000074BDA6882F07F4282F47F0242F480429A
:10209000DA6019765976D976D97783F822007047B5
:1020A00000ED00E0704700BFEFF3148030F0040053
:1020B00080F31488BFF36F8F704700BF08B501F03D
:1020C00031F9054B986001F033F980F38888BDE859
:1020D000084001F033B900BF00ED02E0FFF7EEFF6A
:1020E000009A0A4B9A4210D104460122944320469A
:1020F000214622462346254626462746A046A14697
:10210000A246A346A446A6460447FEE7A5EDF5FE73
:1021100008B500214FF0FF3003F08AFA0028F8D10B
:1021200030BF00214FF0FF3003F082FA0028F0D1D9
:10213000F6E700BF0122014B1A607047BC36002051
:10214000012110B582B000910446018902230022CA
:10215000406800F063FA18B9064B1B68012B03D0E6
:102160000323236002B010BD00F048FA032323606C
:1021700002B010BDBC360020002A5AD040EA01034C
:1021800030B5DD0786468C460FD503E043EA0104EF
:10219000E4070CD56346714613F8014B013A01F888
:1021A000014B9C468E46F1D130BD0B460146012ABB
:1021B00030D041EA0304A50712D502EB030C01EB72
:1021C000020EACEB020333F8024BAEEB0201023A13
:1021D00021F8024B012A41EA03041BD9A407F0D4D9
:1021E000032A17D99C46A2F1040E2EF0030E0433E5
:1021F0009E44A1EB0C04DCF800500CF1040304EB4A
:102200000C019E4544F80C5001F104019C46F2D1AA
:1022100002F00302541E002AC6D01A462344891A2B
:1022200092F800C0934201F802C002F10102F7D116
:1022300030BD70476AB183078446C9B20AD002E054
:1022400013F0030F07D06346013A03F8011B9C46C5
:10225000F6D170470346032A24D970B50C04161F23
:1022600044EA016426F003050C4303F1040E44EA3A
:102270000124B6087544F446AC451C600EF1040E0A
:102280006346F8D1531FC6EB8676920703EB8603AD
:1022900007D003EB0C0262458CF800100CF1010C26
:1022A000F9D170BD9C46531E03EB0C0262458CF8BD
:1022B00000100CF1010CF9D1CBE700BF01F0CEB951
:1022C0008546024A014B0CB408470000A5EDF5FE17
:1022D000036923B14FF0EE32196042617047036821
:1022E0001962704704484FF080510160BFF34F8F6F
:1022F000BFF36F8F7047000004ED00E02DE9F84355
:1023000005462C680E48A4F148090F46904644E95A
:1023100002004022002148461E46FFF78BFF4FF087
:1023200080726FF0020344F8288C44F8107C44F863
:10233000146C44F80C2CC5F80090EB60BDE8F883F1
:10234000A5EDF5FE436883F30B880368203383F320
:102350000988C068704700BF064A10B41368064C6D
:10236000013303F00703001B591C01EBC00010BC34
:10237000136070474C3B0020C036002010B5064863
:1023800000F0D6FB044628B18C220021FFF752FF53
:1023900000236360204610BDC036002010B5014602
:1023A000EFF3108472B6034800F0CEFB84F310887C
:1023B000002010BDC036002030B58646EFF31085F2
:1023C00072B6406C08B34FF0000C64460EF1440244
:1023D000C3681B685B698B4208BF144600F1880222
:1023E000D0F8880008BF0CF1010C0028F0D164B1CE
:1023F0002068BCF1010FD0F88830236005D1DEF8E9
:10240000303023EA0101CEF8301085F3108830BD5A
:1024100070B40E4E7568B5B101462B46002403E03A
:1024200098681C4650B103461A6852688A42F7D130
:1024300034B118469A687360A2609D6070BC7047A2
:10244000184670BC70472846F8E700BF543B002090
:10245000054B5B6813B905E09B6C1BB11A685268A9
:102460008242F9D118467047A43600200368064816
:10247000D3E90223520503D58B4208BF00207047E1
:102480008B4228BF002070470300008038B52AB176
:102490000B689B68DB0519D5002038BD0C4B044642
:1024A0001B685D68102D0ED055F8102C906968B12E
:1024B00000232C3201E0984208D052F8041F013367
:1024C000A142F8D1E8E7FFF7F9FEEDE7014838BD92
:1024D000AC3600200500008038B50D4670B10949C2
:1024E000441E01EBD4042146064800F033FB38B10A
:1024F000E369AB4218BF0024204638BD0446F2E72A
:102500000446F9E7C036002010B5D0B11049441E8A
:1025100001EBD40421460E4800F01CFBB0B10D4B7A
:102520001B685B68102B0ED053F8103C5BB15B68E6
:10253000E2685268126852689A4218BF0024204626
:1025400010BD0446E6E74FF0FF33F1E70446F6E737
:10255000C0360020AC3600202DE9F84F0446DDE9F6
:102560000B86DDE90D758B46914600213022143033
:102570009A46FFF75FFE00231F4A0F991268C4F8BE
:102580000CB05268C4F884100A99103AE161C4F89A
:1025900014A0A260236186B104F1240208F1040CA6
:1025A00004F144005CF8331042F8041B58F833106F
:1025B00040F8331001339E42F4D1B5B100231846E0
:1025C00004F1340207F1040E04F1640C04F168060E
:1025D0005EF8331042F8041B57F833104CF83310F0
:1025E00046F8330001339D42F2D12368C4F81890B5
:1025F0002362BDE8F88F00BFAC360020064B1B6895
:102600005B68102B04D053F8103C0BB1586870472E
:102610004FF0FF30704700BFAC360020C1B1C8B1E9
:1026200010B51446CA43824210D3022B029B0CBF42
:10263000062202220BB942F0080224B900F00AFD7A
:1026400020B9002010BD42F02002F7E7024810BD7B
:10265000002070470148704704000080010000809E
:10266000074B10B51B685C68102C06D054F8103C62
:102670005868B0FA80F0400910BDFFF71FFEF5E77B
:10268000AC36002038B5044698B90C4B1B685B6823
:10269000102B08D053F8103C2BB15D68B4EBD57FFC
:1026A00003D1284638BD4FF0FF35FFF707FE284617
:1026B00038BD00F069FA0546F0E700BFAC360020EF
:1026C0002DE9F0470026264FDFF8989008238C224A
:1026D00040F28C4182B0244800F0FAF9DFF88C8097
:1026E000DFF88CA07E60C9F8046000F051FA0CE0BD
:1026F0006B6AE3B9214651F8040B00F075FC00BB8E
:1027000020463146D8F800309847384600F0B4F8F3
:102710000446C8B10568EB69002BE9D08023524616
:10272000494600F01FF96B6A0646002BE2D02046AE
:1027300000F084F9214651F8040B00F055FC002804
:10274000DED0FFF7BBFDDBE70A4A0B4B1268D8F877
:1027500004101A60019102B0BDE8F047084700BFBD
:10276000A4360020543B0020C0360020385700001B
:102770005C3B0020342F0020503B00202DE9F84323
:10278000FFF78CFB1A4FA0F138063B685D68194BC8
:1027900029461B68012B1ED00446E0B1A5F11008A4
:1027A000B04518D0EFF309826B68203393421BD8F1
:1027B000EFF3108972B6D8F8043071688B4206D0F6
:1027C00054F8380C00F036FC08B1FFF777FD3C6098
:1027D000616889F31088084B1B6813B1F26802B175
:1027E0001A602846BDE8F883FFF768FDE0E700BF00
:1027F000AC360020B8360020503B00206FF0070CAC
:10280000002300F13402ACEB000C52F8041B99B128
:1028100000B5D0F884105CF812E019440833202B7E
:10282000C1F804E006D052F8041B0029F1D10833A6
:10283000202BF8D15DF804FB0833202BE5D170473D
:1028400060B50D4683B078B1EFF3108672B6036BB6
:10285000C26A2B431542036302D0064B5B6998475B
:1028600086F3108803B060BD0190FFF727FD019843
:10287000EAE700BF38570000F8B50546002864D0E5
:10288000334E346814F1290F51D8324A04F1280329
:1028900011688B424BD2E043E269A36902EB42022A
:1028A0000C3303EB4203226A02EB42021344626AD6
:1028B00002EB82021344B0EB830F4FEA830202D390
:1028C0002244914201D2FFF7F9FC236822491A0CF5
:1028D00012048A4202D0FFF7F1FC23689BB2B3F5E1
:1028E000817F2AD26368002B2CDB1C4A1C4B1768A3
:1028F000196807F14C038B4213601BD8E269A36986
:1029000002EB42020C3303EB4203D4E9081201EB61
:1029100041010B4402EB8202134432683C6002EB3B
:1029200083036A683846BA6433606F60F8BD002775
:102930003846F8BDFFF7C2FCE0E7FFF7BFFC63686D
:10294000002BD2DAFFF7BAFCCFE7FFF7B7FC97E727
:10295000242F00205057000000005F5F282F002028
:10296000545700002DE9F04F85B080468946174640
:10297000039300285AD0002958D0D8F800202D48B9
:1029800002F13005D2E906310468029205EB8305B5
:10299000002945D0284B01EB41021B6804EB820261
:1029A0009A42026036D8002C3AD04FF0000B5E46B7
:1029B0000020AB686A6913F4007FC4E9005806F18F
:1029C0000106A0604BEA020B05F118055FFA83FAD5
:1029D00013D017B1039A802A03D00193FFF76EFC3E
:1029E000019B13F0E00F02D157F82A300BB1FFF72B
:1029F00065FC029BD96947F82A40D9F80430B142F6
:102A0000A360C9F8044004F10C04D1D8584605B0BD
:102A1000BDE8F08FFFF752FC029BD9690029C2D1B3
:102A20004FF0000B584605B0BDE8F08FFFF746FCAD
:102A3000A3E700BF2C2F0020585700002DE9F041DC
:102A40000546002840D02F683B6A07F13001D7E9DE
:102A5000062401EB820104EB44047A6A01EBC4040E
:102A600003EB430304EB830442B3002640F2011856
:102A70000BE03B88B3F5807F17D0434520D07B6ABD
:102A80000136B34204F1140418D92269AB6A214615
:102A9000134328462268AB6290470028E9D0FFF72D
:102AA0000DFC3B88B3F5807FE7D1E06800F04CFC7B
:102AB0007B6A0136B34204F11404E6D8BDE8F08124
:102AC000E06800F051FCDAE7FFF7F8FBBBE700BF76
:102AD00048B32DE9F8431D461BB3161D03FB06F949
:102AE000904609F10C028A421BD1074600240021BE
:102AF000FFF7A0FB07F10C031946A44600E071465E
:102B00000CF1010C65450C6001EB060E0C46F6D18C
:102B10000020A9EB06061E44C7E90068BD60BDE8B9
:102B2000F8830248FBE70148704700BF01000080BE
:102B3000034638B1006828B100220168196040F8E6
:102B4000042B7047704700BF02680B1F41F8042C2C
:102B50000360704700F10C02914210B4D0E90134D7
:102B60000FD3181D04FB0024A1420AD20439891A8C
:102B7000B1FBF0F300FB1310B0FA80F010BC400979
:102B80007047002010BC70474FF0FF30704700BF07
:102B9000704700BF0F4B02689A4206D1C269A3F189
:102BA0001023A3F1EF139A4201D0012070478368EC
:102BB000012BFAD8C36813B102699342F5D0436977
:102BC0002BB18069C01AB0FA80F0400970471846EE
:102BD000704700BF55AA00FF174B996849B370B5FD
:102BE0000846FFF7D7FF08B9CB680BB1012070BDCD
:102BF0000B69002BFBD0114C114D1A68A242F5D184
:102C0000DA69AA42F2D19A68012AEFD8DA6812B1D9
:102C10001E69B242EAD05E691EB1D3F818C066459B
:102C2000E4D08A42E2D11A691946002ADFD013465D
:102C3000E3E70120704700BFDC3B002055AA00FFFE
:102C4000669911EE002866D070B5384D2B68002BC0
:102C500055D0AA68002A52D08342014662D86A68D9
:102C6000134498425ED2A0F120063046FFF792FF4F
:102C7000002857D151F8183C012B53D151F8144C6E
:102C800041F8180C51F8100C002C39D0A368002B17
:102C900036D151F81C2C63682032134420616360E4
:102CA00000B1C460202200213046FDF711FD2069EB
:102CB000F8B18368EBB92646426873681344026929
:102CC000203373603261D6E9051339B38B61B36980
:102CD00003B15961416983697161B361E1B18E6189
:102CE000B36903B15E6102B1D66020220021FDF715
:102CF000EFFC2B699B0702D5FFF76EFF90B970BD03
:102D000010B18368002BD7D0EB6841F8083C03B1C1
:102D10005E61EE60EDE77047EE60E2E7002BD9D030
:102D2000EB60D6E70120FDF7C3FA00BFDC3B0020D3
:102D30002DE9F0473D4D2C68002C3FD0AC68002CAD
:102D40003CD0002839D0002937D001FB00F6B6FB73
:102D5000F0F0884231D1301D2FD8B10731D1314642
:102D6000EC6814B92AE0A46944B363688B42FAD3CF
:102D7000D4F80880B8F1000F55D1D4E905705B1A7A
:102D8000232B22D80123A360002F48D0B861A0696B
:102D900000B1476100232A69C4E90533D20703D58E
:102DA000FFF71AFF00283ED120343246002120468A
:102DB000FDF78EFC2046BDE8F08700242046BDE8E4
:102DC000F08726F003010431CAE7D4F810E001F1DE
:102DD000200CDFF85CA0DFF85C9004EB0C02203BD9
:102DE000C2E90138C2E9034E44F80CA0C2F81C90B5
:102DF000BEF1000F01D0CEF80C20C2E9057087B1FA
:102E0000BA61906900B14261002361602969226161
:102E10000122C4E90533CB07A260C5D5C0E7E8604D
:102E2000B6E7EA60EEE70120FDF742FADC3B00205E
:102E300055AA00FF669911EE38B50D4614220021FF
:102E400004461148FDF744FC1049114802F0B4FB58
:102E5000232D18D914F0030304D0043DC3F1040258
:102E60001D4414442A4600212046FDF731FC064B40
:102E7000084A0948A5F12001C3E901541C60E0613A
:102E8000C4E90021DC6038BDDC3B0020452C00009B
:102E9000312D000055AA00FF669911EE38B50446A1
:102EA000406A18B1A16A00F0A7FD606A02F07EFBDB
:102EB0000021236A2C22012B0CBF0D466FF09605D2
:102EC0002046C4E90911FDF703FC284638BD00BFC0
:102ED00070B50C4D82B02B78DB0710D50C46002660
:102EE0000146224601AB281D019600F06DF820B97D
:102EF000019BA34218BF6FF0930002B070BD6FF04A
:102F00008800FAE7F03B002038B51A4D297811F017
:102F1000010102D00024204638BD0822281DFDF7FB
:102F2000D7FB02222B7862F342032B7000F026F8C5
:102F3000044668B100F02EF82B7813F0060F12D17A
:102F40000C210C4800F058FD00F03CF8204638BD3C
:102F500000F036F804460028ECD12B78204643F0E8
:102F600001032B7038BD082200210348FDF7B0FB98
:102F7000E6E700BFF03B0020F43B0020044A0020BD
:102F800092F8803543F0010382F88035704700BF26
:102F9000FC3B0020F8B5094F01263C4607F5B0651B
:102FA000266220462C34FFF779FFAC42F8D197F81F
:102FB00080356FF3000387F88035F8BDFC3B0020B7
:102FC00000207047704700BF38B5002014461D46EA
:102FD00000F0E4FC28B92B68A34218BF6FF09300FF
:102FE00038BD6FF0920038BDF8B1F1B1012330B4B3
:102FF000046A0B60E4B100228569C16900F1300305
:1030000003EB850301EB410103EBC1039868013237
:1030100010F0080003F10C0303D1A242F6D130BC3A
:10302000704743F6DA3030BC704743F6DA30704709
:103030002046F4E7EFF3148311F00F0F0CBF0122C9
:10304000002262F3000383F31488BFF36F8F002024
:10305000704700BF2DE9F041970605460C4623D581
:10306000EFF39483DE074CBF42F0080222F008021F
:1030700002F006034CBF16211221062B1DD090072B
:103080006ED541F00806324621462846FDF7BCFAC7
:10309000002814BF0123002312D0002B14BF0020EE
:1030A0006FF07F00BDE8F08112F0080F02F0060318
:1030B0000CBF00210421062BE1D141F00106E2E71B
:1030C00045E800F22C44170E120204F1FF3040E8EC
:1030D00000F14FEA116CE0D50A02DED5BC45DCD028
:1030E00045E800F840E800F0070E00F0A3FB4FEAC7
:1030F0001868804503D300F09FFB874237D900F062
:10310000AFFB804530D300F0ADFB87422CD8404662
:1031100000F09EFB0346C5F10101284632461944E2
:10312000FDF772FA00B308F101050CE0284600F043
:1031300089FB804600F098FB324601464046013547
:10314000FDF762FA80B1AF42F0D8384600F07AFB62
:103150003246211AFDF758FA031E18BF01239CE7D7
:103160004CF2DA20BDE8F0816FF07F009AE740462C
:1031700000F05AFB0346C5F10101284632461944C6
:10318000FDF742FA0028EFD008F101050DE02846CE
:1031900000F048FB804600F051FB324601464046B5
:1031A0000135FDF731FA0028DED0AF42EFD83846BE
:1031B00000F038FBCCE700BFF0B5012587B03B48F5
:1031C00000F0B0FA00224FF44076394C8DF816200A
:1031D0002368364801932B442360364B01A9DA68F3
:1031E0001B690495ADF814600292039300F060FA35
:1031F000002856D123688DF816000193013323600F
:103200002D4B2A4802932D4B01A90495ADF814606B
:10321000039300F04DFA002843D123688DF816007F
:10322000019301332360264B20480293254B01A9CB
:10323000ADF814600495039300F03AFA002830D1F9
:10324000022740F2011623688DF816005A1C2260EE
:103250001D4A1648CDE901321C4B01A9039304977E
:10326000ADF8146000F024FA0346D0B98DF816309A
:103270002368174A019301332360164B0B4801A9B9
:10328000CDE902230497ADF8146000F011FA04466A
:1032900038B92A462946054800F0F2F9204607B019
:1032A000F0BD43F6DA3007B0F0BD00BF302F00208C
:1032B000804100205C570000A0020000E0080000F0
:1032C000C0100000C0100000201C0020401C002086
:1032D000001C0020041C002008B500F097F800F046
:1032E000A5F830B900F0BCF818B9FFF765FF00B9D0
:1032F00008BD43F6DA3008BD08B500F04BF868B9F0
:1033000000F052F850B900F05BF838B962B600F03E
:1033100059F818B900F06EF800B908BD43F6DA3074
:1033200008BD00BF014B1868704700BF5C57000024
:10333000014B1B68186870475C570000014B1B6805
:10334000586870475C57000043B2002B08DB01222D
:10335000044900F01F005B0902FA00F041F8230065
:103360000020704700E100E043B2002B0DDB01229A
:1033700007495B0900F01F00203302FA00F041F812
:103380002300BFF34F8FBFF36F8F0020704700BF44
:1033900000E100E00020034BD8765A6A42F4702224
:1033A0005A62704700ED00E00349044BCA680020F0
:1033B00092B21343CB60704700ED00E00800FA05BD
:1033C0000020704700234FF0FF30094903F1A002AD
:1033D0000133102B41F82200F8D1D1F880320020BF
:1033E00023F00803C1F88032D1F88032704700BF63
:1033F00000E100E008B500F0A9F90822024BC3F88B
:1034000080211A60002008BD00E100E0064BD3F8DF
:10341000D02022F00102C3F8D020D3F8D02042F00F
:103420000202C3F8D020704700ED00E010B5094C4F
:1034300000F094F9D4E9010100F0A8F90649074821
:1034400000F0BCF9D4E90301013900F0D3F9002000
:1034500010BD00BF5C570000FFFF0320008000206C
:1034600010B50021444800F003FA00214FF050202D
:1034700000F0FEF90021414800F0FAF9002140482F
:1034800000F0F6F900213F4800F0F2F900213E4833
:1034900000F0EEF900213D4800F0EAF900213C4837
:1034A00000F0E6F900213B4800F0E2F900213A483B
:1034B00000F0DEF90021394800F0DAF9002138483F
:1034C00000F0D6F90021374800F0D2F90021364843
:1034D00000F0CEF90021354800F0CAF90021344847
:1034E00000F0C6F90021334800F0C2F9002132484B
:1034F00000F0BEF90021314800F0BAF9002130484F
:1035000000F0B6F92F4C00212F4800F0B1F900214E
:103510002E4800F0ADF92046002100F0A9F9204620
:10352000002100F0A5F90021294800F0A1F90021AF
:10353000284800F09DF904F5B0340021264800F039
:1035400097F92046002100F093F90021234800F06C
:103550008FF90021224800F08BF901220020214B35
:10356000C3F88004C3F88424C3F8C004C3F8C42497
:10357000C4F8402510BD00BF00400050008000503E
:103580000090005000A0005000B0005000E000503B
:1035900000F00050000001500010015000400150A8
:1035A00000500150007001500080015000B00150E7
:1035B00000C0015000D0015000E0015000F0015067
:1035C0000000025000300250001002500020025053
:1035D000006002500080025000A0025000A0035082
:1035E000002584500030005008B5FFF785FE00B17B
:1035F00008BD00F07FF950B94FF6F771054AD3685E
:103600000B4043F0BF6343F40033D36008BD45F281
:10361000235008BD00ED00E00020704700207047F7
:1036200000207047704700BFBFF34F8F0549064B1E
:10363000CA6802F4E0621343CB60BFF34F8F00BF50
:10364000FDE700BF00ED00E00400FA050B4608B1FD
:10365000032070471146184600F01AB9BFF34F8F88
:103660000549064BCA6802F4E0621343CB60BFF31E
:103670004F8F00BFFDE700BF00ED00E00400FA053A
:1036800010B40368094C002918BF04211C630AB157
:1036900041F0020159605A6842F001025A60BFF3DA
:1036A0004F8FBFF36F8F002010BC704704AAFF003C
:1036B0004B68024613F01F0031D170B50E680F2E13
:1036C0002BD8146823F01F0365686060A66091F82A
:1036D00010C08A7C0CF0010CD2004CEA030302F00B
:1036E000180243EA020C8B684A7C013B23F01F0E50
:1036F000CB6852005B0003F00E0343EA0E0302F0B6
:10370000060242EA0C0243F00103E26023616560B5
:10371000BFF34F8FBFF36F8F70BD012070BD0120CD
:10372000704700BF0368196811F47F4FC1F3072287
:1037300009D000215868013A59609A60D96019612E
:103740005860002AF6D10020704700BF0722024BC4
:10375000C3F80423704700BF003000500023172037
:10376000094903F5C0720133202B41F82200F8D13A
:1037700000231720044903F5E0720133202B41F8A0
:103780002200F8D1704700BF00300050C90BB1EBE8
:10379000D03F0FD330B440F20715074CC30BD8B25B
:1037A00000F5C070994244F8205003F10103F6D1AE
:1037B00030BC7047704700BF0030005001F16041DD
:1037C00000F160404FEA513CBCEB503F0FD310B4C6
:1037D00040F20714430B0648D9B201F5E0719C454D
:1037E00040F8214003F10103F6D110BC7047704747
:1037F00000300050C0F30E03C3F50043B3FA83F367
:10380000C3F11B03064AC0F3C730DBB240F480703B
:1038100043F48073C2F80005C2F80435704700BF56
:1038200000300050C0037047C00300F5FF407F30F8
:10383000704700BF002070471F2070474FF40040C2
:10384000704700BF00F57F40C0304003704700BFA5
:10385000034602485B031844704700BFFF1FF81F70
:10386000402070475F2070474FF40050704700BF02
:10387000002914BF4FF480720022044BC0F30730BC
:1038800000F5007043F82020704700BF0030005062
:1038900038B543680C2B18D14B68042B15D14FF069
:1038A000FF3304680D6820682B6070B1A16861B1B6
:1038B0002622FFF7CFFB40B961680C4B994206D92D
:1038C000A2682D338818984209D9022038BD084BC8
:1038D0009942FAD9A268093388189842F5D8206825
:1038E000FCF73AFF002318462B6038BDFF01FF00AC
:1038F0002F01FF0010B50C4C236813B10B4B1B6854
:103900002BB900F089FC30B90122084B1A60012361
:103910000020236010BD0138062801D9044810BDDD
:10392000044B53F8200010BD844100208841002042
:10393000FE8FFFFF705700002DE9F043144C154F28
:10394000002818BF0446236883B0BB421CD016462B
:103950000D4620464FF4147104F1040900F04CF8B0
:1039600004F58E78484600F045FB404600F0D2F85A
:103970002B464A4640460849009600F0EDF900B94A
:10398000276003B0BDE8F083002003B0BDE8F083FA
:103990008C410020A5BCC95A7140000070B50E4D85
:1039A00082B0002814BF8446AC461D46DCF80000F7
:1039B0000A4B98420DD100260CF58E7033460096C6
:1039C000144600F0F3F9002818BF34462C6002B00A
:1039D00070BD0348FBE700BF8C410020A5BCC95A5D
:1039E000E88FFFFF38B131B10022014403460130B6
:1039F00081421A70FAD1704738B131B100220144C6
:103A00000346013088421A70FAD1704770B590B001
:103A100000287AD03E4C0D464022362106462046EC
:103A2000FCF756FE40225C21A018FCF751FE2B1D2E
:103A30009C4203D204F144039D4252D32B68226876
:103A4000534023602B68226C534023646B68626888
:103A5000534063606B68626C53406364AB68A268F8
:103A60005340A360AB68A26C5340A364EB68E26868
:103A70005340E360EB68E26C5340E3642B692269D6
:103A800053402361226D2B695340236562696B6942
:103A9000534063616B69626D53406365AB69A269B2
:103AA0005340A361AB69A26D5340A365EB69E26922
:103AB0005340E361EB69E26D5340E365002130461A
:103AC00001F0ECF8044628B940223046104901F0D4
:103AD000F9F8044640216846FFF78EFF204610B0F3
:103AE00070BD631E04F13F01013D1F3415F8010F45
:103AF00013F8012F42401A7011F8012F2878A342C1
:103B000082EA00020A70F1D1D8E76FF07304E5E7AA
:103B1000DC43002010B54FF49A7200210446FCF7F4
:103B2000D7FD42F21072044BC4F8202104F59670C0
:103B30001B68BDE8104018474C2F00202DE9F04FBE
:103B400004468946924695B0002900F0A780002AD5
:103B500014BF0227012700238DF80C30002C00F041
:103B60009F80DFF8448104AE08F1400B002120461D
:103B700001F094F8034648B1304620210193FFF745
:103B80003BFF019B184615B0BDE8F08F402241462F
:103B9000204601F097F803460028EDD104F1F40522
:103BA00020222946204601F08DF803460028E3D163
:103BB0000122204603A901F085F803460028DBD145
:103BC000022F62D020460CA901F0A6F80346002877
:103BD000D2D11946204601F061F803460028CBD126
:103BE00040225946204601F06DF803460028C3D113
:103BF000202220460CA901F065F803460028BBD11D
:103C00003146204601F088F803460028B4D13146F9
:103C10002046FFF7FBFE03460028ADD120222946AF
:103C2000204601F04FF803460028A5D120460CA9F4
:103C300001F072F8034600289ED10146204601F0AB
:103C40002DF80346002897D140225946204601F01E
:103C500039F8034600288FD1202220460CA901F014
:103C600031F80346002887D12946204601F054F850
:103C70000346002880D19DF80C200132D2B2BA420E
:103C80008DF80C20FFF472AF76E752464946204685
:103C900001F018F80346002894D06DE701275AE791
:103CA0006FF0730304AE67E7DC4300202DE9F041B9
:103CB0000446884615461F46D0F81801E0B013B1F7
:103CC00000EB40004008B5F5807F3ED82844B0F5B1
:103CD000C07F3AD84FF4C07200216846FCF7F8FC68
:103CE0006946D4F82431D4F81821D4F8280198472B
:103CF00070BBD4F8186157B1D4E9493072080DEBA4
:103D00000601984720BBD4F8183106EB5306B8F1EA
:103D1000000F00D08DB9324669462046FFF70EFFEE
:103D2000054610B90123C4F8143131466846FFF73F
:103D300063FE284660B0BDE8F0810DEB0600414609
:103D40002A462E44FCF708FDE5E76FF00405F0E78E
:103D50006FF00805EDE700BF2DE9F047044604F1D8
:103D6000F4050F4691461E46DDF8208000F07CFFEA
:103D700029462046FFF74AFE08B1BDE8F0872846ED
:103D800020220121FCF7A4FCD4F81831C4F82471D6
:103D9000C4F8289113B92023C4F81831424631469B
:103DA0002046BDE8F0470123FFF780BFB2F5806FE2
:103DB00000F295802DE9F04F89B09A46129BB3F539
:103DC000807F00F29080D0F8243116460446884661
:103DD0004BB3D0F81C31012B05D0D0F81421D0F80A
:103DE00020319A421FDD514600232046129AFFF7E8
:103DF0005DFF014698B900231293002E5ED0DFF8D4
:103E0000EC9009F1400B0021204600F047FF202EE6
:103E10003546014628BF202504F1F40790B1084635
:103E200009B0BDE8F08FBAF1000FE6D0129B002B6D
:103E3000E1D051461A462046FFF780FE0146002891
:103E4000DBD0ECE749464022204600F03BFF01462C
:103E50000028E4D139462022204600F033FF0146F5
:103E60000028DCD16946204600F056FF01460028B4
:103E7000D5D1204600F012FF01460028CFD1594687
:103E80004022204600F01EFF01460028C7D16946A7
:103E90002022204600F016FF01460028BFD13946F7
:103EA000204600F039FF01460028B8D140462A4696
:103EB0003946FCF751FC761BA844A4D15146204654
:103EC000129AFFF73BFE01460028A8D10846D4F815
:103ED00014310133C4F8143109B0BDE8F08F6FF02C
:103EE0000201084670476FF0040198E7DC430020A8
:103EF0002DE9F043202B1D460646884691468BB09F
:103F000026D8DBB202AF8DF80480B04658F8041B07
:103F10008DF8053021B9404600F0C0FE044640B996
:103F2000012302224046336001A900F0CBFE044683
:103F300038B138462021FFF75FFD20460BB0BDE8C1
:103F4000F0832A464946404600F0BCFE0446F0E7AE
:103F500002AF1946104600233A4601F03BF80446EA
:103F60000028E6D12023B9461D46CCE72DE9F041D3
:103F7000D0F8F830A6B0002BD8BF02AE31DD054630
:103F80000027D0F80C4102AEA4F101089022D5F828
:103F9000FC403146D0F8000101AB0197B8FA88F82F
:103FA000A0474FEA5818044620B9019B53B9B8F10D
:103FB000000F16D030469021FFF71EFD204626B098
:103FC000BDE8F081014632462846FFF791FF58B917
:103FD000D5F80431019A1344C5F80431B8F1000F43
:103FE000E8D16FF03C04E5E70446204626B0BDE882
:103FF000F08100BF70B50025044614222946C0F8A0
:10400000F850FC30FCF764FB154B04F588761B6810
:1040100030469847204640F8045B00F025FE114BDF
:1040200030461B689847C8B9D4F8F830AB420FDC6B
:1040300003EB830204EB82022021C2F8000101207D
:10404000C2E9421008490133C2F8FC10C4F8F83044
:10405000064B3046BDE870401B68184770BD00BF76
:104060004C2F0020502F0020654B0000542F0020C3
:104070002DE9F047202A88B078D83E4B00F58879A2
:1040800004461B684846174688469847054640BB85
:1040900040F20116D4F8F830002B63D02046FFF729
:1040A00065FF054600285FD1D4F8F830002B07DD06
:1040B000D4E94102904203D3D4F80C21012A14D050
:1040C000013EE9D16FF03B056E4620213046FFF7F7
:1040D00093FC294B48461B689847002818BF6FF08F
:1040E0001D05284608B0BDE8F0871F28E8D96E46B0
:1040F00029462022304604F1040AFCF7E9FA314649
:10410000504600F009FE05460028DED1504600F07A
:10411000BFFD504600F0A8FD2946504600F0BEFD08
:1041200005460028D1D150462022314600F0CAFD74
:1041300005460028C9D1034632462021304600F00A
:1041400049FF05460028C0D1D4F8F8303A46002B84
:10415000C8BF002340463146C8BFC4F80431FCF74D
:10416000FBFAB2E76FF03F056E46AEE76FF03B0536
:10417000B7E700BF502F0020542F0020002130B59A
:104180008DB0282202A80191FCF7A2FA02A800F043
:1041900049FF044610B120460DB030BD184D4FF018
:1041A000FF31286800F044F90446C0B9002000F04F
:1041B0006FF900BB134A02A901A800F0C5FC044630
:1041C000012000F065F990B9286800F039F900285D
:1041D000E1D00D4800F0C2F920460DB030BD0B48CB
:1041E00000F0BCF9012C08BF0524EDD0DEE708483B
:1041F00000F0B4F9E8E7074800F0B0F9DAE700BFEB
:10420000482F0020C8440020E45700008C570000CD
:10421000C4570000A457000030B583B000F05CF82C
:1042200028B100F0ABF80324204603B030BD00F005
:1042300077F8D8B900F02CF9E0B9224CD4F8283935
:104240001B0EF02B0AD1D4F8242A1F4B9A4231D0EE
:1042500000F044F8072400F091F8E5E7062400F0A8
:104260003DF800F08BF8204603B030BD0424204612
:1042700003B030BD00F032F800F080F8FFF77EFFA9
:10428000044698B9114D2B68002BCDD1024601464A
:10429000FFF752FB50B968220D4901ABFFF77EFBD7
:1042A00020B920460B4B2B6003B030BD05242046BF
:1042B00003B030BD012000F0EBF80028DAD1C4F8DB
:1042C0000C0ADBE7001084500000E020C44400200A
:1042D0005C4400205AEA5A5A002070470020704778
:1042E000430504D54FF0FF32034BC3F80821024BBE
:1042F000C3F8080A704700BF00108450014BC3F890
:10430000040A70470010845008B100F06BB84FF4F5
:104310007500704708B100F04FB84FF47500704752
:1043200010B5114800F070F800B110BD0F4800F052
:104330006BF80028F9D10E4C204600F065F80028F3
:10434000F3D10C4B0C481C6000F05EF801460028CD
:10435000EBD100F02DF8044608B1204610BD00F066
:1043600079F82046FAE700BF442F0020382F0020BC
:10437000402F0020482F00203C2F002008B508487F
:1043800000F04CF8074800F049F8074800F046F8FC
:10439000064800F043F8BDE8084000F00BB800BF45
:1043A000442F0020382F0020402F00203C2F0020D9
:1043B00000207047704700BF024610B4084CD4F884
:1043C000003A1342FBD021B1D4F804310B60C4F899
:1043D0000831034B0020C3F8082A10BC704700BF07
:1043E00000108450044AD2F8003A1842FBD0C2F8B8
:1043F000080A0020704700BF00108450FBF798BFE8
:104400000A460021FCF764B908B5034B02681B6833
:1044100010689847002008BD682F002008B5034B9E
:1044200002685B6810689847002008BD682F00206C
:10443000024B02689B681068184700BF682F002075
:1044400008B5034B0268DB6810689847002008BD78
:10445000682F002070B5094C094D2069AB6898475A
:1044600018B1084B08485B6898470021074AEB6879
:1044700011602069BDE87040184700BF782F002008
:10448000682F0020582F0020FC570000E84600202D
:10449000F8B51A4D1A4E0446B26828699047E8B933
:1044A000184F3B684CB1A3B1012B19D0013B3B60C5
:1044B0002869F36898470020F8BD43B90121124AE2
:1044C000C2F800151149D1F81029002AFBD1013397
:1044D0003B60F368286998470020F8BD0C48F8BD98
:1044E0000A4AD2F81039002BFBD1074A6FF07E4000
:1044F000C2F80035FFF702FF3B68D7E7782F0020AE
:10450000682F0020E84600200000845000108450EE
:10451000E98FFFFF014B1B68184700BF682F002081
:10452000014B9B68184700BF682F0020014BDB68D8
:10453000184700BF682F0020BFF34F8F0549064B77
:10454000CA6802F4E0621343CB60BFF34F8F00BF31
:10455000FDE700BF00ED00E00400FA0530B44FF0C5
:10456000FE320025074B084C08494968C3F800246F
:10457000C3F80424C3F80824C3F80C24C4F8005575
:1045800030BC08470010845000008450582F002091
:1045900010B5044630B16368DB0602D50023236002
:1045A000636010BD024B03485B689847F3E700BFA8
:1045B000582F00201C580000B0B1436893B1DB06AF
:1045C0000ED5012350E8002F194640E8001C9CF04E
:1045D000000FF7D1012AF5D0BFF35F8F002070479D
:1045E00003487047034870476FF4E040704700BFCE
:1045F000E98FFFFFEA8FFFFF034668B142683AB1D7
:10460000D20607D5BFF35F8F002210461A607047AD
:1046100003487047034870476FF4E040704700BF9D
:10462000EA8FFFFFE98FFFFF10B5044620B100229B
:1046300011232260636010BD0148FFF78FFFF6E78A
:1046400044580000002800F084802DE9F0430C4617
:1046500083B0002978D01D46002B75D007461AB1CB
:10466000012200232A6003602B68002B67D02946B3
:10467000204600F0CDFD0346002861D12146286880
:1046800000F0A8FD034600285AD12A68082A72D0F3
:10469000042A73D0A2F10208B8FA88F84FEA581831
:1046A0000120384EC6F8C401C6F84001C6F8C4015E
:1046B000626AC6F83021D6F830118A42F6D14FF03E
:1046C000000901934FF0FF30C6F82C91FFF708FE68
:1046D0006FF01B024846C6F80021FFF70FFEC6F830
:1046E0000C81D6F8040A40F48060FFF707FE0A2226
:1046F000C6F838210A9B012B019B2DD02269224943
:10470000A1FB02121209616A184601FB02F202EBD8
:1047100042021C49D2039209C1F8D8210122C1F8F2
:104720002C213A68296822F07F4242EA01623A600D
:10473000296842EA01223A6003B0BDE8F083134BD6
:10474000184603B0BDE8F083114B184603B0BDE82E
:10475000F0830F4B184670474FF47F02D2F80C1CC1
:10476000013106D0D2F80C2C0749A1FB0212120924
:10477000C9E71622C7E74FF0030891E74FF0020898
:104780008EE700BF00108450ABAAAAAA310CF1003A
:10479000350CF10070B50024C9004FF0010C25461E
:1047A000A6464E1E08E09E4514D00125B44516D8F5
:1047B0009E4601340CF1010C630950F8233004F0DB
:1047C0001F01CB401F2918BF03F00103002CEAD1C1
:1047D0000125EDE701359542E8D1024870BD002082
:1047E00070BD00BF360CF10000283FD02DE9F0412C
:1047F0004C1EB4F5047F28D23BB332B34FF0000E09
:10480000764675467446CF0003F1FF38610950F8CB
:10481000211004F01F0C21FA0CF1BCF11F0F18BF7E
:1048200001F00101A4B1AB4218D08E4208BF0EF1D5
:10483000010EA84515D0314601350134BC4201D0E6
:104840000E46E3E70020BDE8F0810948BDE8F081AD
:104850004FF0010E0E4674467546D7E70125AE4669
:10486000EBE77245F1D331461D46E6E70048704755
:10487000370CF1002DE9F04F91B08346DDE91B467E
:104880000D46002E4DD1096906911C6000231A992E
:104890000B60002A00F025819E4B6A6AD3F838111C
:1048A000D3F830319A4248D10A2946D19BF80330D7
:1048B000089304F1080307930423069A0593964B83
:1048C000944CA3FB02139B0803EB4303A2EB4303AB
:1048D00003931A9B069E1E60002E34D04FF00008F2
:1048E0004FF0010ADDF81C9000F0A2FC00230993B0
:1048F000BBF1000F00F0DF80002D00F0DC80089B92
:10490000EBB1284608A900F083FC00283ED0834B79
:10491000984218D1039000F08BFC039811B0BDE8C9
:10492000F08F4FF47F01D1F80C0C01300CBF4FF425
:104930000471D1F80C1C0691A7E77948EAE7794899
:10494000764B9842E6D0089B082B00F0C8800022E6
:104950005B000893294608AB58460092FFF772FEA9
:10496000704B984200F0B7800028D3D1DBF80020CC
:10497000130A03F47F03134323F07F43CBF8003083
:10498000059B013B0593A4D10020C3E72946089865
:1049900000F020FC0028BAD1089B082B00F095807D
:1049A000042B00F09580A3F10203B3FA83F35B09B3
:1049B0000493C4F8C4A1C4F840A1C4F8C4A16B6AAC
:1049C000C4F83031D4F830219342F6D100234FF0AF
:1049D000FF30C4F82C31FFF783FC002318466FF03A
:1049E0001B03C4F80031FFF789FC049B4A4FC4F84D
:1049F0000C31D4F8040A40F48060FFF77FFC0A23EE
:104A0000C4F838312B6909A8A7FB03236A6A1B097C
:104A100002FB03F303EB4303DB039B09C4F8D83128
:104A2000C4F82CA10899DBF800200B0222F07F4289
:104A300043EA01631343CBF8003000F0BBFB099B52
:104A400003F01A0303437FF47EAFA7FB0637D4F8C5
:104A50001431B8EB970F0A93D4F818310B93D4F8AC
:104A60001C310C93D4F820310D93D4F824310E93DB
:104A7000D4F828310F9301D1039BF3B9484618228B
:104A80000AA9183E09F11809FFF7B8FC08F1010856
:104A9000002E7FF429AF069BB3F5047F36D8079E1E
:104AA000194630466A691F46FFF774FE20B300239B
:104AB0001A9A13602BE71C4829E748461A460AA9A8
:104AC000F61A9944FFF79AFCE0E70323049370E792
:104AD000022304936DE72B6A002B3FF41BAF1348AE
:104AE00018E7012229465846009608ABFFF7AAFDB1
:104AF00000283FF4DEAE0DE74FF4806339463046C0
:104B0000AA69FFF771FE0028D1D13DE71A9B1E600C
:104B100019E700BF00108450ABAAAAAA020CF1004A
:104B2000300CF100310CF100350CF100320CF100C9
:104B300010B4DDE9013401940024DDF80CC0CDE9A6
:104B400002C410BCFFF796BE30B51546012487B0ED
:104B500005AB00930022CDE9015404ABFFF78AFEB8
:104B600007B030BD2DE9F04188B00592002968D02A
:104B70001C46002B65D01546002A62D0DFF8C8809D
:104B80000E46D8F800004FF0FF31FFF751FC002827
:104B90004CD10020FFF77CFC002843D12B4800F0CB
:104BA00041FAE8B101204FF0FF37FFF771FC002810
:104BB00034D14FF408712648FEF714FF042125482C
:104BC000FEF710FF21482821FEF70CFFD8F800005F
:104BD000FFF736FC00282DD1384608B0BDE8F0813B
:104BE0001B4B0246029307AB0390009317491948E9
:104BF000019405ABFFF79CFF0028D3D12368AB429B
:104C0000D0D3079907462A4630460831FFF7F6FB0E
:104C100001202560FFF73CFC0028CAD00E48FFF7B2
:104C20009DFCC6E70D48FFF799FCB7E70C48FFF776
:104C300095FCAEE70B48FFF791FC384608B0BDE89D
:104C4000F0814FF0FF37C7E7482F002020490020B0
:104C500000470020FC460020C4570000A457000075
:104C60008C5700006858000010B5044628B1204653
:104C7000BDE81040F421FFF7C3BB0448FFF76EFC0A
:104C80002046BDE81040F421FFF7BABB8058000071
:104C900010B1F421FEF7A6BE704700BF08B561B1A0
:104CA000012907D1022100F05BF8002818BF6FF03E
:104CB000360008BD6FF0360008BD012100F050F845
:104CC000F3E700BF30B505468818B0F5801F0B46E6
:104CD0001446A1B001D8802A0CD9B3F5801F17D98A
:104CE00022461946284600F07DF8044684B920463D
:104CF00021B030BD6846FFF781FB22466946284651
:104D000000F070F8802104466846FFF779FBEDE774
:104D10006FF03604EBE700BF70B5E8B10E46D9B1CD
:104D2000044600F031F80546B0B92368012B0BD0DA
:104D3000022B01D0284670BD1C22304604F1080128
:104D4000FFF75CFB284670BD2022304604F10801C5
:104D5000FFF754FB284670BD6FF03605EAE700BF49
:104D600078B138B50D46F0210446FFF749FB4023E2
:104D700020462560E36500F09BFA003818BF01204B
:104D800038BD0120704700BFF0B5056EA5B00446E0
:104D900004AEE5B900230127019330466760294638
:104DA00002AA009300F050FA10B1012025B0F0BD26
:104DB0002A46204602A900F0A5FA0028F5D120468F
:104DC00000F0B6FB0028F0D1206625B0F0BD802DA4
:104DD0002A46304628BF802204F16401FFF70EFB0B
:104DE000256ED7E7002800F0CD802DE9F04F15465D
:104DF000A5B0002A00F0B4800F46002900F0AC8076
:104E0000B2F5803F0646006E7DD34FF6FF7806F17F
:104E1000640914E08342BA464FF6FF7429D0B4FB0C
:104E2000F3FB03FB0BFBBBF1000F44D1A5F57F4562
:104E30004744FF3D002C59D1B5F5803F63D3F36D56
:104E40001C1AB4FBF3F203FB1244002CE2D04445DD
:104E500028BF4446394622464844FFF7CFFA306E11
:104E6000F36D2044834207EB040A3066A8EB040488
:104E7000D5D1802B28BF802349461A4604A8FFF7C6
:104E8000BDFA0023F16D02AACDE9003304A800F0B9
:104E9000DBF9002860D13046F26D02A900F032FA49
:104EA000002859D1F36D3066B4FBF3FB03FB0BFB19
:104EB000BBF1000FBAD0002359465046CDE900336C
:104EC00002AA00F0C1F9002846D15A46304602A98C
:104ED00000F018FA00283FD1A5F57F45A4EB0B049C
:104EE000306EDA444744FF3D002CA5D019305146BE
:104EF000224606EB8000FFF781FA306EB5F5803F61
:104F0000204430669BD2F26D141AB4FBF2F302FB1C
:104F10001344AC4228BF2C4634BB904234D0B5FB7E
:104F2000F2F402FB04F46CB9D5B1336E2A4619339E
:104F300006EB83003946FFF761FA336E00202B44FD
:104F400033660AE0002321463846CDE9003302AA41
:104F500000F07AF9002833D0012025B0BDE8F08FA9
:104F6000284625B0BDE8F08F06F164033946224695
:104F70001844FFF743FA306EF26D20442D1B27448E
:104F80003066CAE701207047802A28BF802206F1D8
:104F9000640104A8FFF732FA0023F16D04A8CDE9FB
:104FA000003302AA00F050F90028D5D13046F26D46
:104FB00002A900F0A7F90028CED1F26D3066AEE765
:104FC0002246304602A900F09DF90028C4D12744AA
:104FD0002D1BA9E7F8B51C460546114816460F4695
:104FE000FFF742FE21460E48FFF758FE044620B167
:104FF0000B48FFF74DFE2046F8BD3A4629460848C3
:10500000FFF760FE04460028F2D131460448FFF75E
:1050100083FE04460248FFF73BFE2046F8BD00BF72
:10502000484900201C2330B583B001A904460193F0
:1050300000F036F8054638B9019B1C2B07D0164DF9
:105040001C212046FFF7DCF9284603B030BD0121C2
:10505000D4E90032003B18BF0123E1610AB143F0FB
:105060000203A26832B9E26842B9C4E908328BB9D6
:105070000A4DE5E7E26843F004033AB1002228460E
:1050800043F00803C4E9083203B030BD1546C4E953
:105090000832D9E71546D7E7370CF0000E0CF000C0
:1050A0000346002866D0002964D00A681C2A61D112
:1050B0004FF47F023B49D2F8100C88425CD0D2F802
:1050C000101C013158D0D2F8101C4FF47F02196027
:1050D000D2F8140C3449884260D0D2F8141C013143
:1050E0005CD0D2F8141C4FF47F025960D2F8181C1F
:1050F00011F5947F4FD0D2F8181C01314BD0D2F863
:10510000181C4FF47F029960D2F81C0C2749884282
:105110003ED0D2F81C1C01313AD0D2F81C1C4FF4FE
:105120007F02D960D2F8001C70312FD0D2F8001C59
:1051300001312BD0D2F8001C4FF47F021961D2F854
:10514000041CAF3120D0D2F8041C01311CD0D2F89D
:10515000041C4FF47F025961D2F8080C14498842AC
:105160000DD0D2F8081C013109D0D2F8082C00204B
:105170009A6170470120704740F6FC01A5E740F2B4
:10518000373200209A6170475121E2E79021D3E73E
:1051900042F60411C3E740F6D861B2E742F2D0010B
:1051A000A1E700BFFCF8FFFFD020FFFF0429FFFFAD
:1051B00037F3FFFF014608B54FF48060FFF7AAF808
:1051C0000022034BC3F8C821C3F82C2108BD00BF3F
:1051D000001084500138072805D8DFE800F0120ECF
:1051E000040A0404040609487047CB6800204B6297
:1051F00070478B6800204B6270474B6800204B6201
:1052000070470B6800204B62704700BF310CF10003
:105210000B6802E0082B0B6006D8026A13424FEAC3
:105220004303F7D00020704700487047310CF1006D
:105230000022044B4FF48060C3F82C21C3F8C42132
:10524000FFF74EB800108450F0B5002483B0B0F1E1
:10525000005F8DF8074025D38C468444BCF1804F15
:1052600004461FD817461D4601220DF1070300F022
:1052700099F90646B0B99DF80730099A3C603B7130
:1052800092B14DB10246089928460DF1070300F08E
:1052900089F938B99DF807303046099A15601371BD
:1052A00003B0F0BD4FF47506304603B0F0BD00BF4B
:1052B000E8B110B50468012C04D0022C10D044B120
:1052C0000C4810BD20220C490830FFF797F8002049
:1052D00010BD142209490830FFF790F8204610BD90
:1052E000202207490830FFF789F8002010BD4FF44D
:1052F000730070470100F300C4580000905800008C
:10530000A45800002DE9F843002900F0F980044674
:10531000002800F0F98003680F469046002B00F04B
:10532000C380013B012B00F2D7804FF0FF3178485A
:105330004FF00209FFF77CF8002840F0BF80002002
:10534000FFF7A6F80646002840F0C280714AD2F85E
:105350001C39002BFBD16F4DD5F8203C002BFBD125
:105360004FF0FF30FEF7BCFFD5F8040A20F04000F4
:10537000FEF7C4FF01230722C5F81838C5F8002935
:10538000C5F8C437A36CC5F8CC37E36CC5F8D03783
:10539000C5F8C09723685BB1013B012B18D8636A3D
:1053A000C5F85C36236AC5F85836E369C5F8543643
:1053B000A269584BC3F850266269C3F84C2622698B
:1053C000C3F84826E268C3F84426A268C3F840261A
:1053D000504AD2F81039002BFBD1B8F1000F5FD042
:1053E00063684020012B08BFC2F884363A68494BF5
:1053F000C3F8282CC3F82C8CFEF786FF0646454AD6
:10540000D2F81039002BFBD1424AD2F8203C002BB5
:10541000FBD123685BB1013B012B18D8D2F85C3675
:105420006362D2F858362362D2F85436E361394BBE
:10543000D3F85026A261D3F84C266261D3F84826EF
:105440002261D3F84426E260D3F84036A3600023FB
:105450000121304AD2F8CC07A064D2F8D007E0642A
:10546000C2F8C417C2F88436C2F8C837D2F8103967
:10547000002BFBD1C2F81838002E3BD1254BD3F8B6
:10548000040A40F04000FEF739FF0120FFF700F862
:1054900060BB1F48FEF7D4FF10BB3046BDE8F88361
:1054A0000423C2F8C837AAE74FF0FF3118484FF07D
:1054B0000109FEF7BDFF00283FF441AF1648FFF792
:1054C0004DF80020FEF7E4FF064600283FF43EAF0B
:1054D0001248FFF743F839E7114E3046BDE8F8832C
:1054E0001048FFF73BF83046BDE8F8830E48FFF759
:1054F00035F8CEE7102104F10800FEF781FFBDE783
:105500000A4E3046BDE8F8834FF47306C5E700BF86
:10551000442F0020001084508C570000A457000036
:105520000100F300E4570000C45700000300F3003B
:10553000A0B3034670B4D0E90240D3E9041226BAFE
:1055400005BA0CBA10BAC3E90440D3E90612986A46
:1055500009BAC3E9026512BA996100BAD3E90841F0
:1055600025BA0CBAC3E90725D3E90B12C3E90940F0
:1055700009BAD86B12BAD962D3E90D4125BAC3E989
:105580000C250CBA00BAD3E9101209BA12BAC3E951
:105590000E40196400205A6470BC70474FF47300C9
:1055A000704700BF00201870704700BF014B1B6898
:1055B000184700BFA82F002010B40446034A044B2C
:1055C00000201460196010BC704700BFA42F002099
:1055D000A82F0020054A0346106810B10344136049
:1055E0007047034803441360704700BF4C4A0020D3
:1055F000000C0020FEE700BFF8B500BFF8BC08BCF7
:105600009E467047F8B500BFF8BC08BC9E46704780
:105610000122FBF70DFF1FBD1FB51F486946F7E7C5
:105620001FB51E486946F3E71FB51D486946EFE7F9
:105630001FB51C486946EBE71FB51B486946E7E7FD
:105640001FB51A486946E3E71FB519486946DFE701
:105650001FB518486946DBE71FB517486946D7E705
:105660001FB516486946D3E71FB515486946CFE709
:105670001FB514486946CBE71FB513486946C7E70D
:105680001FB512486946C3E71FB511486946BFE711
:105690001FB510486946BBE7951400009D14000033
:1056A000C9140000DD17000025180000A118000033
:1056B0002D19000079190000F1190000B11A00003D
:1056C000C11A0000F11A000091140000C916000070
:1056D00069170000F51A000054464D5F43525950B7
:1056E000544F000054464D5F53505F504C41544658
:1056F0004F524D5F53595354454D5F524553455496
:105700000000000054464D5F53505F504C415446DA
:105710004F524D5F494F43544C00000054464D5F7B
:1057200053505F504C4154464F524D5F4E565F436D
:105730004F554E54455200000D1C0000E11B000067
:10574000751B0000391B0000451B0000211B0000D9
:10575000040A000050310020803100200080000049
:1057600000800000FFFF0F00007C000000800000B0
:10577000FF8FFFFFFF8FFFFFFE8FFFFFFE8FFFFFFB
:10578000FD8FFFFFFC8FFFFFFC8FFFFF4661696C01
:1057900020746F2061637175697265206D75746521
:1057A000780A00004661696C20746F20696E63722C
:1057B0006561736520504D20636F756E7465720A64
:1057C000000000004661696C20746F20646563729C
:1057D0006561736520504D20636F756E7465720A44
:1057E000000000004661696C20746F2072656C6572
:1057F000617365206D757465780A0000436F756C80
:1058000064206E6F74206C6F636B20706F776572AD
:105810002073617665206D75746578006D757465AB
:10582000785F667265652063616C6C65642077697A
:105830007468204E554C4C20706172616D657465C2
:105840007200000043616E277420696E697469619B
:105850006C697A65206D757465782C20776173208A
:105860004E554C4C0D0A00004661696C20746F2047
:10587000756E6C6F636B206D757465780A0000003F
:105880000A637478206973204E554C4C0A0000005E
:105890000123456789ABCDEFFEDCBA987654321010
:1058A000F0E1D2C3D89E05C107D57C3617DD703034
:1058B00039590EF7310BC0FF11155868A78FF964DD
:1058C000A44FFABE67E6096A85AE67BB72F36E3C09
:1058D0003AF54FA57F520E518C68059BABD9831FBB
:1058E00019CDE05B0000000018B8FF7F0100000048
:1058F0000090D003E008000020300020503100204C
:1059000090ED00E0001C00207C2F0020882F00205C
:10591000802F0020782F0020402F00201545000008
:10592000214500002D450000000000003945000021
:10593000EC460020110000002946000091450000BF
:10594000B9450000F94500009C2F0020602F002081
:10595000942F0020000000008C2F0020F046002033
:1059600011000000F446002011000000F84600205D
:1059700011000000A102000021030000B02F002050
:105980000000000000000000000000000000000017
:105990000000000000000000000000000000000007
:1059A00000000000000000000000000000000000F7
:1059B00000000000000000000000000000000000E7
:1059C00000000000000000000000000000000000D7
:1059D00000000000000000000000000000000000C7
:0859E000E5100000C1100000F9
:107C00007FE97FE9F8F780BC7FE97FE9F8F792BC6C
:107C10007FE97FE9F8F7D6BC7FE97FE9F8F7BABCDE
:107C20007FE97FE9F8F79CBC00000000000000003D
:107C30000000000000000000000000000000000044
:10800000F88703202D4F010045460100F94E01007D
:10801000F94E0100F94E0100F94E0100F94E010040
:1080200000000000000000000000000039470100CF
:10803000F94E010000000000D5460100F94E010094
:10804000D5470100D5470100D5470100D5470100BC
:10805000D5470100D5470100D5470100D5470100AC
:10806000D5470100D5470100D5470100D54701009C
:10807000D5470100D5470100D5470100D54701008C
:10808000D5470100D5470100D5470100D54701007C
:10809000D5470100D5470100D5470100D54701006C
:1080A000D5470100D5470100D5470100D54701005C
:1080B000DD9D0100D5470100D5470100D5470100EE
:1080C000D5470100D5470100D5470100D54701003C
:1080D000D5470100D5470100D5470100D54701002C
